:020000022000DC
:1070000000290020D17B0200B3E50200BD7B020015
:10701000BD7B0200BD7B0200BD7B020000000000C2
:107020000000000000000000000000003D7D0200A4
:10703000BD7B020000000000D97C0200BD7B020085
:10704000FD7E0200FD7E0200FD7E0200FD7E02004C
:10705000FD7E0200FD7E0200FD7E0200FD7E02003C
:10706000FD7E0200FD7E0200FD7E0200FD7E02002C
:10707000FD7E0200FD7E0200FD7E0200FD7E02001C
:10708000FD7E0200FD7E0200FD7E0200FD7E02000C
:10709000FD7E0200FD7E0200FD7E0200FD7E0200FC
:1070A000FD7E0200FD7E0200FD7E0200FD7E0200EC
:1070B000FD7E0200FD7E0200FD7E0200FD7E0200DC
:1070C000FD7E0200FD7E0200FD7E0200FD7E0200CC
:1070D000FD7E0200FD7E0200FD7E0200FD7E0200BC
:1070E000FD7E0200FD7E0200FD7E0200FD7E0200AC
:1070F000FD7E0200FD7E0200FD7E0200FD7E02009C
:1071000010F8012B11F8013B012A28BF9A42F7D051
:10711000D01A7047F8B5174D284609F068FF0446A5
:1071200030B32A69A968136843F0806313600B6861
:10713000114A1A2128469847002819DB0F4F104E94
:10714000AB684FF080615B692846984700280FDBE9
:1071500084F0010414F0FF0414BF39463146094895
:1071600006F020FB00214FF400400AF016FAE7E792
:107170000020F8BD341A0300010006000A1F0300B6
:107180000D1F0300111F0300014B1B68184700BFB0
:10719000D0000020014B1860704700BFD0000020D5
:1071A00030B585B004460D461022002168460AF02D
:1071B00064FB02238DF802302A46044B01932146DA
:1071C000684606F001FB05B030BD00BF89710200C2
:1071D00080B505460E461746984605F009FE03465B
:1071E0000AF0B6FBDFF81890044649F80030424632
:1071F00030463946A84754F8090000F057FD00BF53
:10720000080000002DE9F047058B0446280790464A
:1072100011D4022905F0070540F0CC80204607F084
:1072200017F878B10138218B042811D8DFE800F075
:10723000C2106D85950001290CBF45F0100545F081
:107240002005258388F31188BFF36F8FBDE8F08791
:1072500001F0070AAA4500F0A5800027B9463E467E
:10726000A368002B00F0BC8041F00801218388F363
:107270001188BFF36F8FA168002900F0BA800D68F4
:10728000002900F0B680D1F80480334652462046EB
:10729000C047002D76D02B6829461D46F0E701F047
:1072A00007035A1F012A1BD8002221F00701062BD1
:1072B000276889B2C4E9002209D13B4603E0628B0A
:1072C000013262831B68002BF9D141F00201218356
:1072D000204606F0BDFF00287AD041F0200176E07C
:1072E000042B0AD121F0070189B22183204606F040
:1072F000AFFF10B141F020012183218B01F0070A7B
:10730000AA454FD00027B946AAE7236921F0070113
:1073100041F00601062DD3F8009021832DD1B9F15B
:10732000000F3FD041F00801218388F31188BFF39B
:107330006F8F3A492046C84729E021F007012369A9
:1073400041F0040189B2042DD3F804902183E6D0E2
:1073500000273E464FF0040A82E721F00701236927
:1073600041F0050189B2052DD3F808902183D6D0CC
:1073700000273E464FF0050A72E700273E464FF0D1
:10738000060A6DE72B4687E7B9F1000FD1D1EFF37D
:107390001188202383F31288BFF36F8F238B23F090
:1073A00008032383258BEA062ED525F010032383BB
:1073B00005F007056669218B002EBFF670AF00232C
:1073C0002768C4E9003321F0070141F0010121835E
:1073D000218B01F0070AAA454FF000097FF440AF66
:1073E000002F9CD041F00801218388F31188BFF35E
:1073F0006F8F002FC8D03D6839463346524620462D
:1074000006F052FF2F46F4E7AB067FF51BAF25F0E1
:107410002003238305F0070500E700BFD5E2020043
:10742000014B036000207047F81C030007B51B499F
:107430001B4807F054FA70BB1A49194807F04FFA75
:1074400048BB1949164807F04AFA20BB17491448A7
:1074500007F045FAF8B90146154A114807F037FD1B
:10746000C8B9024613490E48012307F00BFE90B934
:1074700001230093014602230948EF2207F03AF95D
:1074800048B9074807F05FF928B9054803B05DF827
:1074900004EB07F088B903B05DF804FB4801002055
:1074A00064050020300100201801002000010020A8
:1074B000D4000020201F030008B5044806F0A0FEF9
:1074C000034806F09DFE002008BD00BF701F0300AA
:1074D000A51F0300014805F0BDBF00BFF81C030055
:1074E00038B5044618B90F4B0F485B689847616878
:1074F000B1F5683F10D0B1F5680F0DD00B4DA94222
:107500000AD011F46861206807D00146084809F0E4
:1075100012FE00232360656038BD14220AF0ADF925
:10752000F9E700BFA8030020D31F03002C5F5CA96C
:10753000B80E002008B520B34368B3F5683F10D1FA
:1075400001220368BFF35B8F53E8001F002903D1BA
:1075500043E800200028F7D1BFF35B8F0DD1002056
:1075600008BD094A93420AD000684FF0FF324FF03D
:10757000FF3304F0A3FD0028F1D00448F0E70448ED
:10758000EEE76FF4E040EBE72C5F5CA9E98FFFFFCB
:10759000EA8FFFFF08B5D8B14368B3F5683F10D153
:1075A00000220368BFF35B8F53E8001F012903D15A
:1075B00043E800200028F7D1BFF35B8F0BD10020F8
:1075C00008BD074A934208D0006804F0EFFDF6E7D3
:1075D0006FF4E040F4E70348F2E70348F0E700BF48
:1075E0002C5F5CA9E98FFFFFEA8FFFFF10B504460F
:1075F00018B91D4B1D485B6898476368B3F5683F31
:107600002FD0B3F5680F2CD0194A934219D12368B3
:1076100003BB18484FF0FF324FF0FF33214604F010
:1076200051FC08B923681BB90F4B13485B68984796
:107630002068142200210AF020F94FF46863636087
:1076400008E0B3F5683F0DD83A2B03D040F6BA6294
:107650009342DED1206809F0CDFD636843F03A0320
:10766000636010BD054AF3E7A8030020D31F0300A1
:107670002C5F5CA9B80E0020F91F03003A00003A05
:1076800008B5064906484023142209F046FDBDE826
:1076900008400449044805F04FBF00BFB809002066
:1076A000B80E0020001D0300141D030008B5034898
:1076B000034A0021121A06F074FF08BDF8050020E5
:1076C000A81400200748084A084908B5121A06F00D
:1076D0006AFF0748074A0849BDE80840121A06F041
:1076E00062BF00BF00000020F8050020182503003D
:1076F00000000020000000201825030038B50546D2
:107700000C4699B1D1E901230F48096806F078FDCC
:10771000D4E90423E1680D4806F072FDE1690C48E4
:1077200006F06EFDA1690B4806F06AFD012D05D13A
:10773000EFF305810848103906F062FD214628461E
:10774000BDE8384004F05EBA26200300562003004E
:107750008620030096200300C520030030BFFFF7FA
:10776000FDBF00BF2DE9F0410B4EDFF8308006EB86
:107770000807CC1B05463246094920460AF06FF837
:10778000A01942460021083C0AF077F8C5F880406D
:1077900007F10800BDE8F0810000000008000000CB
:1077A000EC1C0300054B5A699B689A421FBF044AB0
:1077B000536843F080535360704700BF6C12002041
:1077C00000ED00E02DE9F843324D8046324889460D
:1077D000174606F015FDAB6ADE0622D52F4806F0E7
:1077E0000FFD1124AB6A1D0703D52D4806F008FDD7
:1077F0001224284DAB6A980715D52A4806F000FDDB
:107800006E6BAB6A190642D52748314606F0F8FC84
:10781000B9F1000F03D0AB6A23F08003AB621324ED
:1078200003E01024DEE76FF015061A4DAB6ADA07A5
:1078300003D51E4806F0E4FC1424AB6A9B0603D56E
:107840001B4806F0DDFC1524124B9A6AD50602D4BB
:107850009A6A90070AD55B68190507D541463046F4
:1078600000F004FB10B180F309880224094B9A6AE6
:10787000920642BF5A6A22F400525A629A6A42F051
:10788000FF029A6200233B702046BDE8F8836FF048
:107890001506C4E700ED00E0D9200300F020030046
:1078A0002421030038210300512103006821030033
:1078B0008821030010B51D4C1D4806F0A1FCA36AE9
:1078C000990130D51B4806F09BFC1E20A36ADA0103
:1078D00003D5194806F094FC1F20144CA36A1B031F
:1078E00003D5164806F08CFC2120A36A590303D562
:1078F000134806F085FC22200C4CA36A9A0303D59A
:10790000104806F07DFC2320A36ADB0303D50E4854
:1079100006F076FC2420054A936A6FEA03436FEA77
:107920001343936210BD1D20D0E700BF00ED00E0BF
:10793000B8210300D1210300E52103000022030048
:107940001F220300452203006022030070B5244C6F
:10795000064624480D4606F053FCA36AD90435D5E3
:10796000214806F04DFC1720A36A1A0503D51F48CD
:1079700006F046FC18201A4CA36A9B050FD51C483C
:1079800006F03EFCA16BA36A180407D5194806F05F
:1079900037FC1EB1A36A23F40043A3621920104CE4
:1079A000A36A590503D5144806F02AFC1A20A36AD5
:1079B000DA050DD5114806F023FC1B20084A936A0E
:1079C00043F47F43936200232B7070BD1620CBE7F6
:1079D000A36A9B04F2D50A4806F012FC1C20EDE7CE
:1079E00000ED00E08C220300A32203002421030009
:1079F000B5220300CF220300E52203000123030088
:107A0000882103002DE9F0415B4B5F688AB0044692
:107A1000C7F30806002585F31188BFF36F8F02F0C6
:107A20007F43B3F17F4F06D102F00C03082B13D133
:107A3000524806F0E5FB00252C464FF00008F31EE7
:107A40008DF80780092B00F28680DFE803F00A7AC0
:107A50007E7684848484848210074CBF0C46012582
:107A6000EBE74748444E06F0CBFB8DF80780F36AFE
:107A70009A0704D5434806F0C3FB002330E0F36ABD
:107A8000002B01DA4048F6E7F36A5B00F5D53F4882
:107A900006F0B6FB7369A26943F480737361BFF3A8
:107AA0004F8FBFF36F8F736932F8022C23F480730A
:107AB0007361BFF34F8FBFF36F8F4DF602739A421E
:107AC00009D0B36ADBB253B30DF10702012120469E
:107AD000FFF778FE33E021682D4806F091FB23681C
:107AE0009DF80720C2B902AE04F120072068616842
:107AF000324603C20834BC421646F7D1099AB5B3E0
:107B0000C2F3080121B96FEA52226FEA42220992B8
:107B100002A91846FFF7F2FD0AB0BDE8F081B36A8A
:107B200013F47F4F05D00DF107010120FFF70EFF81
:107B300005E0B36AB3F5803F9FD3FFF7BBFE034672
:107B4000CEE70DF107020021C1E70DF1070100208A
:107B5000ECE710488FE7104B1049114817F4F87FF5
:107B6000A6F1100218BF194606F04AFB85E722F479
:107B7000FF7222F00102CAE700ED00E04823030093
:107B8000742303008C230300AE230300BD230300F2
:107B9000DD230300FA2303002F2303001A2303002D
:107BA0001F240300044B5A6942F010025A615A69BB
:107BB00022F008025A61704700ED00E0EFF3088000
:107BC000EFF3098101B57246FFF71CFF01BD00BF4D
:107BD000002080F31488BFF36F8F0F4880F308886C
:107BE00003F0A6FB00200D490860BFF34F8F00F0A3
:107BF0002BF8202080F3118809484FF404614018C5
:107C000080F30988EFF314800221084380F314887D
:107C1000BFF36F8F00F0FAF80029002094ED00E028
:107C2000401B00200749D1F890200023C2F307220F
:107C30001846934200DB7047C1F89830C1F8A000A5
:107C40000133F6E700ED00E008B572B6002383F3D8
:107C50001388FFF7E7FF144B4FF0FF32C3F8802083
:107C6000C3F88420C3F88820C3F88C20C3F8902080
:107C7000C3F89420C3F89820C3F89C20C3F880214F
:107C8000C3F88421C3F88821C3F88C21C3F890215C
:107C9000C3F89421C3F89821C3F89C2162B6BFF3BE
:107CA0004F8FBFF36F8F08BD00E100E0084B9B686A
:107CB00083420BD1EFF3058343B1064B5A6842F080
:107CC00080525A605A6A22F400425A6205F096B80D
:107CD0006C12002000ED00E015498A684FF030007A
:107CE0001044EFF3098C80E8F01F202080F3128805
:107CF000BFF36F8F0F4F4FF000664A698A603E6096
:107D0000D2F880000C4C2060D2F884000023C2F826
:107D1000843080F3118804B5104600F00DF9BDE8F9
:107D2000044002F1300090E8F01F8CF3098870479E
:107D30006C12002004ED00E0D40E00201EF0040FB1
:107D40000CBFEFF30880EFF30980816911F8021C82
:107D50000229FFD001B5724606F027FC01BD00BF25
:107D600040B2002807DB044A4109012300F01F004C
:107D7000834042F82130704700E100E040B2002823
:107D80000CDB4309064900F01F002033012282402A
:107D900041F82320BFF34F8FBFF36F8F704700BFB1
:107DA00000E100E0054B420900F01F0053F82220DB
:107DB000012303FA00F01040704700BF00E100E02B
:107DC00040B20028A8BF00F1604001F10101B8BF36
:107DD000064B4FEA4111ACBF00F5614000F00F00C7
:107DE000C9B2B4BF195480F80013704714ED00E015
:107DF000044B054A23F07F039360BFF34F8FBFF31B
:107E00006F8F70470070020000ED00E008B5FFF7CB
:107E1000EFFF074AD2F8883023F47003C2F88830A5
:107E2000FFF744FCFFF74EFC00F05CF803F0B2FFF4
:107E300000ED00E042F8203C009B42F81C3C0A495F
:107E4000019B42F8183C029B42F8143C21F00101CE
:107E50004FF0807342F8043C42F8081C0023203A9B
:107E60000265C0F884307047D1710200094A0346A8
:107E7000906870B113F1160F006F05D0A0F14002A9
:107E80009A4205D8834203D2814228BF002070471E
:107E9000002070476C12002008B515460C4A0D4BA7
:107EA0009060D0F880201A600E4600F045F82C460D
:107EB00086F309880020044B9847204600210022C1
:107EC0000023024C20470000CFE50200D1710200E0
:107ED0006C120020D40E0020014B10221A61704752
:107EE00000ED00E0044800232021C2180133302BAC
:107EF00082F80013F9D1704700E100E008B5EFF314
:107F00000583064A103B02EBC30152F8330049686F
:107F10008847BDE80840FFF745BC00BFA41A03002E
:107F2000024B034A0348012100F076B80000042008
:107F300000000020241D0300026F054B403A1A6028
:107F4000044A4021C3E901121846012100F06EB82D
:107F5000D80E002000000B15084AC2F898000B68E4
:107F600023F01F03034343F01003C2F89C308B68D7
:107F700043F00103C2F8A030704700BF00ED00E0FD
:107F80002DE9F043DFF8608085B00E461F460446B9
:107F90004FF00009B14523DA6068D8B13FB1411E06
:107FA00008421BD11F2819D92368194216D123680A
:107FB000019306F02FFBA36803430393D8F8905076
:107FC000C5F30725D0B2013DA84207D801A9FFF7A4
:107FD000C3FF421C09F101090C34DBE76FF0150205
:107FE000104605B0BDE8F08300ED00E0044B05222B
:107FF000C3F89420BFF34F8FBFF36F8F704700BF5C
:1080000000ED00E0BFF35F8F024B0022C3F8942025
:10801000704700BF00ED00E010B5034C012322784B
:10802000FFF7AEFF207010BD7814002008B50B4A92
:1080300000231278FFF7A4FF10F1160F07D0084AAB
:108040000021D2F89030C3F30723984200DB08BD2B
:10805000C2F89800C2F8A0100130F2E778140020AE
:1080600000ED00E02DE9F0435B4B5C4CD3F8903021
:108070002568C3F307239D4285B000F2A980FFF76E
:10808000C1FF00200C2685421BD1554C554F257051
:108090006846FFF7C5F9DFF84081DFF84C910646E6
:1080A0000025AE4214D123784B490020D1F890200E
:1080B000C2F307229342C0F28580FFF797FF0020AA
:1080C00045E0616806FB0011FFF746FF0130DAE783
:1080D000009800EB05114FEA051CCB683B40B3F557
:1080E000000F4DD00AD8B3F5001F33D0B3F5800F81
:1080F0003BD0B3F5801F13D00135D2E7B3F1007F39
:1081000047D0B3F1805F4DD0B3F1807FF4D150F808
:108110000C3088684A6806F07DFA40F0887009E003
:1081200050F80C3088684A6806F074FA40F08850BD
:1081300040F43020CDE901230390D8F89030207826
:10814000C3F30723013B984235D96FF0150005B002
:10815000BDE8F08350F80C3088684A6806F05AFA97
:1081600040F0885040F40020E4E750F80C30886874
:108170004A6806F04FFA40F0C06040F40030D9E79A
:1081800050F80C3088684A6806F044FA40F0827073
:10819000D0E750F80C3088684A6806F03BFA40F4A3
:1081A0008020C7E750F80C3088684A6806F032FA39
:1081B00040EA0900BEE701A9FFF7CEFE23780133AC
:1081C000237099E7C1F89830C1F8A00001336DE73A
:1081D0004FF0FF30BBE700BF00ED00E0301D0300B3
:1081E000781400200000F0FF0000021108B5024BD7
:1081F0001B689847002008BDE40E0020034B044A8A
:108200001860937843F0020393707047E40E0020E7
:108210008001002008B50649064821F00701C1F198
:10822000005202F5802205F091FF002008BD00BF3A
:10823000BF3C0020E80E002070B54169857A0C4EE5
:10824000044659B1437ADB0706D4242303FB0563B4
:10825000DB691B689B6898470023636105EBC505D4
:10826000214606EB8500BDE8704009F05EB800BF0E
:1082700040050020024B242202FB0030704700BF63
:10828000400500202DE9F04385B00546684603917E
:1082900090461C4609F02AFADDE90067EFF31189E0
:1082A000202383F31288BFF36F8F6B8A002B41D09A
:1082B0002A8A9A4225D900220023284603F0C6FFC5
:1082C0000446F0B189F31188BFF36F8F039B002B35
:1082D00041D032463B46684609F02DFAA27A264B39
:1082E000242101FB02332046DB691B6803A91D68BA
:1082F000DDE90023A847606170BB2046FFF79CFFC3
:1083000024E0698A4B1E6B8289F31188BFF36F8F5B
:108310002B7D2A8A2C6A1B3323F00303521A02FB9B
:108320000344154B154AEB1A9B105343A3722B7D44
:10833000E372CBE789F31188BFF36F8F2346424680
:10834000284603F083FF04460028BFD100242046BE
:1083500005B0BDE8F0836361012300252381039B01
:108360006382E27A6560294604F1180009F085FA13
:1083700063692582E360EAE740050020398EE3382F
:1083800070B50D4C242500B970BD037A4668002BEA
:10839000FAD0013BDBB20372002BF5D1C36043601E
:1083A000837A05FB03439B6913B198473046EAE79C
:1083B000FFF742FFFAE700BF400500200E4A012305
:1083C000C2F840354FF080424FF08051C2F8783506
:1083D000D1F83001082808D1D1F83411052904D882
:1083E0000648415C09B1C2F838364FF0804301229B
:1083F000C3F880250020704700E0014042240300BC
:1084000048B1054B054A1B68B3FBF2F35843044BD4
:1084100043F00103184770479403002040420F00C7
:10842000F01C030008B50448044A3F23C0E90023B8
:1084300003F05CF8002008BDF40E0020FFFF0F00E1
:108440002DE9F04190F8283003F01F03012B04467A
:108450000F4600F128061BD0022B05D043BB90F835
:10846000291006F0F8FD03E0818DC9B206F0D0FDB9
:108470000546E8B1304606F0BAFA024668688368F5
:10848000A2B99B684BB13A463146BDE8F041184766
:10849000818DC9B206F0A3FDEAE76FF0850309F00C
:1084A00057FA0F4A13500020BDE8F081DB68E9E776
:1084B00094F82910204606F0B9F902460028ECD0BD
:1084C000304606F094FA40B91369002BE5D03A46DD
:1084D0003146204698470346E1E7D368F5E700BFF9
:1084E0000C0000002DE9F04F0446087E30F08008B3
:1084F00093B00D46174640F09B8492B10846FFF7B3
:108500003FFF6B7ED80706D4990740F1AA802B7EE7
:10851000002B40F0A680204613B0BDE8F04F06F0D7
:1085200092BA4B7E9A0705D5802803D12846FFF7DB
:1085300027FF96E09E0704F1280900F062840028D6
:1085400040F03484D9072FD52B8A082B01D0284638
:108550000AE0EA681368A3625368C9F80430294640
:1085600006F076F8054610B1FFF70AFF6FE24846BD
:1085700006F03DFAE28D70B9B2B12946A06907F064
:10858000A2FD0146002800F04384204613B0BDE858
:10859000F04F06F0E7BE3AB11146204606F0DDFE88
:1085A0000546002800F0348409F0D2F994F8282018
:1085B000B94E002312F0600F8351C2F3411307D06C
:1085C000032B40F0B58109F0C3F96FF085033CE05F
:1085D000484606F00CFA94F82930002840F0408113
:1085E000013B0A2BEFD801A151F823F04787020085
:1085F000C7850200C9870200C785020019860200EC
:10860000C7850200C7850200C7850200998602005F
:10861000C7850200FB860200A069618D03697F297E
:10862000D3F88030CFD8A28D002ACCD1E28D002A99
:10863000C9D194F82820D206C5D194F83020022A56
:1086400005D109F085F94FF0FF33335018E01B07CF
:108650000BD5C9B206F02DFA804648B1002D7FF443
:1086600065AF404613B0BDE8F08F012384F8393080
:1086700094F83030012B0DD1638D5BB984F8303024
:1086800009F066F93358002B00F0DE83002D40F02E
:10869000D581DCE10123F1E7204606F026F8628D62
:1086A000FF2A01468FD8E38D002B8CD194F8283017
:1086B000D80688D194F83030002BC2D02AB1D2B27B
:1086C000204606F0B1FB0028BBD0618D94F838300D
:1086D0008B42D5D0C9B2204606F0ADFB80460028BB
:1086E000BCD1628D002A14BF0223012384F83030EC
:1086F0000521204606F0C2FEC2E794F8283003F0B8
:108700001F03012B7FF45FAFE38D002B7FF45BAF82
:10871000628DFF2A3FF657AFA18DFF293FF653AF79
:1087200094F83030022B8CD1D2B2C9B2204606F078
:1087300097FD10F1020F804640F0FF8009F008F924
:1087400046F800809CE7E38DA18D002B7FF43BAFC2
:1087500094F83030002B3FF474AF012B0FD1002977
:108760007FF46FAF12F01F020CD1638D012B87D104
:1087700094F86C306FF3C30384F86C3080E712F028
:108780001F0217D0022A7FF47BAFB4F82AA0BAF1F7
:10879000000F7FF475AF5FFA81F84146204606F07E
:1087A00053FE034609F0D4F83350013306D14FF09D
:1087B000FF3853E700297FF444AFD6E752464146DD
:1087C000204606F01AF95BE7E38DA18D002B7FF4BC
:1087D000FAAE638D022B5FFA81F813D194F828303A
:1087E00003F01F0358EA03037FF4EDAEA0690122F2
:1087F000090A06F03BF900287FF4E5AE012384F86E
:1088000039303DE794F8300000283FF41AAF0128D2
:108810000DD100297FF415AF12F01F020AD1012BF0
:108820007FF42EAF94F86C3043F00803A4E712F005
:108830001F0211D0022A7FF423AF002B7FF420AF58
:108840004146204606F0EBFD034609F081F833501F
:108850000133ACD00122B2E700297FF4F2AEDEE7AB
:108860000A2B3FF6B0AE01A151F823F09D8802001B
:10887000C7850200C7850200C7850200C7850200C0
:10888000C78502001D890200C7850200038D020012
:10889000C7850200318D02000C000000E38DA18D20
:1088A000022B7FF490AE94F83030002B3FF4C9AE29
:1088B000012B10D100297FF4C4AE12F01F020DD19C
:1088C00094F86C304FEA930808F00208C3F30013E1
:1088D00048EA030806E012F01F0210D0022A12D064
:1088E0004FF0000805F10C0A504605F0EDFEE38D4F
:1088F00098420ED209F02CF86FF00B03A5E6002980
:108900007FF49FAEDCE7C9B2204606F0ACFD80469E
:10891000E8E74146504605F0BEFEB1E694F828204F
:10892000B4F82A80D1064FEA18235FFA88F809D0F4
:1089300029462046FFF784FD8046B8F1000F7FF4FA
:108940008DAE9DE6013B0E2B3FF63DAE01A252F8E7
:1089500023F000BF91890200DB890200C38A020074
:10896000C7850200C7850200BB8A0200BB8A0200DD
:10897000C7850200C7850200C7850200C7850200BF
:10898000C7850200C7850200C78502000D8C020062
:1089900005F10C0A5046B4F82E8005F095FE80458E
:1089A0000AD2B4F82E80204605F09FFE48B1012877
:1089B0007FF409AE616F05E0504605F085FE804604
:1089C000F1E7216F002900F0D0810A78424528BFE5
:1089D0004246504605F04EFE52E6204605F085FE22
:1089E00008F1010201900146D2B2204606F0F6F9E4
:1089F000824600283FF4E7AD05F10C08D0F804B03A
:108A0000404605F061FE9BF80020904203D24046AC
:108A100005F05AFE02465946404605F02BFEDAF8AC
:108A20000CA0BAF1000F1CD1298AE38D99423FD8DE
:108A300008F08EFF3358002B00F006822846FFF71F
:108A40009FFC08F085FF3358002B00F0FD8148465D
:108A500005F0CDFF0346A069002B00F0DC818021EA
:108A6000E2E1DAF8040083681B6B13B9DAF800A0BE
:108A7000D7E7019998470028F8D0A0F1040B5BF8DC
:108A8000043F002BF2D01B78002BEFD0404605F0BE
:108A90001BFEDBF800301A78904203D2404605F006
:108AA00013FE82B2DBF80010404605F0E3FDE6E776
:108AB000C91A404605F0F9FDBAE7204605F015FE53
:108AC00081E542460321204605F0EFFE824600285C
:108AD0003FF479AD05F086FFB4F82EB0E0B9BAF8EE
:108AE0001430ADF82830DAF8103005F10C081B8886
:108AF000ADF82A30404605F0E7FD834508D2E08D09
:108B00009DF82820824228BF02460AA9404661E714
:108B1000404605F0D9FDF3E79AF81530DAF8082059
:108B20008DF81530C44B1340C44A4FF000089342EF
:108B30008DF8148058D1102106A807F0BAFC031E46
:108B4000FFF641AD0AA9102BDFF8F4E206A88C4627
:108B500028BF1023434501F1020134D89B000233A2
:108B60008DF81430CDF804C005F10C0A504605F01C
:108B7000ABFD9DF81480D84528BFD846404503D2A8
:108B8000504605F0A1FD8046B8F1020FC34628BF4C
:108B90004FF0020B5A4605A9504605F06BFDA8EBB5
:108BA0000B08DDF804B04FEA58030BEB58025A45A6
:108BB00022D118F0010F3FF463AD019AD15C504609
:108BC00005F061FD5CE510F8012B4FEA121A02F086
:108BD0000F021EF80AA01EF8022001F802AC01F8EC
:108BE000012C08F10108B5E79AF814308DF814301B
:108BF000DAF810300193B7E71BF8011B5046CDE9B6
:108C0000022305F048FDDDE90223D0E7204605F008
:108C10006CFD20B101287FF4D6AC636F00E0236FB8
:108C2000002B00F0A2805B88B3F5007F7FF6CBAC11
:108C3000844B0A9300238DF82C30E36C04F14C082C
:108C400098455BD105F10C0B584605F03DFDBDF88C
:108C50002AA0E38D9A4528BF9A46504503D258462C
:108C600005F032FD82469DF82820524528BF524625
:108C70000AA9584605F0FEFCBAF1050F94BFAAEB0D
:108C80000A0AAAF1050ABAF1000F3FF4F9ACE36C45
:108C900043453FF4F5AC002B3FF4F2AC5A7D0F2A6C
:108CA00014D11A7D19690193524528BF524658467E
:108CB00005F0E0FC019B1A7D524594BFAAEB020A25
:108CC000AAEB0A0ABAF1000F3FF4DAAC226D9A421D
:108CD0003FF4D6AC1B68DEE75A7D0F2A0AD11A7D15
:108CE000BDF82A100A44ADF82A209DF82C20013244
:108CF0008DF82C20226D9A42A4D01B68002BEBD15A
:108D0000A0E794F8303094F838A0002B3FF499ACE9
:108D1000E38D012B7FF457AC05F10C08404605F0BC
:108D2000D3FCE38D9842FFF4E5AD5146404647E75A
:108D300094F8283003F01F03012B7FF482AC204607
:108D400006F060F800283FF47CACA38D4268FF2B4E
:108D50003FF639AC12799A42FFF435AC0F2B3FF64F
:108D600032AC234493F83AA0D2E76FF0150875E4CB
:108D70002946204606F0F6FA00287FF4E8ABA06901
:108D80000369D3F8801011F004017FF4C4AB07F03D
:108D9000AEF9054600283FF45AAE0146204606F0DB
:108DA000E1FA00283FF4B7ABFFF7D1BB5A077FF5D4
:108DB0004EAE80287FF44BAE2846FFF7E1FA94F8D8
:108DC0003930002B3FF44DAC94F82930052B05D1F8
:108DD000618DA069C9B205F06CFE074694F8293090
:108DE000032B09D1638D022B06D1A18DA06900222E
:108DF000090A05F03BFE0746002384F83930B846DF
:108E00002FE45B077FF523AE0028D2D1FFF78EBB9E
:108E10006FF00B071BE6E38D002B3FF420AE17F13C
:108E20000C0118BF0121C90107F066F8FFF773BBF9
:108E30006FF0040815E400BF00FF02000003020009
:108E400048240300050F0500E38D3BB1484605F0BB
:108E5000CEFD00288CD12846FFF792FA204605F077
:108E6000DCFD00287FF4F3ADFFF755BB0B78062B34
:108E700010B414D10369D3F89C20EFF3118420239C
:108E800083F31288BFF36F8F4B6800201860506A1D
:108E900058B9C2E9083384F31188BFF36F8F0448CF
:108EA00010BC0022002308F096B903605362F2E779
:108EB000F40400202DE9F043614F85B020264FF0E7
:108EC000FF334FF0FF3201A9384603F093F8039BBC
:108ED0001B69D3F89C40236A5BB1EFF3118386F3DF
:108EE0001288BFF36F8F216AE1B983F31188BFF352
:108EF0006F8F9DF80430062BE1D0072BDFD801A23D
:108F000052F823F06B8F02005F8F02008B8F0200FC
:108F1000718F0200AF8F0200A58F0200BF8E02008A
:108F20003B900200606A0A682262814208BF626266
:108F300083F31188BFF36F8F0B7ED1F81E205D067F
:108F4000204609D1FFF7CEFA02460028C3D00721F8
:108F5000204606F093FABEE706F051F8F4E7002247
:108F60000121204606F08AFAA9E700221146F8E717
:108F700094F86C3043F0040301A984F86C30204667
:108F800005F0BFFD00220321EBE794F86C306FF38E
:108F9000820301A984F86C30204605F0B2FD00225E
:108FA0000221DEE701A9204605F0ABFD87E794F832
:108FB0006C30D4F818806FF3820384F86C30D8F8E2
:108FC0001030D8F80890BFF35B8FD3F8A030BFF310
:108FD0005B8F9A0727D5D9F83C3040469847D9F897
:108FE0002430002140469847D9F840300546404695
:108FF0009847D5B92946204605F01DFF0546A0B97A
:10900000A06907F093F8831E5842584194F86C30D9
:1090100084F8305023F0680343EA401384F86C303E
:109020002A4604219DE74FF0FF3500220421204607
:1090300006F024FA2A46072193E7029A062190E7D0
:10904000F404002030B589B000220023CDE90623C6
:1090500000246FF00703CDE90334CDE901441A4B36
:109060001A4900944FF48062194803F00FFC194923
:10907000174808F0F2F9184B18498B4207D3184BE0
:10908000184900208B4210D3002009B030BD03F1F5
:109090001402BFF35B8F52E8000F42E80045002D39
:1090A000F9D1BFF35B8F1833E7E703F11402BFF385
:1090B0005B8F52E8004F42E80005002DF9D1BFF365
:1090C0005B8F1833DEE700BFB58E0200C0140020AE
:1090D000F805002059240300E0050020F8050020D1
:1090E000F8050020F805002038B502460949054674
:1090F000806907F081F8044648B985F838002846A9
:1091000005F070FD044610B1A86907F0A8F82046E4
:1091100038BD00BF6D8E020070B5084C084E054684
:10912000B44202D30024204670BD63682846196803
:10913000FDF7E6FF0028F6D01834F1E7E00500203F
:10914000F805002070B50646EFF31181202282F366
:109150001288BFF36F8F1D4C236881F31188BFF312
:109160006F8F5B6893F86C30DB0705D4BDE8704007
:109170002122002303F0D6BAEFF3118382F3128881
:10918000BFF36F8F256865B983F31188BFF36F8FC5
:109190002368D3B130460022BDE87040002303F0BD
:1091A0008DBA61682A6822608D4208BF626083F3CD
:1091B0001188BFF36F8F686805F10801C36998478C
:1091C0000348294607F0B7FFE2E770BDFC0E002018
:1091D0007404002030B585B06C4684E8060005466E
:1091E00000221548002303A902F06CFE0246E8B9EC
:1091F000039B94E803005D60083383E80300EFF30A
:109200001180202383F31288BFF36F8F039B1A60B2
:109210000A4A516861B9C2E9003380F31188BFF38B
:109220006F8F07480022002303F048FA05B030BDD5
:109230000B605360F1E700BF74040020FC0E0020B7
:109240000000002038B54B78046945682069202B60
:1092500008D0222B19D008F07BFB114B6FF0850250
:109260001A5010E0CB88072BF5D1D3681A684260FA
:109270009A8802819B79837206F021F9224608219F
:10928000284606F009F9002038BD4B888381C3F3D6
:10929000400203F001030276437622460921EFE7FC
:1092A0000C00000008B51346026910694A78212AAB
:1092B00013D133B908F04CFB0B4B6FF00B021A5073
:1092C00009E0CA88072A00F1040128BF072203F138
:1092D0000C0005F0CFF9002008BD08F039FB024B67
:1092E0006FF08502EBE700BF0C00000073B5046966
:1092F0008DF807102025EFF3118685F31288BFF350
:109300006F8F0122E06B0DF1070105F006F986F37E
:109310001188BFF36F8F012812D008F098F808B9B0
:10932000A37EABB90D4BBFF35B8F012253E8001F47
:10933000002903D143E800200028F7D1BFF35B8F59
:109340002122002304F1480003F0B8F902B070BDF7
:109350000021212008F021F9CDE700BF040F0020F3
:1093600038B505690E49EB6B0024C3E90144DC60A4
:109370006B6B05F14800C3E90144DC6008F04EF86E
:1093800005F17800074908F01DF8074905F12400A8
:1093900008F018F8284606F092F8204638BD00BFBD
:1093A00093F602003BF80200C7F80200F8B58768A0
:1093B0001446FB6B05460E46984721460648002298
:1093C0000023FEF75FFF044600B1067628463B6C9B
:1093D00098472046F8BD00BF400500204FF080535D
:1093E000D3F83021082A06D1D3F83431052B04D81C
:1093F000034AD05C7047002070470120704700BFCF
:109400007A24030010F0080F0B4B42B20CD100F08D
:109410000F00002A4FF0140202FB0033B4BFD3F850
:109420000806D3F808077047002AB4BFD3F8A80687
:10943000D3F8A807704700BF00700240F8B5024695
:10944000EFF31185202383F31288BFF36F8F00F0B1
:10945000080706F02FFF0126864012F07F0F1E4BF3
:109460006FEA060432D057B11A6822401A601B4BCB
:10947000C3F86C6485F31188BFF36F8FF8BD184F84
:10948000396821FA00F0C0070AD419682140196030
:1094900014490B68120654BF234033430B60E6E7C0
:1094A0002140396051B2C94322F08000C90F00F257
:1094B000DA30090101EB40010848C0F80018D0F883
:1094C000041841F00201C0F80418DEE719682140D1
:1094D0001960002FCBD1DBE7640F00200070024041
:1094E000600F0020680F0020EFF31180202383F32A
:1094F0001288BFF36F8F0A4BD3F8001C032261B9A7
:1095000049F27531C3F8001CC3F8142DC3F8001CD0
:1095100080F31188BFF36F8F7047C3F8142DF7E7FE
:1095200000E00640EFF31180202383F31288BFF39D
:109530006F8F0A4BD3F8001C61B949F27532C3F83A
:10954000002CC3F8141DC3F8002C80F31188BFF35E
:109550006F8F70470022C3F8142DF6E700E0064035
:1095600070B5024606F0A6FEEFF31185202383F3C3
:109570001288BFF36F8F531E0124062B04FA00F4E8
:109580000FD80E4E0E4B31681B680B43C34013F0CF
:10959000010306D10B4802F59472214340F82230B2
:1095A0003160094A136823431360084B8022C3F8D3
:1095B000042185F31188BFF36F8F70BD600F002009
:1095C000680F002000700240640F002000E100E0FE
:1095D000F8B50306044623D410F0080720D100F0A4
:1095E0000F02920002F1804202F51C32D2F844349C
:1095F000B3B1EFF31186202383F31288BFF36F8F8B
:1096000006F058FE084DC2F8A074012303FA00F1D9
:109610002B6823EA01032B6086F31188BFF36F8F59
:10962000024BC3F81845F8BD680F002000700240D7
:1096300008B50B7E012203F00F0013F0800F02FA31
:1096400000F2124B12D0D3F81005104218D00B7E46
:109650001A0709D40D4AC2F80C3543F48073C2F8D6
:109660000C35087EFFF7B4FF002008BDD3F81405C1
:109670001042ECD1D3F814050243C3F81425E6E7F1
:10968000D3F810050243C3F81025E0E7007002404C
:109690000B7E064A13F07F0F0BBF012343F4807348
:1096A0005365C2F818350020704700BF00700240B3
:1096B00070B506460D4606F07EFA044606F084FABA
:1096C00028BB204606F0A3FA08B3802D16D1437EAE
:1096D0009A0744BF0E4A15705B070FD50D4B1B78D8
:1096E00013B90D4B01221A65204606F08CFA0022B0
:1096F00001463046BDE8704006F0A2BA2846FFF7A2
:109700002FFF20460121BDE8704006F061BA70BD10
:109710007B1400207F1400200070024070B50646C4
:109720000C4606F048FA054606F04EFA20BB2846DD
:1097300006F06DFA0146F8B1ACB9437ED8071BD4E8
:109740009A0704D50D4B1C700D4B0122DA644B7E39
:109750005B0708D50B4B1B7873B130460022BDE880
:10976000704006F06DBA2046FFF7FAFE2846012148
:10977000BDE8704006F02CBA70BD00BF7B1400201D
:10978000007002408014002038B545682C4654F81B
:10979000040B01F027F8094B002218600121272053
:1097A000FEF70EFB204602F091F905F1080002F0E9
:1097B000CFF907F0EBFB002038BD00BF180F0020E9
:1097C000012810B5014602D0022807D098B90A4BEB
:1097D000BDE810401868002206F026BA074B084C76
:1097E00000221A70074BC4F800332720FEF7B8FA9E
:1097F0000123C4F8043510BD6C0F00207C14002038
:1098000000700240FDFFDF010146014808F015B875
:109810002C05002008B5054B1970054B1B7813B1BA
:109820000420FFF7F1FF002008BD00BF7D140020D9
:109830007E14002010B50469087E0D4A06F03AFD3A
:10984000012303FA00F013680343136003F0DCF90B
:109850004020FFF7D9FF4FF0FF324FF0FF3304F104
:109860008401044802F09EFF03F0E2F9002010BDDD
:109870005C0F0020380500202DE9F04F494B0769A7
:10988000186089B0054607F1840007F0B3FC002298
:109890000023CDE9062300246FF00703CDE903344C
:1098A000CDE90144404B414900954FF400724048D6
:1098B00002F0ECFF3F4E40493D48DFF80091DFF8F1
:1098C00000A107F0CAFD32693E4B134043F4820306
:1098D00043F040033361B04634763146284606F003
:1098E0007CF900285AD10134092C18D008EB441215
:1098F000082C937C43F04003937408D1D8F81031BE
:10990000314A1A40314B1343C8F8103105E013694E
:1099100009EA030343EA0A0313612036DCE72C4C0F
:109920002C4B2269DFF8A090DFF8A0A0DFF88CB004
:10993000134043F4041343F0400323610646A0465A
:1099400066F07F0323762146284606F046F928BBB9
:109950000136092E1AD008EB4612082E937C43F0EC
:109960002003937408D1D8F8103109EA030343EABD
:109970000A03C8F8103107E013690BEA030343F444
:10998000C02343F0400313612034D9E797F88030B7
:1099900023F0720343F0720387F8803009B0BDE80A
:1099A000F08F00BF6C0F0020819A02000019002088
:1099B0008806002090100020712403000000F9FFA9
:1099C000400006000000BEFF0000F7FFFF01080096
:1099D000700F00200000DEFF10B50C462046114637
:1099E00006F017F9207E06F065FC0146034806F0F4
:1099F00070FC0120FFF708FF002010BDB41100200B
:109A000008B5064A0B7EC2F80C3543F48073C2F8E1
:109A10000C35087EFFF7DCFD002008BD0070024019
:109A200010B50C7E4FF0FF324FF0FF33114802F0BB
:109A300073FC2046FFF702FD04F00F020123934060
:109A40000D4A14F0800F14BFD2F81015D2F8141577
:109A50006FEA030315BF0B400B40C2F81035C2F884
:109A60001435044802F024FC044B8022C3F804217E
:109A7000002010BD1C0500200070024000E100E045
:109A80002DE9F04FDFF8C0A2B04D87B004464FF08B
:109A9000FF384FF0FF390022CDE900894FF0FF3148
:109AA000504607F0D1FE4FF0FF31504607F0C8FE98
:109AB000074638072ED5A64842464B4602F02CFCF6
:109AC000EFF31182202383F31288BFF36F8FA14B32
:109AD0001B787BB1D5F8003413F400730AD101214F
:109AE000C5F82C15D5F82C15D5F80014890548BFF4
:109AF000C5F82C3582F31188BFF36F8F944802F0BC
:109B0000D7FB0121204606F036F80022032120462B
:109B100006F08AF8FB0608D50021204606F02BF84F
:109B200000220221204606F07FF8BE0608D500215B
:109B3000204606F020F800220221204606F074F8A4
:109B4000B8074FD4F90710D5BFF35B8F824B0022C3
:109B500053E8006F43E800210029F9D1BFF35B8F80
:109B60004FF00108002E40F0A3807A0740F1D48026
:109B70007A4B00261E70D5F88004C0B28DF8100014
:109B8000D5F88414C9B28DF81110D5F88834D5F8F9
:109B90008C2443EA02239BB2ADF81230D5F890240E
:109BA000D5F894C442EA0C22ADF81420D5F89824D4
:109BB000D5F89CC442EA0C2292B2DFF8A4C1ADF8F9
:109BC000162010B9052900F08A80664A8CF80060DA
:109BD000D5F8703412789A4240F08C80624B0022A3
:109BE0001A7095E0614BBFF35B8F002253E8008F42
:109BF00043E800210029F9D1BFF35B8F4FF0010B3F
:109C0000B8F1000F9ED098FAA8F9B9FA89F90BFAC1
:109C100009F3B9F10F0F28EA03080FDDA9F11006C7
:109C2000F6B23146204605F0C6FF814605F0EBFF4F
:109C300090BB31462046FFF771FDE1E749F0800611
:109C40003146204605F0B7FF029005F0DCFF039097
:109C5000E8B10298002105F0BBFF039B00221946E2
:109C6000204605F0EDFFB9F1000F10D13B4B4946FE
:109C700083F800B02046C5F850B005F09CFF05F011
:109C8000C2FF014618B14A46204605F0D9FF3146C9
:109C90002046FFF70DFDB3E702900021484605F08E
:109CA00097FF029B00221946204605F0C9FFC0E736
:109CB00096FAA6F3B3FA83F308FA03F20F2B26EA17
:109CC000020606DDA3F11001C9B22046FFF726FD0A
:109CD00048E743F080012046FFF7EAFC42E7012114
:109CE0008CF80010C2B903F07F03ADF81230ADF864
:109CF000142073E71C4A012313708CF800304FF4D2
:109D0000A063ADF81030D5F87034ADF81230059678
:109D100004A9204605F0BBFF7B067FF5B8AE20699D
:109D200084304FF0FF324FF0FF3302F0C7F9104E8E
:109D3000074F316801BB0F4802F0FAFC20698430FC
:109D400002F034FAA3E600BF2C05002000700240A8
:109D50001C0500207C140020B41100208014002079
:109D60007F1400207D1400207E140020B0110020FC
:109D70005C0F00203805002091FAA1F8B8FA88F8A5
:109D8000B8F10F0F4146C6BFA8F11001C9B241F0AA
:109D90008001204605F00FFF814690F818B04FF083
:109DA000FF324FF0FF33384602F0B6FA5846FFF75D
:109DB00045FB384602F07CFA0F4B8022C3F80421A1
:109DC0004946204605F054FF0021484605F000FFB3
:109DD000BFF35B8F012303FA08F3084ADB4352E821
:109DE000000F184042E800010029F8D1BFF35B8F53
:109DF0003268134033609CE700E100E0B0110020BE
:109E00004FF08053D3F83031082B02BF024B0022B1
:109E1000C3F81C2C704700BF007002402DE9F041D0
:109E200005464FF0FF324FF0FF33384802F074FA26
:109E3000374B8022C3F884212720FDF7B3FFA0B160
:109E4000344F354B3C681B68240C24041C434FF0F2
:109E500001088CBB314E40F2FF133B602720C6F84F
:109E60000445FDF78BFFC6F800432D4A13788BB1EC
:109E70002A4B0021C3F808110121C3F80026C3F8BA
:109E800004165960D3F808110029FBD00021C3F84B
:109E900008111170214B0024C3F80045FFF7B0FFF3
:109EA0001A4802F005FA2146284605F0EAFFC0B13B
:109EB0006FF00400BDE8F08194FAA4F6B6FA86F6D5
:109EC0000F2E3346C6BFA6F11003D8B243F0800070
:109ED000030701D4FFF7B2FA08FA06F624EA0604EB
:109EE000B7E78021284605F0CCFF0028E0D10D4BD4
:109EF0000D491C68204604F088FA10F1780F02D151
:109F0000204604F05EFA00EAE070D3E71C0500206A
:109F100000E100E0680F0020640F002000700240A4
:109F200079140020180F0020080F00202DE9F04FB1
:109F3000464BDFF81CA1D3F85421464F85B00AB335
:109F40000022C3F85421D3F8042391021AD5D3F880
:109F5000C034002B14BF4FF001224FF480723E4BEF
:109F60009B683BB99AF8000006F0A4F901238340EE
:109F700022EA03023B681343384A3B60136823F02C
:109F800001231360314BD3F8604134B10022C3F890
:109F90006021D3F86C44C3F86C44D3F828214AB14B
:109FA0000022C3F828212E4B187806F083F90123EC
:109FB00083401C439AF800509AF900102A0732D4C3
:109FC0000029B4BF274B284B05F00F029200134421
:109FD0001A68002A60D000221A602846FFF712FA99
:109FE000224B1A7800F0010050401870FFF708FF6C
:109FF0001F4B28461A6806F05DF9C240D307064693
:10A000003ED4002916DA882D06D10146194806F0FB
:10A0100060F90220FFF7F8FB104A01231168B340F2
:10A020000B43136032E0144B144A13EA210338BF88
:10A030001346CDE701460F4806F04BF90220FFF723
:10A04000E3FB013D062DE7D920E000BF0070024090
:10A050007A140020680F00201C050020600F0020EB
:10A060007B140020087102403071024079140020F6
:10A07000640F0020B01100202C710240507102408A
:10A08000002D40F0F3809E4B0122DA6481238AF890
:10A0900000309C4802F00CF994B13B689A4ADFF812
:10A0A0006C82DFF86C9224F001210B433B60136853
:10A0B00023EA01031360A4B20126002C40F0DA80E9
:10A0C0008F4BD3F800214AB10022C3F80021914BF5
:10A0D0001A708E4B0421186805F0A6FD884BD3F842
:10A0E00058212AB30022C3F85821D3F80044C3F8FA
:10A0F0000044E00505D5874B012208201A70FFF7C0
:10A1000083FBA10505D5834B002210201A70FFF7B1
:10A110007BFB62050CD57F4B1A784AB100221A707E
:10A12000774B0122C3F8082520209A65FFF76CFBC6
:10A13000734B794CD3F85C31E3B1724B9B681BB91C
:10A140009AF800305B0615D06D4B0022C3F85C21F5
:10A1500023686D4A23F0011323603B6823F48033A6
:10A1600043F001033B601368042023F001131360E4
:10A17000FFF74AFB24683B681C4074D0604BD3F85F
:10A180002C35002B6FD15F480022002302F0C4F869
:10A19000002868D114F0012314BF93FAA3F494FAB1
:10A1A000A4F4B4FA84F40F2C88BFA4F11008574B20
:10A1B0008CBF5FFA88F844F080081868414605F0C3
:10A1C000FAFC009005F023FD4FFA88FB08F0080226
:10A1D000BBF1000F0346019208F00F0980F2A08046
:10A1E000009B058A5B8BC668C3F30A039D4206F099
:10A1F000604271D9B2F1005F1D4605D03146474833
:10A20000464E1A4607F02BFB4FF080530121D3F83E
:10A210003031082B02BF3A4B8222C3F81C2C3B681A
:10A22000019A8AF8008001FA04F423EA04033B60EF
:10A23000334B002A40F0AC80BBF1000F4FF014020A
:10A2400002FB0932A9BF09F10A0903EB8903C2F82D
:10A250000067C2F80457AFBF43F82910C2F8006680
:10A26000C2F80456596005B0BDE8F08F0029BFF66A
:10A27000E8AED1E694FAA4F5B5FA85F506FA05F349
:10A2800045F080052946D8F8000024EA030405F0CB
:10A2900092FC05F0BCFC83462846FFF7B3F8014664
:10A2A0000BF10C0004F008FABBF81030002B7FF41F
:10A2B00004AF584605F0AFFC18B1584605F0AFFCA6
:10A2C000FBE6284605F0F6FF0146484606F001F891
:10A2D0000220FFF799FAF0E6009205F09CFC009A44
:10A2E000B2F1005F034607D0009031460B480B4E99
:10A2F0002A4607F0B4FA009B002B3CD084E700BF4D
:10A30000007002401C050020600F00206C0F002030
:10A31000B01100207C140020640F00201C0F0020CE
:10A3200008F00801224A71B3D2F8C02412F4803F29
:10A3300018BF0022198A53F80C6F039218460E4476
:10A34000029304F0C1F9039A029B904228BF104681
:10A3500001460546184604F087F9009B039A598B7D
:10A36000029BC1F30A01914205D1184604F0ACF9F1
:10A3700000287FF449AF0F4901220B68A24023EA6D
:10A3800002030B6040E709F5947152F82120D1E7F0
:10A39000BBF1000FB5BFC3F8A066C3F8A067C3F850
:10A3A000A456C3F8A457B4BF596299645BE700BFD1
:10A3B00000700240640F0020EFF31183202282F32B
:10A3C0001288BFF36F8F174A12781AB3164AD2F861
:10A3D0002C15F9B10021C2F82C154FF08052D2F89B
:10A3E0003021082A05D083F31188BFF36F8F002036
:10A3F00070470E4AD2F8000CC02140B949F27530BE
:10A40000C2F8000CC2F8141CC2F8000CEBE7C2F84A
:10A41000141CE8E783F31188BFF36F8F6FF00A0015
:10A42000704700BF7C1400200070024000E006402E
:10A4300013B50022009211464023044605F0C6FCE5
:10A44000024618B16FF0040002B010BD0090402326
:10A450008021204605F0BAFC0028F3D1534901239E
:10A460008B60534B4860C860186803F053FF0028A6
:10A47000EADBEFF31184202383F31288BFF36F8F9D
:10A480004C4B4FF40062C3F80024FEF7A7FF08B15D
:10A49000FFF72AF84FF08053D3F83031082B18D14A
:10A4A000EFF31180202383F31288BFF36F8F424BA9
:10A4B000D3F8001CC022002971D149F27531C3F8CC
:10A4C000001CC3F8142CC3F8001C80F31188BFF3E0
:10A4D0006F8F384B0122C3F80025D3F800241205F2
:10A4E000FBD54FF40062C3F800244FF08053D3F83B
:10A4F0003031082B17D1EFF31180202383F312881A
:10A50000BFF36F8F2C4BD3F8001C00294AD149F2BE
:10A510007532C3F8002CC3F8141CC3F8002C80F368
:10A520001188BFF36F8FFEF759FF30B1FEF7FAFFC6
:10A53000FEF754FF08B1FEF7D7FF4FF08053D3F872
:10A540003031082B1B4B0AD140F2E372C3F80028CC
:10A550004022C3F80428BFF36F8FBFF34F8F8022D0
:10A56000C3F81C250122C3F83025144B40F2FF121A
:10A570001A60134B00211960124B1960124B1970AD
:10A58000FFF73EFC114B1970FEF728FF08B1FEF7EC
:10A59000C9FF84F31188BFF36F8F002054E7C3F81D
:10A5A000142C92E70022C3F8142CB8E7080F0020FF
:10A5B000180F00200070024000E00640680F0020E5
:10A5C000640F0020600F0020791400207B1400200D
:10A5D000084B70B5C31A0D4607499B1004465943F2
:10A5E0000648402205F09DFE2B4601462046BDE868
:10A5F00070401847CC110020B76DDBB6FC19030082
:10A6000073B50C4C0C4A4023041B00930D460B46BB
:10A610000A49A41061430646094805F0AEFE011E32
:10A6200005DA30462B4602B0BDE87040184702B04C
:10A6300070BD00BFCC110020E5030300B76DDBB691
:10A64000FC1903000022F8B5012105461046FDF76C
:10A65000B7FB104800F072FF0446B8B900F08EFF57
:10A660002F690D49384603F042FE031E09DB01261F
:10A670003E642D69084905F11C0003F038FE031EF5
:10A6800002DA1C462046F8BDEE64FBE76FF00404D6
:10A69000F8E700BFC9A70200D41D03001FB50022C0
:10A6A0000123CDE90223094ACDF800D06B46CDF84D
:10A6B00004D005F090FE002805DB4FF48042002313
:10A6C000684601F029FE05B05DF804FBF7030300BE
:10A6D00010B5EFF31184202383F31288BFF36F8F3B
:10A6E000074A136823F00201DB07116002D401203E
:10A6F00006F048F984F31188BFF36F8F10BD00BFD7
:10A700001C12002030B4104B0C2202FB0033014617
:10A710000020D3E90E529863EFF31180202484F3D4
:10A720001288BFF36F8F1C6C04F0C00444F0020465
:10A730001C6480F31188BFF36F8F1DB12B46034853
:10A7400030BC184730BC7047CC110020FC19030006
:10A7500010B4EFF31182202383F31288BFF36F8FBD
:10A760001748016841F002040460C80707D482F367
:10A770001188BFF36F8F012010BC06F0FBB84FF0BB
:10A780008041D1F80C04D1F80C14C907EFD5EFF3D0
:10A79000118083F31288BFF36F8F0A490B6C03F0AB
:10A7A000C00343F002030B6480F31188BFF36F8F83
:10A7B00082F31188BFF36F8F002010BCFFF7A2BF98
:10A7C0001C120020CC11002010B1012804D07047C9
:10A7D000034B1B6C5B0701D1FFF794BF704700BFB1
:10A7E000CC110020024AC3B21C2003FB002070479A
:10A7F000CC1100202DE9F0413849BFF35B8F0746AB
:10A80000012251E8003F41E800200028F9D1BFF3C0
:10A810005B8F33B9324933484B60CB608A6003F0B9
:10A8200079FD7B1E012B2BD8012F07D14FF08043E0
:10A83000D3F81C3403F00303012B21D006F007FEEC
:10A840000546F8B9284B1B78E3B14FF0804302224C
:10A85000C3F808230646DFF894804FF08044D4F80C
:10A860001824D4F81834D20315D503F00303012BB0
:10A8700001D0012F0FD155B386F31188BFF36F8F2D
:10A88000BDE8F081EFF31186202383F31288BFF334
:10A890006F8F0125DFE7ADB1304603F0ACFED4F891
:10A8A0001835002BDBD1D4F80421002AD7D0C4F806
:10A8B0000431D4F804310123C4F81835C8F88031C4
:10A8C000A360CCE70021212006F067FEE7E74FF008
:10A8D00080430222C3F80423D2E700BFC81100203E
:10A8E000B8110020E8110020A514002000E100E0CC
:10A8F00008B5074806F07BFB38B10648FDF77EFC3B
:10A900000448FCF747FC002008BD6FF01200FBE78D
:10A91000501A030019A902000A2838B5074D044649
:10A9200004D1AB680D215B6828469847AB680348A3
:10A930005B68E1B29847204638BD00BF501A03005B
:10A94000F0B544681646A068227C01F01F0587B068
:10A9500045EA421500286DD0B6F5001F04D12946FE
:10A9600006F006FB002056E06268607CC2F8240511
:10A9700001AA0020B6F5800F0190506037D1B3F1E5
:10A98000007F14BF052304238DF804300023CDE994
:10A9900004230393E36823FA01F111F001010DF19F
:10A9A00003073AD1B6F1A07F37D105F01F036A093A
:10A9B00003F5E07326D0012A3FD1214A52F8233013
:10A9C000DB072AD4A0683A46294606F047FA163033
:10A9D0001BD00297A06803AA294606F00BF90028AD
:10A9E00019DBA0680122294606F06FFABAE7B3F135
:10A9F000C06F05D0B3F1007F14BF01230223C3E76A
:10AA00000323C1E74FF0A042D8E7A068394600F021
:10AA100069FF0028DDDA07B0F0BDA0683A46294694
:10AA200006F01CFA0028D5D19DF80310A06800F0AC
:10AA300053FFCFE76FF08500EDE751F82330FFDEDD
:10AA400000030050420970B5034602D0012A17D016
:10AA500070BD0D4E326951680029F9D003F01F0313
:10AA600001250C689D400029F2D08A682A4002D056
:10AA70004B68304698472CB1236821461C46F2E7C4
:10AA8000024EE7E72346F8E7341A0300181A0300DA
:10AA900038B54568A86890B106F00FFA014670B95C
:10AAA000A86806F0EEF9044658B902460649A868B7
:10AAB00006F0D1F9224605210620FDF781F9002094
:10AAC00038BD6FF00400FBE745AA02002DE9F04312
:10AAD000476840F20636D0063B7C87B002EA06069D
:10AAE00054BFC2F3401C4FF0030C01F01F05B6F534
:10AAF000837F144645EA43158DF803C045D00DD831
:10AB0000062E16D005D8A6B1022E40D06FF0150043
:10AB100038E0B6F5807FF9D101260AE040F2022242
:10AB2000964236D0B6F5407F35D0B6F5007FEDD1F0
:10AB300002260123220303FA01F12ED57B68C3F814
:10AB40000815B86890BB05F01F036D092BD0012DC7
:10AB500075D13D4A02EB830284F48033D2F80017AA
:10AB6000C3F30043C4F3404444EA430421F4E161E5
:10AB700044EA8C0421F0070144EA06230B43C2F89F
:10AB80000037002007B0BDE8F0830726D1E7042690
:10AB9000CFE70526CDE70326CBE7630344BF7B68F9
:10ABA000C3F80C15CDE74FF0A042D3E70DF1020238
:10ABB000294606F053F914F4403F80460CD1B8689A
:10ABC000294606F080F9B8F1000FDAD19DF802109D
:10ABD000B86800F081FED4E74FF0000901ABCDE981
:10ABE0000199CDE90439CDF80C90B86803AA29463B
:10ABF00006F000F84845C4DB14F4003314D084F4A4
:10AC000080349DF803308DF80E30C4F300448DF885
:10AC10000C608DF80D40B8684B4603AA294606F033
:10AC2000A1F80028CFDAACE7CDE904330DF1030336
:10AC30000393B86803AA294605F0DCFFF1E703F5A2
:10AC4000E07350F82330FFDE00030050036803F088
:10AC50001F025B09026004D0012B034818BF0020CB
:10AC600070474FF0A0407047000300502DE9F04FAF
:10AC7000DFF89491DFF894A185B01546834600EB88
:10AC8000810140F2FF18594503D1002005B0BDE80D
:10AC9000F08FDBF800305E04C3F3C322C3F3080473
:10ACA00000F1AC801B0E19F80270444508BF4FF04C
:10ACB000FF34222B00F2A580DFE803F012191F22D7
:10ACC000252B22A3A3A3A33B68A3A3A3A3A3A3A36E
:10ACD000A3A36B818487A3A3A38A9194979A9D00D1
:10ACE000C5F80C45601C5ED10BF1040BCBE7C5F831
:10ACF0001445621CF8D000265FE0C5F80845F1E76E
:10AD0000C5F81045F5E7631CC5F80845ECD00026EA
:10AD100004E0661CC5F80C45E6D0012603A80394A0
:10AD2000FFF794FF039B012202FA03F3C0F80C35EE
:10AD300008E0C5F80845002FDBD1631CD4D00026FD
:10AD400032460627DBF80030019303F40040002868
:10AD500018BF002203A8009218BF01260394FFF732
:10AD600075FF039C019B009A00EB8400C3F3412C08
:10AD7000D0F800473B0243EA8C03134304EA0A0479
:10AD8000234343EA4603C0F80037ADE7C5F80C4556
:10AD9000D1E7C5F86045601CDBF80030A4D0C3F3F0
:10ADA0000043002BB9D003A80394FFF74FFF039B88
:10ADB000012606FA03F3C0F808353246C2E7C5F8A3
:10ADC0006445E8E7C5F86845E5E7C5F86C45E2E79E
:10ADD000C5F82445621C87D000220126B2E7C5F8D9
:10ADE00028457FE7C5F83045F4E7C5F83445F1E775
:10ADF000C5F83845EEE7C5F83C4573E76FF0150038
:10AE000044E76FF0850041E7B9240300F0F8FCFF48
:10AE10002DE9F041044647680D4606F018FB88B15D
:10AE20004FF02008EFF31186314688F31288BFF304
:10AE30006F8F606805F013FC50BB86F31188BFF379
:10AE40006F8FEFE71F4B1B78002BE9D04FF02008E6
:10AE50006426606805F003FC70B9012005F037FD39
:10AE6000013EF6D10021212006F097FBF0E786F3A2
:10AE70001188BFF36F8FF5E7EFF31186314688F342
:10AE80001288BFF36F8F606805F0E9FB0028EED0F1
:10AE9000BB691D706368BA691B680020C3F844254C
:10AEA0000122C3F84825C3F82001D3F82041C3F894
:10AEB0005801D3F858019A6081F31188BFF36F8F5E
:10AEC000BDE8F081A514002070B5012383400E4A2F
:10AED000BFF35B8FDC4352E8001F01EA040542E840
:10AEE0000056002EF7D1BFF35B8F4FF480328240C3
:10AEF0000648C0F80823BFF35F8FBFF36F8F0B4284
:10AF000014BF0120002070BD3C1200200010014041
:10AF100070B40E49D1E90034D01AC31844F10004CA
:10AF200022F07F46C1E90034A6F50013B3F5400FC7
:10AF300009D2074B1B681A0A1B069C19054B42F1E4
:10AF40000005C3E9004570BC02F04AB9280700209B
:10AF5000401200203007002011B3BFF35B8F0123A4
:10AF6000104A834052E800CF4CEA030C42E800C18B
:10AF70000029F7D1BFF35B8F0B4A4FF48033834036
:10AF8000C2F80433094BBFF35B8F1B68BFF35B8FC1
:10AF9000C340DB0742BF064B4FF40032C3F8002129
:10AFA000704700BF3C120020001001403812002002
:10AFB00000E100E00D4B1868010A0006BFF35F8F47
:10AFC0000B4BD3F80435181841F10001B3F5801F7D
:10AFD0000AD2084BD3E90023904271EB030303D25A
:10AFE00010F1807041F10001704700BF4012002055
:10AFF00000100140300700202DE9F04F85B01646C3
:10B000001F469DF840A00446FFF75EFF0190FFF742
:10B01000D1FFB04271EB070354D23E4B301A67EBBD
:10B020000101984271F100014FD23B4B03EB041335
:10B03000D3E902239F4208BF96425ED037494FF4BE
:10B04000803804F1500508FA04F8AD00C1F84883CF
:10B050002046ADB205F021FC26F07F4B05F180457E
:10B0600004F5A87305F58835DC464FF00309029313
:10B07000029A2CF07F4341F82230C1F84483D1F882
:10B080000435274A6FF00200C01A604420F07F4068
:10B09000904232D9286868B1D1F804350393A3EB04
:10B0A0000B0020F07F40B0F5000F26D9204605F0B8
:10B0B000F4FB039BBAF1000F07D109EB030C09F174
:10B0C0000109D5E7BAF1000F09D06FF01505204648
:10B0D0000199FFF741FF284605B0BDE8F08F012335
:10B0E000104ABFF35B8FA34052E8000F184342E8B9
:10B0F00000010029F8D1BFF35B8F07490E982301A7
:10B1000001EB0412C8500F9B5360C2E9026700258F
:10B11000DDE700BF0100800018070020001001409B
:10B12000FDFF7F00381200207FB51C4C1C4BC4F87B
:10B130000833C4F848331B4B00254FF0FF304FF065
:10B14000FF31C4F80855C3E902014FF48033C4F855
:10B150000433154B02264FF400320121C4F8046376
:10B160001120C3F880212A46FCF72AFE1120FCF7A3
:10B17000F7FD0E4A0123A360236013600C4B0D4AB8
:10B180000093CDE9015500232846FFF735FF3046EF
:10B19000FFF730FB284604B070BD00BF001001402F
:10B1A00003000F001807002000E100E03C1200201F
:10B1B00011AF0200FFFF7F002DE9F7432F4CD4F8B9
:10B1C000043399070BD5D4F8043143B12C4A00233A
:10B1D000C4F80431D4F80431136801331360D4F88F
:10B1E0000433DA0329D5BFF35B8F264B53E8002FD6
:10B1F00022F0010143E800100028F7D1BFF35B8F74
:10B20000D30702D4D4F84031BBB10025C4F8405173
:10B21000D4F84031FFF7CEFEEFF31182202383F301
:10B220001288BFF36F8F184BD3E90267B042B94160
:10B2300006D282F31188BFF36F8F03B0BDE8F083AD
:10B240004FF0FF384FF0FF39C3E90289D3E900100E
:10B250001D604FF48033C4F84833C4F84051D4F82B
:10B26000403182F31188BFF36F8F0029E5D0009041
:10B2700032463B4628468847DFE700BF00100140C2
:10B2800040120020381200201807002030B5431C5F
:10B29000124C85B005D08442A8BF0446012CB8BF2B
:10B2A0000124FFF787FE0E4B0C4DD3E90013401A23
:10B2B000B0F5000F10D22218AA4228BF2A46521811
:10B2C0004FF0000007490091CDE9010043F1000370
:10B2D000FFF792FE05B030BD2A46F0E7FFFF7F0082
:10B2E0002807002011AF020008B5FFF763FE024BEC
:10B2F0001B68C01A08BD00BF280700204FF080530C
:10B30000D3F83021082A06D1D3F83431052B02D8DE
:10B31000024AD05C70470020704700BFD52403006C
:10B32000024AD2F80034002BFBD0704700E0014005
:10B3300010B54FF08053D3F83021082A4ED14FF08A
:10B3400080420021C2F80C11C2F81011C2F8381561
:10B3500002F54042D3F80414C2F82015D3F80814BB
:10B36000C2F82415D3F80C14C2F82815D3F8101419
:10B37000C2F82C15D3F81414C2F83015D3F81814E9
:10B38000C2F83415D3F81C14C2F84015D3F82014B1
:10B39000C2F84415D3F82414C2F84815D3F8281479
:10B3A000C2F84C15D3F82C14C2F85015D3F8301449
:10B3B000C2F85415D3F83414C2F86015D3F8381411
:10B3C000C2F86415D3F83C14C2F86815D3F84014D9
:10B3D000C2F86C15D3F84434C2F87035FFF78EFF0D
:10B3E00018B13A4B3A4AC3F88C26FFF787FF18B1D9
:10B3F000384BFB22C3F81825FFF780FF70B14FF0E0
:10B4000080414FF08053D1F8E42ED3F8583222F027
:10B410000F0203F00F031343C1F8E43EFFF76EFF82
:10B4200020B12D4B4FF40072C3F840264FF08053EB
:10B43000D3F83031082B1AD14FF08043D3F80024D1
:10B44000D20744BF6FF00102C3F800244FF08053CD
:10B45000D3F83431052B02D8204AD35C3BB14FF0EE
:10B460001023D3F808224FF08043C3F858254FF03B
:10B470001023D3F80022002A03DBD3F80432002B78
:10B4800022DA174901234FF01020C1F804351224A5
:10B49000FFF746FFC0F80042FFF742FFC0F8044242
:10B4A000FFF73EFF0023C1F80435FFF739FFBFF374
:10B4B0004F8F0C490C4BCA6802F4E0621343CB6017
:10B4C000BFF34F8F00BFFDE710BD00BF005000402D
:10B4D0004881030000F0004000900240CF240300A8
:10B4E00000E0014000ED00E00400FA05014B1860A7
:10B4F000704700BF4412002010B5054B1868144671
:10B5000005F0E7F90028A4BF2070002010BD00BF9F
:10B5100044120020024A01238340C2F804357047D8
:10B5200000F00140014B00201B6818474812002022
:10B53000014B1B68184700BF4812002010B50C4C87
:10B54000237993B9012323710A4B2060002818BF87
:10B55000184600F05DF850B923680748002BBDE895
:10B56000104008BF184600F0A3B86FF0770010BD78
:10B570004812002025B5020031B5020008B5064B7F
:10B580001B682BB10020FCF70DFC08B9FCF7E8FBA9
:10B59000024B01221A7008BD48120020A31400209B
:10B5A0004FF08053D3F83021082A06D1D3F8343134
:10B5B000052B02D8024AD05C70470020704700BFBC
:10B5C000DB24030038B54FF080440123C4F808336E
:10B5D00063600023C4F80031D4F8003142F21075E2
:10B5E000D4F80C24D4F80C34D20307D5DB0705D5E6
:10B5F000012005F06CF9013DF2D138BDFFF7D0FF15
:10B600000028FAD0014B00225A71F6E750120020B0
:10B6100010B508490C794CB9012308600B71FFF78C
:10B62000BFFF08B9002010BD4C71FBE76FF0770039
:10B63000F9E700BF501200204FF080430022C3F80A
:10B640000021D3F80021094901221A60096811B1CB
:10B65000C3F804237047D3F80021002AFBD000224E
:10B66000C3F80021D3F80031704700BF501200200A
:10B6700010B54FF08043D3F80423D20715D5D3F883
:10B68000002192B10022C3F800210121D3F800214A
:10B69000C3F80813FFF784FF044B10B15A7922B99D
:10B6A0005971BDE810401B68184710BD50120020AA
:10B6B000074A137943B90121106011714FF080429C
:10B6C0001846C2F8183570476FF07700704700BF12
:10B6D0005812002010B54FF080431D4CD3F81814B9
:10B6E000D3F8182411F4803F19D002F00302012A84
:10B6F00003D00AB105F057F900224FF08043C3F898
:10B7000018250022C3F80421D3F8042101229A60ED
:10B71000226872B9D3F80421002AFBD011E0D3F8D3
:10B720001424D107E8D5D3F81C249207E2D4226868
:10B730001AB10222C3F8042310BDD3F80421002A51
:10B74000FBD00022C3F80421D3F80431F4E700BF92
:10B7500058120020F8B54FF08043194FD3F8044336
:10B76000012504F01A04002604B9F8BDB4FA84F0E7
:10B77000C0F11F00830003F580739BB203F1804387
:10B7800005FA00F2196824EA02040029ECD01E60D0
:10B790001B684FF080430128C3F808230CD1D3F86D
:10B7A0001824D3F81824920706D10222C3F81805EA
:10B7B000C3F804239860D7E73B68C0B29847D3E743
:10B7C00058120020036803F01F025B09026004D0D6
:10B7D000012B034818BF002070474FF0A04070476E
:10B7E00000030050034A430900F01F00D35C1844D3
:10B7F000C0B27047E1240300034611F0010030B5E8
:10B80000CCB213D1A207C4F3400020D5124AD2F81B
:10B81000200558604FF08053C2F82005D3F830312E
:10B82000082B15D0003818BF012010E04FF0A041C0
:10B830004FF08055D1F820251A60C1F82025D5F8A1
:10B840003051082D08BFD1F82015002ADAD030BDBC
:10B85000D2F82035E6E700BF00030050F7B50446F4
:10B860000846FFF7BFFF06B204EB46060D46B38A53
:10B87000DB072BD5204605F09AF92946204605F02E
:10B8800005F958B1204605F017F9276800B207EB13
:10B8900080030022C3F81025C3F81025294620464E
:10B8A00005F033F90021B18201A80195FFF78AFF65
:10B8B000019B00EB8300074BD0F80027134043F0B7
:10B8C0000203C0F80037084603B0F0BD6FF0150062
:10B8D000FAE700BFF0F8FCFF014805F018B800BF18
:10B8E0009803002010B504480C4604F0F2FF00282D
:10B8F000A4BF2070002010BD980300202DE9F04F58
:10B90000804689B058F804ABDAF80413C9B283460C
:10B91000082241F00041504605F021F9051E2BDABE
:10B920000023032106A8CDE90633FFF765FF644B2A
:10B9300001930DF118090023019A009312F8013BBD
:10B9400060490192DA0803F007038A5C22FA03F3E4
:10B95000DA071AD4009B09F10409A3B14FF00041A2
:10B960000022504605F0FBF8032106A8FFF744FF2C
:10B970000028DCD125F000450124002D40F08A800C
:10B9800009B0BDE8F08F0123D6E7009B4E4A13446F
:10B990000293D9F800100029DCD0029B91FAA1F1A2
:10B9A0001C78B1FA81F141EA44142046FFF71AFFEE
:10B9B0000BEB40000594878AC808BB0819F80020E3
:10B9C000039301F00701012303FA01F122EA0102C6
:10B9D00009F8002005A8FFF7F5FE059A039B02F57C
:10B9E000E072C7F3820650F822205B073746C2F3A5
:10B9F000014233D5D6B240463A46214605F066F8B4
:10BA000005A80594FFF7DEFE059B03F5E07350F8EB
:10BA10002330C3F301439E4207D10021204605F0A5
:10BA200026F83146204605F022F805A80594FFF7D0
:10BA3000C9FE059B012202FA03F3C0F820354FF03E
:10BA40008053D3F83031082B01BFD0F82035D0F81F
:10BA50002035D0F82035D0F820359AE7022A0DD1CC
:10BA60000321204605F003F806F00503012BDCD185
:10BA70003A462146404605F029F8D6E702212046FD
:10BA8000039204F0F4FF032EF2D0039A032ACCD1E0
:10BA9000022EECE795FAA5F3B3FA83F304FA03F266
:10BAA00025EA020503F5A2720BEB43035AF82220A4
:10BAB000B3F87C10C2F30142404605F007F85CE79A
:10BAC000F1240300581E0300F124030010B5184CA4
:10BAD000237853BB0278C2F34003920712D54FF08C
:10BAE0008053D3F83021082A0BD1D3F83431052BF9
:10BAF00007D8104AD35C23B14FF080430122C3F82A
:10BB0000382601234FF08042C2F88035037803F0D5
:10BB10000103C2F878350020FCF744F908B9FCF7B6
:10BB20001FF901232370002010BD6FF07700FBE7A1
:10BB3000A4140020F32403004FF080434FF46072FC
:10BB4000C3F80823014B00221A60704760120020DE
:10BB500008B5FFF7F1FF03680BB1014A136008BD98
:10BB60006012002010B54FF08043D3F80443620701
:10BB700007D54FF4847005F0FDF910B11E4B1B681A
:10BB80009847A30608D54FF48A7005F0F3F918B169
:10BB90001A4B00201B689847600608D54FF48C703C
:10BBA00005F0E8F918B1154B01201B6898472106EC
:10BBB00008D54FF48E7005F0DDF918B1104B002058
:10BBC0001B689847E20508D54FF4907005F0D2F94C
:10BBD00018B10B4B01201B689847A3050AD54FF4F9
:10BBE000927005F0C7F928B1054BBDE810401B68FD
:10BBF0000220184710BD00BF681200206412002008
:10BC00006012002038B5EFF31185202383F31288EA
:10BC1000BFF36F8F064B9C6805F0FCF985F3118824
:10BC2000BFF36F8F2046BDE83840FCF73FB800BF38
:10BC30006C12002038B50A4B53F82040013053F8FD
:10BC40002050A54200D838BD606830B1037EDB07C4
:10BC500001D405F0B4F90834F3E723689847FAE70C
:10BC60005C1E030070B52A4B2A4C2B4D012286B076
:10BC700003201A70FFF7DEFF05F0F0FD0420FFF748
:10BC8000D9FF2646AE4204F1300410D300F0BCFFC9
:10BC9000204C224EAC4226D300F0CAFFFBF73AFA02
:10BCA0001F4A137B23F00103137306B070BD54F8D1
:10BCB0000C3C059354F8103C049354F8143C039343
:10BCC00054F8183C029354F81C3C019354F8203C5F
:10BCD000009354E90A2354E90C0100F089FD54F85B
:10BCE000303C5E65CDE7D4E90A23B3F1FF3F08BFDE
:10BCF000B2F1FF3F05D052EA0301206803D101F001
:10BD000053F83034C6E73146183001F0D9F9F8E776
:10BD1000A5140020241C0300241C03005B15030051
:10BD2000C807002070B5164E164D1749902386B0EF
:10BD300003FB006601220023CDE904230F22CDE995
:10BD400002320193142303FB005504464FF4C070E4
:10BD500000FB04110D4B00954FF4A072304600F02B
:10BD600047FD737B0A4AEE6023F0040373734FF4BC
:10BD7000046304FB033313442C746B6006B070BD82
:10BD8000380700206C12002080230020A711030038
:10BD9000401B0020BFB50020FFF74CFF284B83F36A
:10BDA0000888284C284F636943F4007363610025B9
:10BDB000E02384F82230E57725766576A57684F849
:10BDC0002050636A43F4E023636284F82350FBF756
:10BDD000E9FEFCF781F84FF0FF33A362E362FCF762
:10BDE00041F9FCF79DF81948194C00F07BFD012042
:10BDF000FFF720FF0220FFF71DFF00F04DFF154B5E
:10BE000015495C61154B05930123CDE903534FF4AC
:10BE100080623B46CDE901550095204600F0E8FCE4
:10BE2000627B064622F004022046627305F052FB54
:10BE30002846FFF777FF3A4631462046FCF72CF8B4
:10BE40008023002000ED00E065BC020058080020BF
:10BE5000C80700206C12002000250020F9240300F0
:10BE600038B5064C064DAC4201D3002038BDD4E9AC
:10BE70000112204605F013F91434F4E79004002071
:10BE8000A404002030B585B0DDE90845034B0293DA
:10BE9000CDE9004505F0C1F805B030BD53E0020022
:10BEA00038B5064C064D0020AC4200D338BD2046C4
:10BEB00005F019F90028F9DB1C34F5E774040020BB
:10BEC0009004002073B50C46EFF31181202585F313
:10BED0001288BFF36F8FC5685DB125602B68C360A2
:10BEE000836901338361002081F31188BFF36F8F71
:10BEF00011E052EA030603D125606FF00B00F3E76F
:10BF0000CDE900230246083000F0C4FD18B9034B08
:10BF10009B681B69236002B070BD00BF6C120020DB
:10BF20002DE9F34104460E469DF8200004F108086F
:10BF3000EFF31187202181F31288BFF36F8F256AF9
:10BF4000E1688D4242D22568AC421AD0CDB1284674
:10BF500005F034F905F1180005F09CFBA26828698A
:10BF60003146002405F07BFC2846C5F8884005F0E2
:10BF7000B1FA4046394600F021FE204602B0BDE845
:10BF8000F081A268A8B1E069314605F068FCE36978
:10BF9000A26813446269E361934201D12369E361BA
:10BFA000236A01332362002087F31188BFF36F8F68
:10BFB000E4E7A1692369994204BF6369A361A069A9
:10BFC000801AA061314605F04AFCE9E752EA030114
:10BFD0000AD00749896840460E61CDE900233946F9
:10BFE000224600F057FDC9E76FF02200DCE700BFF2
:10BFF0006C120020F7B5044604F108070846EFF379
:10C000001186202181F31288BFF36F8F216A0029E6
:10C010003AD0A268A16905F022FCA369A26825684C
:10C0200013446269A361934204BF2369A361236A35
:10C03000AC4203F1FF33236234D02846002D32D0C6
:10C0400005F0BCF805F1180005F024FBA268296989
:10C05000E06905F004FCE369A26813446269E361E6
:10C06000934204BF2369E361236A013323620024FE
:10C070002846C5F8884005F02DFA3846314600F0CC
:10C080009DFD204603B0F0BD52EA030110D00A49DD
:10C0900089680861CDE9002331462246384600F020
:10C0A000F9FCEFE7002086F31188BFF36F8FE9E713
:10C0B0006FF02200F7E700BF6C1200202DE9F3417A
:10C0C000044617461E46EFF31188202383F3128897
:10C0D000BFF36F8FC368334A7BB180689168884231
:10C0E00019D057EA060318D188F31188BFF36F8F70
:10C0F0006FF00F0002B0BDE8F081916891F90E1069
:10C1000021610133E3609368A36088F31188BFF372
:10C110006F8F0020EEE72169F2E791F90E1090F998
:10C120000E309942A8BF19466FF07E029142B8BF07
:10C1300011468B422DDD05F055F80546CDE9007618
:10C1400019482246414600F0A5FC0028E1D0EFF353
:10C150001186202383F31288BFF36F8FA068D0B1BC
:10C16000236821699C420AD04BB193F90E30994261
:10C17000A8BF19466FF07E039942B8BF194605F073
:10C1800031F840B10848314600F018FD6FF00A0060
:10C19000B0E70025D2E7002DF4D186F31188BFF374
:10C1A0006F8FF3E76C120020A6140020F8B58368A7
:10C1B0000546002B40D0234A926893423FD1C36882
:10C1C000012B03D9013BC3600020F8BDEFF31187B9
:10C1D000202383F31288BFF36F8F0169806805F015
:10C1E00001F82C68A54207D10023C5E9023387F383
:10C1F0001188BFF36F8FE7E7002CF5D0D4E9003248
:10C2000013605A60637B002623F002036373C4E962
:10C210000066A66004F1180005F03CFAAC6094F9E1
:10C220000E302B612046C4F8886005F053F90648AB
:10C23000394600F0C3FCC7E76FF01500C5E74FF0C3
:10C24000FF30C2E76C120020A614002037B511465B
:10C25000EFF31185202282F31288BFF36F8F0468F9
:10C260009CB12368426823F003039442036008BF33
:10C2700043600121204605F039F8044685F3118812
:10C28000BFF36F8F204603B030BD51EA0302F5D0F3
:10C2900000F10802CDE900131046294600F0FAFB30
:10C2A0000028EFD1014B9B681C69EBE76C12002062
:10C2B00070B5EFF31186202383F31288BFF36F8FDD
:10C2C0000468A0421BD0D4B1D4E9003213605A6094
:10C2D000637B002523F002036373C4E90055A56066
:10C2E00004F1180005F0D6F92046C4F8885005F08E
:10C2F000F1F831460748BDE8704000F05FBCD0E976
:10C3000002329A4218BF0133836086F31188BFF36B
:10C310006F8F70BDA614002013B5EFF31181202498
:10C3200084F31288BFF36F8F846844B1013C84604A
:10C3300081F31188BFF36F8F002002B010BD52EA65
:10C34000030406D181F31188BFF36F8F6FF00F00E4
:10C35000F3E7CDE900230246014800F09BFBECE740
:10C36000A61400202DE9F0410546EFF311872023A4
:10C3700083F31288BFF36F8F00231E466FF00A0805
:10C380002C68A54216D0ACB1D4E9003213605A60D3
:10C39000637BA66023F002036373C4E9006604F1C3
:10C3A000180005F077F9C4F88880204605F092F867
:10C3B0000123E5E70022AA602BB139460548BDE814
:10C3C000F04100F0FBBB87F31188BFF36F8FBDE82E
:10C3D000F08100BFA61400202DE9FF414F4E044616
:10C3E0002027EFF3118887F31288BFF36F8FD4F8FB
:10C3F0009450F5B9022104F1AC0004F0A4FF002828
:10C4000068D004F1A40500220121284605F0E6F8D1
:10C410000028F8D1002302934FF0FF324FF0FF3392
:10C42000CDE90023414604F19C023D4800F086FD21
:10C43000D7E7D4F898202B68C4F89430954208BF09
:10C44000C4F89830D4F8AC3043F00203C4F8AC30F0
:10C45000EB6823F0040343F00103EB606B6888F39F
:10C460001188BFF36F8F28469847EFF3118887F341
:10C470001288BFF36F8FEB68D80623F0010236D421
:10C48000EA60EB689A0716D5306823F00203EB6088
:10C4900088B10368002170B14268954235D10368C4
:10C4A00069BB72683360824200D17360002340F838
:10C4B000083BFFF7FDFED4F8AC3023F00203C4F8CC
:10C4C000AC3088F31188BFF36F8FDB0589D400F09F
:10C4D000EBFB86E7D4F8AC30D9069BD5C4F8AC00AA
:10C4E00088F31188BFF36F8F04B0BDE8F08123F0AB
:10C4F0001103EB6005F11000FFF7DAFEC1E70B60F6
:10C500007368834208BF7160D0E723B11A6801469F
:10C5100018461346BFE71A46F9E700BF8C12002001
:10C52000A6140020F8B5C3689A0704460F46C3F363
:10C5300040062ED45B071CD40B680BB983680B60D4
:10C54000E368DD0744BFA3683B603D684CBF02263B
:10C550000126002D3CD0204B9A68D5F890309A42A5
:10C560000AD0D5F8AC30D807C3F3800214D46FF0EA
:10C57000120600233B6025E004F069FFD5F8AC30DB
:10C580000028F0D1D907C3F3C002F0D552B15B0740
:10C5900008D46FF00F06ECE7002AFAD1C3F3C0030A
:10C5A000002BF6D100232360D5F8983063B9C5E994
:10C5B0002544284604F0E1FEE36843F00403E36009
:10C5C0003B68A3603046F8BD1C60C5F89840F0E7B2
:10C5D0006FF01506CDE700BF6C1200200146014840
:10C5E00004F00CBF08090020F0B589B00446002013
:10C5F000C4E925000E9D04F19C00C4E9270004F164
:10C60000A400C4E9290055B32879002840F201109C
:10C6100008BF0120C4F8AC0000204FF0FF364FF0F7
:10C62000FF37CDE90330CDE90100CDE906670D4BB9
:10C630000094204600F02AF955B1296811B120462E
:10C6400004F00BFF6B791BB1237B43F001032373D1
:10C65000204600F0A9FBC4F8904009B0F0BD0120CD
:10C66000D8E700BFD9C3020037B501900846EFF301
:10C670001184202181F31288BFF36F8FC16811F0FC
:10C680001E0F16D153EA020508D101A9FFF74AFF90
:10C6900084F31188BFF36F8F03B030BD41F0080100
:10C6A000C160019981620449103000F009FD012048
:10C6B000EEE70020ECE700BF8913030001460148C4
:10C6C000FFF7D2BF08090020F7B50C4601901646C7
:10C6D0001D46EFF31187202383F31288BFF36F8F7A
:10C6E000084604F03BFE55EA060309D101A920469D
:10C6F000FFF718FF87F31188BFF36F8F03B0F0BD0A
:10C70000E368074943F00803E360019BA3623246F4
:10C710002B4604F1100000F0D3FC0120EAE700BF33
:10C720008913030001460148FFF7CEBF0809002026
:10C730002DE9F0410546EFF31187202383F312889A
:10C74000BFF36F8F0468A04223D014B3204604F0D7
:10C7500071FE04F1180004F09DFF0026B046C4F8F5
:10C760008880204604F0B6FE2C68A54206F101063A
:10C7700008D03CB1204604F05DFE04F1180004F03E
:10C7800089FFECE70648394600F018FA3046BDE864
:10C79000F08187F31188BFF36F8F0026F6E700BFA3
:10C7A000A61400202DE9F34105460C4617461E4607
:10C7B000EFF31188202383F31288BFF36F8F0846AD
:10C7C000FFF7F4FC2A46CDE900764146074800F021
:10C7D00061F905464FF0FF324FF0FF332046FFF777
:10C7E0006DFC284602B0BDE8F08100BFA614002011
:10C7F0002DE9F043073285B022F007020E461F46AE
:10C800001099017300F158037F32C0E916330446D2
:10C81000002322F03F020421836041733F2A0F98D6
:10C82000A073C4E90633E37306F14009A2F140089E
:10C8300005D883F31188BFF36F8F084602DFB51860
:10C8400029462046FAF78EFF07300E9B20F007009E
:10C85000A067C4E91C9802930D9B01932D1A0C9BB1
:10C8600000932A463B4631462046FBF7E3FA002375
:10C87000636584F86C30044B9B6803B1DB6FE3673E
:10C88000284605B0BDE8F0836C120020F0B587B0F3
:10C8900000250595109D04950F9D03950E9D02950D
:10C8A000DDE912760D9D01950C9D00950446FFF77C
:10C8B0009FFFB6F1FF3F08BFB7F1FF3F05D056EA33
:10C8C000070305D1204600F06FFA204607B0F0BDFF
:10C8D0003A46334604F11800014900F0F1FBF4E751
:10C8E0005B15030040F2011383810023C0E91C3370
:10C8F000C367014B986070476C1200200A4A936826
:10C900006FF00A01C3F888100849C3F884004B6827
:10C9100043F080534B60002383F31188BFF36F8F84
:10C920009368D3F8880070476C12002000ED00E097
:10C9300070B590F90D20437B002A36DBD90634D13F
:10C940001B4C63F07F032246437352F8183FE169A2
:10C95000934207D1C0E900210860E06111E09942EB
:10C96000F8D01B68002BF5D090F90E5093F90E60AB
:10C97000B542F4D0AE42F2DD5968C0E9003108603A
:10C980005860A569954200D005B9E568A3685A7B4F
:10C99000D20604D1DA897F2A01D9AA6932B1AB4221
:10C9A00002D0284600F00CFB656170BD6361FCE7B6
:10C9B0006C12002038B590F90D20437B002A014607
:10C9C00004DA03F07F03437304F04AFD0D4D2A4659
:10C9D000AB6852F8184F944200D004B9EC688B420F
:10C9E00007D05A7BD20604D1DA897F2A01D9A269FD
:10C9F0002AB1A34202D0204600F0E2FA23466B613E
:10CA000038BD00BF6C120020B3F1FF3F08BFB2F188
:10CA1000FF3F03D00249183000F052BB704700BFFF
:10CA20005B15030038B5194CA168E0690B688142B9
:10CA300014BF1A46002249680B605960A368E16977
:10CA40002AB9134AC3E900210B60E3610CE093F9B2
:10CA50000E0092F90E50A84214D0854212DD5168A2
:10CA6000C3E900210B605360A569094B9D4200D0CA
:10CA700005B9E568A3689D4202D0284600F0A0FAF7
:10CA8000656138BD9142DCD01268D9E76C12002094
:10CA900084120020F8B50E4B0C4611460D4A9868DA
:10CAA0001060DDE90667EFF31182202282F312881D
:10CAB000BFF36F8F9D68284604F0E4FC2846324699
:10CAC0003B46FFF7A1FF2046BDE8F840FFF716BF41
:10CAD0006C12002094120020F8B50446EFF3118781
