:1000000080440020A5230000D1C5000091230000FA
:1000100091230000912300009123000000000000C4
:10002000000000000000000000000000112500009A
:100030009123000000000000AD2400009123000087
:10004000D1260000D1260000D1260000D1260000D4
:10005000D1260000D1260000D1260000D1260000C4
:10006000D1260000D1260000D1260000D1260000B4
:10007000D1260000D1260000D1260000D1260000A4
:10008000D1260000D1260000D1260000D126000094
:10009000D1260000D1260000D1260000D126000084
:1000A000D1260000D1260000D1260000D126000074
:1000B000D1260000D1260000D1260000D126000064
:1000C000D1260000D1260000D1260000D126000054
:1000D000D1260000D1260000D1260000D126000044
:1000E000D1260000D1260000D1260000D126000034
:1000F000D1260000D1260000D1260000D126000024
:1001000053B94AB9002908BF00281CBF4FF0FF317E
:100110004FF0FF3000F00CB8ADF1080C6DE904CEE3
:1001200000F01AF8DDF804E0DDE9022304B07047BE
:10013000704700BF10F8012B11F8013B012A28BFBE
:100140009A42F7D0D01A7047034613F8012B002AC1
:10015000FBD1181A013870472DE9F04786468C46C6
:100160000846089E154674461946002B40F0C2808A
:100170008542B2FA82F245D94AB1C2F1200300FAAF
:1001800002FC2EFA03F3954043EA0C0C94404FEA2C
:10019000154EA8B2BCFBFEF8230C0EFB18CC08FBD6
:1001A00000F943EA0C43994528D9EB1808F1FF37C9
:1001B00004D2994502D9A8F102072B44A3EB090305
:1001C000A4B2B3FBFEFC0EFB1C330CFB00F044EAB4
:1001D0000344A04214D92C190CF1FF3304D2A042DD
:1001E00002D9ACF102032C44241A43EA07401EB1A1
:1001F000D440002334607360BDE8F0874746DDE7F4
:100200006346F1E792BB431B01214FEA154EAFB2A3
:10021000B3FBFEFC200C0EFB1C330CFB07F840EA82
:100220000343984562D9EB180CF1FF3004D298458E
:1002300002D9ACF102002B44A3EB0803A4B2B3FB38
:10024000FEFC0EFB1C330CFB07F744EA0344A742F9
:100250004ED92C190CF1FF3304D2A74202D9ACF1CC
:1002600002032C44E41B43EA0040C0E7C2F1200330
:1002700020FA03F1954090402EFA03F303434FEA2E
:10028000154EAFB2B1FBFEFC0EFB1C10190C0CFBA3
:1002900007F841EA0041884504FA02F422D96918B6
:1002A0000CF1FF3004D2884502D9ACF10200294498
:1002B000A1EB08019BB2B1FBFEFC0EFB1C110CFB79
:1002C00007F743EA01439F420ED9EB180CF1FF31C7
:1002D00004D29F4202D9ACF102012B44DB1B41EA5C
:1002E000004192E76046E3E76146F7E76046A3E72F
:1002F0006346B7E7834206D916B9002108467BE773
:10030000C6E900E0F9E7B3FA83F78FB9834201D376
:10031000724508D8BEEB020460EB030301209C4643
:100320001EB9002168E73846FAE7C6E9004CF8E74D
:10033000C7F1200CBB4022FA0CF41C432EFA0CF13E
:1003400020FA0CF3B84001434FEA14490EFA07F5BE
:10035000B3FBF9F81FFA84FE09FB18300B0C08FBFD
:100360000EFA43EA00439A4502FA07F240D9E3182D
:1003700008F1FF3004D29A4502D9A8F102002344C3
:10038000A3EB0A0389B2B3FBF9F809FB183308FBA6
:100390000EFE41EA03418E452CD9611808F1FF3366
:1003A00004D28E4502D9A8F10203214443EA004059
:1003B000A0FB0298A1EB0E014145CE46434602D375
:1003C00006D14D4504D2B9EB020E68EB04030138A7
:1003D000002EA6D0B5EB0E0261EB030101FA0CFC76
:1003E00022FA07F34CEA0303F940C6E9003198E723
:1003F0004046C5E74346D9E72DE9F34104460FF0EF
:100400009FFBDFF83880002640F8086005460F465D
:100410000A2201A9204601960AF010FE034655F86B
:10042000080048B9019AA24203D012780AB93B6089
:10043000012002B0BDE8F0813046FAE70C00000070
:10044000F0B5044689B08368DB6BCBB90F4F104E13
:10045000A368DB6A13B120469847A0B1A3681B6963
:100460008BB12022694620469847051E0BDD2A469F
:10047000694638460BF032FF33682B443360E7E7B8
:1004800098470028E2D109B0F0BD00BF90050020D8
:10049000BC13002038B5054D441E14F8011F01B9E6
:1004A00038BDAB6801485B689847F6E7BCFC0000C4
:1004B0002DE9F04F8FB002AF0FF0C3F90446884624
:1004C000DFF884A250460EF01CFE0546002800F01E
:1004D0002982DAF808302BB11B6C1BB19B49002232
:1004E00050469847DAF808301B6A0BB1964898478F
:1004F0004FF47A73A4FB034603FB0861E40B44EA60
:100500004144CE0BE41846F10006914A914803217C
:100510000BF0BDFF6D4688B002AA8F4B53618F4B25
:1005200093614FF4007393838D4B42F8103F8948D9
:1005300000234FF4E65101F007F88A48AD46FFF773
:10054000A9FF8948FFF7A6FF88480122F91C0BF094
:10055000E5FE0128814626D0854B1B78FBB10FF0C4
:1005600070F94FF47A72A0FB020302FB0131C30B56
:1005700043EA4143A3424FEAD131B1410FDBA41812
:100580007C4D7D4A2B68126846F100067148009246
:1005900003217A4A0BF08EFF2B6801332B60012078
:1005A0000BF047F8D0E7F9780D2902D00A2940F07E
:1005B00097817348FFF76EFF724B734A1B680025E3
:1005C00007F1100BD55459461346A8461A788AB33A
:1005D000082D34D093F800C0BCF1200F184603F169
:1005E0000103F7D0ACF1090EBEF1040FF2D9BCF152
:1005F000000F1FD0BCF1220F05F101050CD11A46E6
:100600000B6010781346013220B12228F9D1002066
:10061000187013460431D9E70860034610F8012B1F
:10062000002AF7D0202A02D0093A042AF5D803F884
:10063000018BEFE71DB9534A0023136081E7D7F818
:10064000108052494046FFF775FD18B95048FFF732
:1006500021FFF0E74F494046FFF76CFD08B94E48CF
:10066000F5E74E494046FFF765FD98B9012D0DD0DD
:10067000DFF82C815BF8040F09F10109FFF70AFF8D
:100680004D4505D94046FFF705FFF3E74548DEE74E
:100690003B48DCE744494046FFF74CFD78BB032D5F
:1006A00001D04248D3E7786907F10801FFF7A4FEBB
:1006B00008B93F48CBE7B86907F10C01FFF79CFE8A
:1006C0000028F6D0D7E90289C8453A4D0BDD4146EE
:1006D00028460AF0C1FF08F1FF3864200AF0A9FF9C
:1006E000C145F4DDA7E7414628460AF0B5FF08F109
:1006F000010864200AF09DFFC145F4DA9BE72E490A
:100700004046FFF717FD00286ED1012D0CD1184B84
:100710002A491878174B1A68294B002818BF194620
:1007200028480AF099FF86E7022D01D026488EE777
:100730007D6926492846FFF7FDFC00284AD10C4B6D
:10074000234801221A7082E7BCFC0000410400002B
:10075000880401000C000100A7040100B10401009D
:1007600003000001C9040100AB080100900500204E
:10077000E0080020C0130020BC1300204707010040
:1007800040070100B813002018280020F1040100E0
:10079000F604010080050100850501008C050100BB
:1007A000BB08010091050100A6050100AC05010090
:1007B000C90501001D070100DA0501006A040100F6
:1007C00062040100E2050100F9050100C30C01000B
:1007D0001306010058492846FFF7ACFC0028A5D1B4
:1007E000564B1870564832E756494046FFF7A2FC70
:1007F000A0B90FF026F84FF47A78A0FB080308FBA5
:100800000133C50B45EA43454F4829460AF024FF0A
:10081000B5FBF8F14D4808FB115282E74C494046C0
:10082000FFF788FC38B94B494B480AF015FF4B4A93
:100830004B494C4875E74C494046FFF77BFCC0B933
:10084000022D01D0494802E7786907F10C01FFF752
:10085000D3FD00283FF42DAFFD68002DFFF629AF32
:10086000434829460AF0F8FE28460AF0E2FE4148CD
:10087000EDE641494046FFF75DFC78BB6423012D5E
:100880007860BB6010D07869391DFFF7B5FD08B9F5
:100890003A48DCE6022D07D0B86907F10801FFF7F6
:1008A000ABFD08B93648D2E6D7E90158A84501DAC8
:1008B0003448CCE6042107F10C000BF021FFFB6863
:1008C0003148A8EB05020132B3FBF2F102FB113310
:1008D0002B44424629460AF0BFFEACE62B48B6E65A
:1008E000082909D12A4B1B68002B3FF42DAE284A5A
:1008F0002848013B136025E67F29F3D0A1F12003AE
:100900005E2B3FF621AE224A13687E2B3FF61CAECB
:10091000581C1060204AD154DAF808301F485B6830
:10092000984711E61E4A1F4801210BF0B0FD2846EA
:100930003437BD46BDE8F08F25060100E0080020F1
:10094000290601003B060100420601005206010093
:1009500066060100B10401006B0601007706010084
:10096000800601008C060100A0060100A606010019
:10097000BA060100D3060100DA060100DF06010015
:10098000ED060100FB0601000B0701002307010033
:10099000B81300204307010018280020BCFC000009
:1009A000720401000C0001002DE9F04F97B000AF78
:1009B00090F802A0D7F880B03B62CBF3C0030446A6
:1009C000FA62BB61894641B9457800780AEB80003C
:1009D00020444D4517D8A0EB0409E378FB61BAF138
:1009E000000F02D01BF0010F16D1FB6953BBFB6A4D
:1009F0001BB13A6A4946204698474D4628465C371F
:100A0000BD46BDE8F08F461C3046FFF79DFB013028
:100A1000304409F10109DCE7237862687A62FA6AF6
:100A20009900796104EB8301002A40F000814D4672
:100A30000E4601EB0A094FF000084E454CD101EB80
:100A40000A0610E01BF0020FD1D023789A007A61D9
:100A500062687A62FA6A04EB8301002A77D14D4614
:100A600001EB0A0690461BF0050F0CBF0223012381
:100A7000FB62FB6906EB430A0BF00203BB625645BF
:100A8000BCD016F8021B16F8013C54F82390994B81
:100A9000994502D3984B994536D3BB69002B40D07A
:100AA000786A0AF0F6FF00283BD0E9468AB06A4629
:100AB000924B53617B6AC2E906314FF40073138491
:100AC0008F4B42F8103F8F4800234FF4125100F033
:100AD0003BFD023DCD46D2E716F8013BF96254F8E2
:100AE0002300FFF731FBD7F88430F96A01304BB1AE
:100AF000D7F8883098453EBFD7F8843023F81800DF
:100B000008F10108054498E7BB6923B1786A0AF047
:100B1000C0FF0028C9D11BF0010F05D1FB6AED1AF7
:100B2000ADE7BB6A002BAAD04846FFF70DFBD7F80C
:100B3000843053B1D7F8883098453FBFD7F8842028
:100B4000431C22F8183008F10108054497E7BAF170
:100B5000000F72D01BF0040672D0D046002607F1B9
:100B6000480052463B61B9620EF04EFFB96A3B69DC
:100B700001EB0A02BA62FA69F9695200FA60BA6ACC
:100B800002EB41023A610BF00202BA603A69B96ABB
:100B90008A4257D162787A621BF0020F32440CBF4E
:100BA0004FEA580100211BF0010FD2B240F09F80A4
:100BB0001BF0040F14BF40460020BB616270A070A0
:100BC000E1703A6A7969FB6A20469847051EFFF68C
:100BD00015AFBB6923707B6A6370FB69E3704146A4
:100BE0003A6AFB6A84F802A007F148009847B0F11E
:100BF0000008C0F2BB807B693A6AA9EB0A01C91AF6
:100C0000FB68C91AD7E90A0398470028C0F2B080E8
:100C1000A84408EB00054FF0000B07F1380AB34574
:100C200072D300213A6AFB6A08469847E6E65646C0
:100C30004FF0000807F1380093E75646D04697E793
:100C4000B04695E7BA6A12F8021BBA6212F8015C64
:100C5000284A54F82500904202D3274A90421ED3D6
:100C6000BA6932B1786A7B600AF013FF7B680028AA
:100C70008CD1BA6802BB08F1280207F1300C08F1E8
:100C80000100944407F1580252FA80F008F102087A
:100C90000CF8101C5FFA88F800F8105C76E7BA6967
:100CA0003AB1786A7B600AF0F4FE7B6800287FF432
:100CB0006DAF1BF0010F09D006F1280207F13000DB
:100CC000711C161806F8205CCEB25FE71BF0040F0B
:100CD0003FF45CAF08F1280207F1300008F1010190
:100CE00002EB000808F8105C5FFA81F84EE700207C
:100CF00063E700BF54FB00003813010063070100E5
:100D000004000001BCFF00001BF80A3087F83730F0
:100D100054F82390D7F884302BB3D7F888309B450C
:100D200021D2D7F8843033F81B803A6AFB6A01215C
:100D300007F13700984700281ADB0544B8F1000F87
:100D400006D14846FFF700FA00F101081FFA88F8BB
:100D50003A6AFB6A414648469847002808DB054442
:100D60000BF1010B5BE74FF00008DEE7454645E677
:100D7000054643E6014B1B68184700BFA405002049
:100D800030B585B004460D461022002168460EF0AD
:100D900063FE02238DF802302A46044B019321465C
:100DA00068460AF0C1F905B030BD00BF750D0000FE
:100DB00080B505460E461746984607F01FF90346CC
:100DC0000EF0BEFEDFF81890044649F800304246A7
:100DD00030463946A84754F8090001F051FB00BFDE
:100DE000080000002DE9F047058B044628079046CF
:100DF00011D4022905F0070540F0CC8020460BF005
:100E000008F978B10138218B042811D8DFE800F007
:100E1000C2106D85950001290CBF45F0100545F005
:100E20002005258388F31188BFF36F8FBDE8F08715
:100E300001F0070AAA4500F0A5800027B9463E4602
:100E4000A368002B00F0BC8041F00801218388F3E7
:100E50001188BFF36F8FA168002900F0BA800D6878
:100E6000002900F0B680D1F804803346524620466F
:100E7000C047002D76D02B6829461D46F0E701F0CB
:100E800007035A1F012A1BD8002221F00701062B55
:100E9000276889B2C4E9002209D13B4603E0628B8E
:100EA000013262831B68002BF9D141F002012183DA
:100EB00020460BF0AEF800287AD041F0200176E011
:100EC000042B0AD121F0070189B2218320460BF0BF
:100ED000A0F810B141F020012183218B01F0070A15
:100EE000AA454FD00027B946AAE7236921F0070198
:100EF00041F00601062DD3F8009021832DD1B9F1E0
:100F0000000F3FD041F00801218388F31188BFF31F
:100F10006F8F3A492046C84729E021F0070123692D
:100F200041F0040189B2042DD3F804902183E6D066
:100F300000273E464FF0040A82E721F007012369AB
:100F400041F0050189B2052DD3F808902183D6D050
:100F500000273E464FF0050A72E700273E464FF055
:100F6000060A6DE72B4687E7B9F1000FD1D1EFF301
:100F70001188202383F31288BFF36F8F238B23F014
:100F800008032383258BEA062ED525F0100323833F
:100F900005F007056669218B002EBFF670AF0023B0
:100FA0002768C4E9003321F0070141F001012183E2
:100FB000218B01F0070AAA454FF000097FF440AFEA
:100FC000002F9CD041F00801218388F31188BFF3E2
:100FD0006F8F002FC8D03D683946334652462046B1
:100FE0000BF043F82F46F4E7AB067FF51BAF25F077
:100FF0002003238305F0070500E700BF97C000002A
:101000002DE9F047DFF85880044607464FF0010904
:1010100014B93846BDE8F08794FAA4F5B5FA85F519
:1010200009FA05F32E0108EB05156FEA030A24EA15
:1010300003042B7B002BEBD058F806301B694BB90F
:101040004644042273682846196807EA0A070BF029
:10105000AEF9DDE7284698470028D9D1F0E700BF70
:101060003C00010030B51049104889B000220EF054
:1010700030FC0F4D0F494FF400320023CDE9062319
:1010800000240E23CDE90334CDE901440A4B00943A
:101090004FF44072284606F0FFFC084928460EF03F
:1010A0006FFA204609B030BDC1100000C00F00200B
:1010B000280B002000290020ED1300002208010069
:1010C000014806F0FBB900BF480A00202DE9F047AF
:1010D000804621480F460BF058F90646002833D0C9
:1010E00000252846BDE8F087237B83B12368DB68B1
:1010F0000BB120469847636883F8069023681B6904
:10110000D3B963680422196820460BF050F9013600
:1011100010345445E8D3B8F1000FE2D0002DDFD0F1
:101120002846FFF76DFF0546002FF7D000214FF44A
:10113000A4700EF0DDFAF1E7204698470028E0D0D1
:1011400009FA06F31D43E2E7044CDFF814A0054654
:101150004FF00109DDE700BFD41300203C0001007F
:101160004C000100014B53F8200070476C00010057
:1011700008B5034608462BB1044A136000F02AFC68
:10118000002008BD6FF01500FBE700BFA805002098
:1011900010B5044C237813B9034806F08FF90123E6
:1011A000237010BD98280020480A002010B504467E
:1011B0000B480BF0EAF85CB1BFF35B8F094B53E8C7
:1011C000001F013943E80012002AF8D1BFF35B8FFA
:1011D00005480EF08AFB0548BDE8104006F06EB9E0
:1011E000CC130020D0130020C00F0020480A00209C
:1011F0000020064BBFF35B8F014653E8000F43E826
:101200000012002AF9D1BFF35B8F7047CC13002086
:1012100070B5FFF7EDFF084C084E0546B44200D309
:1012200070BD63685B792BB123685B6813B1294695
:10123000204698471034F1E73C0001004C000100C3
:1012400010B5044C044920460AF05AFD034B1C60BB
:1012500010BD00BF5409002058000100C413002035
:101260000D4A0E48002310B513700D4A13600D4A45
:101270004FF400411360FFF77BFFFFF7E1FF0A4BDC
:101280000A4918468B4200D310BD1A1A5C68121125
:10129000013222711033F5E79928002087C300003E
:1012A000CC130020D01300203C0001004C000100B2
:1012B00001460022014800230AF043BD54090020E2
:1012C00001480AF0DCBD00BF54090020024B014672
:1012D00018680AF02FBE00BFC413002001480AF0AE
:1012E00064BE00BF5409002070B5294B187800284F
:1012F0004DD0FFF7E5FF0546002845D1254B264C8C
:101300001B68002B19DD0EF09CFA4FF47A72A0FBDB
:10131000020302FB0131C30BD4E9002043EA41433D
:101320009B1A4FEAD13140F2E93261EB000193425E
:1013300071F1000101D3FFF76BFFD4E9003213F51F
:101340007A7342F10002C4E90032BDE87040FFF751
:10135000C5BF63685B7923B1236829461B682046B3
:1013600098471034B442F4D32846FFF7AFFFBFF3D9
:101370005B8F0A4B53E8001F013943E80012002A33
:10138000F8D1BFF35B8FB9E7054C064EEAE770BDB5
:1013900098280020CC130020B80F0020D013002084
:1013A0003C0001004C00010070B50D4D297861B979
:1013B0000120FFF78BFE0B4C0B4EB44206D3FFF718
:1013C00093FF0028FBD101232B7070BD63685B790C
:1013D0001BB1236820469B6898471034EDE700BF97
:1013E000992800203C0001004C00010000212DE95B
:1013F000F0470846FFF76AFE044658B340F26768B4
:101400004FF000090EF09CFB1B4B1C4A1B5813604D
:1014100033B11B4B1B68092B02DD1A4806F04EF84E
:10142000194FDFF860A0002544B12046FFF7E8FD22
:10143000044618B94FF0FF384FF0FF39FFF754FF5B
:10144000064628B9B5B942464B46504606F06AF8FA
:101450003546E9E74FF0FF384FF0FF39D2E72B6808
:101460009B691BB100221146284698471035BD42A2
:10147000F5D3E8E7054DFAE708000000C81300209F
:10148000D0130020480A00204C0001003C0001005D
:1014900013B518480AF079FF174B1B7873B1EFF3B7
:1014A0001184202383F31288BFF36F8FFFF71CFF93
:1014B00084F31188BFF36F8F02B010BD0F4B1B6810
:1014C000002BF9D050B900220023CDE900230C48AD
:1014D0004FF40042002307F083F8EDE70928EBD131
:1014E00007480EF002FA074802B0BDE8104005F0C8
:1014F000E5BF00BFD013002099280020C8130020AA
:10150000C00F0020480A002010B5064B1B68044697
:1015100098472146A06004480AF092FCBDE81040BC
:10152000FFF7B6BFA805002054090020044A054B68
:101530009B1AB1EBD30F34BF52F831000020704733
:10154000BCFF00003C0001002DE9F04F8FB004AF5C
:10155000C1F34A28B8600D4691467B600C0DB8F186
:10156000000F63D0002607F114034FF0040B4FF077
:101570000A0AC7F80C80C7E907667E620193CDF8B6
:1015800008B0CDF800A007F11C03F96832464846C0
:10159000FFF70AFAB0F5006F03461CD36C468AB019
:1015A000D9F8041004AB2648C3E9050140F2FF71E5
:1015B000D9611A464FF400711984224B42F8103F4A
:1015C000214833464FF41251FFF7BEFFA5462C3792
:1015D000BD46BDE8F08FC0F30A0804F117001844B7
:1015E00020F0070080083B60FFF762FE68F3532598
:1015F000044690B13B68154AC7E9083600F110016E
:1016000007F11403F961CDE900A3CDF808B0F9683A
:1016100007F11C034846FFF7C7F968F353257B68B9
:10162000B9682A4620460AF0E2FED0E704F1170026
:1016300020F007008008FFF73BFE0446EDE700BFFF
:101640003708010004000001CCFF0000C1C3000006
:10165000406820B1034BC01A40F3CF0070474FF0F1
:10166000FF307047BCFF00000EB403B503AB01466A
:1016700053F8042B0448019301F0BEF902B05DF861
:1016800004EB03B0704700BF03C50000CA0605D4D1
:101690008B064CBF02490349FFF7E6BF704700BF06
:1016A00041070100400701002DE9F04F89B09B463A
:1016B000149B06939DF84CA0159B0593169B179EB3
:1016C000049304460D469046BAF1000F00F09D8049
:1016D00006F4807307930AF068FE06F002090246DA
:1016E00000283ED091492046FFF7BEFF0746B9F1DA
:1016F000000F08D016F0440F35D18D492A462046F8
:10170000FFF7B2FF074406F0010353B1894B8A4942
:1017100053F82A20894B2046002A08BF1A46FFF7B3
:10172000A3FF06F48073002B49D006F00803002BBA
:1017300063D1B8F1000F66D0814942462046FFF7D9
:1017400093FF0546069B3D44002B6DD1049B002B67
:1017500073D1F30700F1E48031462046FFF796FF8E
:10176000D8E00746C3E7774B18680028CAD0764B05
:101770004FF47A791B68B5FBF3F54FF46163B5FB61
:10178000F0F100FB115509FB05F54FF03C0CB1FBE6
:10179000F3F203FB1211B5FBF0FEB1FBFCF300FB0F
:1017A0001E550CFB131109FB05F50091B5FBF0F577
:1017B0006649CDE901E52046FFF756FFA2E706F0AE
:1017C0000803EBB1624B634953F82A202046FFF728
:1017D0004BFF0546B8F1000F05D059494246204657
:1017E000FFF742FF0544BBF1000FABD05A495A4600
:1017F0002046FFF739FF0544A4E74FF0000BE1E76F
:1018000006F00805E6E745469CE7BBF1010F069B9D
:1018100006D1002B64D1049B002B7BD000250CE06B
:10182000002BF8D04D485CE04D48069B4D492246C0
:101830000AF0FEF8049B002B68D0DFF82C81DFF85B
:101840002C91049F3146102F204628BF1027FFF708
:101850001DFF4FF0000B5D4545DC059B49461A789E
:101860002046FFF701FF4FF0010B1BF0070F03D1DC
:1018700041462046FFF7F8FE5F453BD9059B4946A8
:1018800013F80B202046FFF7EFFE0BF1010BBBF125
:10189000100FEAD1364920464FF0000BFFF7E4FE67
:1018A0005A46059B9A5CA2F120015F2928BF2E228F
:1018B00030492046FFF7D8FE0BF1010BBBF1100FAA
:1018C0001DD01BF0070F03D141462046FFF7CCFE89
:1018D0005F455A46E5D841462046FFF7C5FEEBE78F
:1018E0001F485546A1E741462046FFF7BDFE0BF1D4
:1018F000010BB0E720492046FFF7B6FEC5E7059B80
:101900003B440593049BDB1B04939AD1BAF1000F6F
:101910007FF41FAF204609B0BDE8F04F0AF0E4BDE8
:10192000064A05492046FFF79FFE15E77B080100A0
:101930007F0801007C000100AE0401007608010070
:10194000A4080100DC130020D8130020880801003F
:1019500090000100A8080100AE08010039C5000090
:1019600003C50000F9290000BB080100B30801000D
:10197000BD080100BF080100B908010073B542F2BB
:101980000F738B4228BF0B4605680F4A044605219A
:10199000684609F027FB63680C495B6806460B2222
:1019A00028460AF093FD63683246694628465B681C
:1019B0000AF08CFD636806495B681B2228460AF022
:1019C00085FD02B070BD00BFCB0A0100DE0801003A
:1019D000C2080100074A00210123904206D8064AA6
:1019E00001B901231360054B1860704740085B0084
:1019F0000121F2E740420F00D8130020DC13002041
:101A0000014B01221A7070479A280020014B0020D8
:101A100019607047F41300200148FFF7AFBF00BF03
:101A2000C000010010B5064B18680C46FFF79AFB82
:101A300021460346BDE8104002480F22184700BF68
:101A4000F4130020C0000100F8B5094D094B0A4EFF
:101A5000D5E9004701221A700CB92C60F8BD214667
:101A600030463A4600F01EF8241A0644F4E700BF58
:101A7000E81300209B2800209C28002010B9074B69
:101A800018707047064B1B781BB141F288300DF07F
:101A90001CBBA42000210DF02BBE00BF9A28002003
:101AA0009B2800202DE9F047DFF878901E4F8046F4
:101AB0000E46042499F80050A5B90DF0F9FA324603
:101AC00082464146284605F0D1F8054650460DF0BD
:101AD000F7FAE5B101233B7099F8003073B930464D
:101AE000BDE8F08732464146002005F0BFF80546C4
:101AF000EFE72046FFF7C2FF651E2C46002005F0E9
:101B0000F9F80028EBD03B78002BF2D1E7E73B78DF
:101B1000002BE4D0013C2046FFF7B0FF3B78002BC0
:101B2000C8D1DCE79B2800209A280020014B0360E5
:101B300000207047D000010007B51B491B480AF080
:101B4000E5FE70BB1A4919480AF0E0FE48BB194986
:101B500016480AF0DBFE20BB174914480AF0D6FEEF
:101B6000F8B90146154A11480BF0C8F9C8B9024640
:101B700013490E4801230BF09CFA90B901230093FE
:101B8000014602230948EF220AF0CBFD48B9074875
:101B90000AF0F0FD28B9054803B05DF804EB0AF03F
:101BA00019BE03B05DF804FB20060020900A002057
:101BB00008060020F0050020D8050020AC05002014
:101BC0001A09010008B5044809F08AFF034809F022
:101BD00087FF002008BD00BF6A0901009F090100BE
:101BE000014806F0FDBD00BFD000010038B5044635
:101BF00018B90F4B0F485B6898476168B1F5683FAB
:101C000010D0B1F5680F0DD00B4DA9420AD011F4D8
:101C10006861206807D0014608480DF013FB0023D7
:101C20002360656038BD14220DF016FFF9E700BF90
:101C300070080020CD0901002C5F5CA9F818002075
:101C400008B520B34368B3F5683F10D1012203689B
:101C5000BFF35B8F53E8001F002903D143E8002046
:101C60000028F7D1BFF35B8F0DD1002008BD094AD2
:101C700093420AD000684FF0FF324FF0FF3305F077
:101C800023FB0028F1D00448F0E70448EEE76FF4A6
:101C9000E040EBE72C5F5CA9E98FFFFFEA8FFFFFD5
:101CA00008B5D8B14368B3F5683F10D10022036886
:101CB000BFF35B8F53E8001F012903D143E80020E5
:101CC0000028F7D1BFF35B8F0BD1002008BD074A76
:101CD000934208D0006805F06FFBF6E76FF4E04030
:101CE000F4E70348F2E70348F0E700BF2C5F5CA984
:101CF000E98FFFFFEA8FFFFF10B5044618B91D4BAF
:101D00001D485B6898476368B3F5683F2FD0B3F50B
:101D1000680F2CD0194A934219D1236803BB184885
:101D20004FF0FF324FF0FF33214605F0D1F908B9EB
:101D300023681BB90F4B13485B689847206814222F
:101D400000210DF089FE4FF46863636008E0B3F58D
:101D5000683F0DD83A2B03D040F6BA629342DED1E9
:101D600020680DF0CEFA636843F03A03636010BD5B
:101D7000054AF3E770080020CD0901002C5F5CA93B
:101D8000F8180020F30901003A00003A08B50649A6
:101D90000648402314220DF047FABDE808400449E4
:101DA000044806F0E1BD00BFF8130020F818002039
:101DB000D8000100EC00010008B50348034A0021E7
:101DC000121A0AF0FDFB08BD280B0020DC280020B9
:101DD0000748084A084908B5121A0AF0F3FB0748F1
:101DE000074A0849BDE80840121A0AF0EBBB00BFD9
:101DF000C0040020240B002040130100B804002080
:101E0000C0040020381301002DE9F047064600AF5A
:101E10000C46002936D0E9468AB0D1E90012A36801
:101E20006D462148A8464FF0050AC5E90501C5E9F8
:101E3000072348F810AF1D48424600234FF42151B4
:101E4000FFF782FBCD46D4E903126369AD4618481B
:101E5000C5F810A0C5E90501C5E90723134800230B
:101E600042464FF42151FFF76FFBCD46E369114A1B
:101E70000E4801210AF014FBA3690F4A0B48012107
:101E80000AF00EFB012E07D1EFF305830B4A07483A
:101E9000103B31460AF004FB2146304604F05AFF5D
:101EA000BD46BDE8F08700BF200A0100FCFF00002E
:101EB0004F0A01007E0A01008D0A0100BB0A0100E1
:101EC00030BFFFF7FDBF00BF2DE9F0410B4EDFF83B
:101ED000308006EB0807CC1B0546324609492046F0
:101EE0000DF092FDA01942460021083C0DF0B4FD12
:101EF000C5F8804007F10800BDE8F081000000004F
:101F0000080000004C000100054B5A699B689A428A
:101F10001FBF044A536843F080535360704700BFAB
:101F20001C1D002000ED00E070B5294C06460D4652
:101F3000284829490AF053FBA36AD9043CD525480F
:101F400026490AF04CFB1720A36A1A0504D521483C
:101F500023490AF044FB18201D4CA36A9B0512D5A7
:101F60001C4820490AF03BFBA36BA26A100409D568
:101F70001D4A184801210AF093FA1EB1A36A23F4FE
:101F80000043A3621920124CA36A590504D51148D5
:101F900016490AF024FB1A20A36ADA050ED50D486B
:101FA00013490AF01CFB1B20094A936A43F47F4340
:101FB000936200232B7070BD1620C5E7A36A9B04B3
:101FC000F2D504480B490AF00AFB1C20ECE700BFDD
:101FD00000ED00E0FCFF0000CE0A0100E40A010071
:101FE000F50A0100080B0100210B0100360B01006E
:101FF000510B0100690B010010B5204C204921480C
:102000000AF0EDFAA36A990136D51E481E490AF076
:10201000E6FA1E20A36ADA0104D51A481B490AF021
:10202000DEFA1F20154CA36A1B0304D51548184976
:102030000AF0D5FA2120A36A590304D5114815499D
:102040000AF0CDFA22200D4CA36A9A0304D50D485C
:1020500011490AF0C4FA2320A36ADB0304D5094816
:102060000E490AF0BCFA2420044A936A6FEA03433B
:102070006FEA1343936210BD1D20CBE700ED00E033
:10208000980B0100FCFF0000B00B0100C30B010026
:10209000DD0B0100FB0B0100200C01003A0C0100DC
:1020A0002DE9F843364D804689463648364917466D
:1020B0000AF095FAAB6ADE0627D5344931480AF0B2
:1020C0008EFA1124AB6A1D0704D531492D480AF058
:1020D00086FA12242A4DAB6A980718D52D4929484B
:1020E0000AF07DFA6E6BAB6A190646D52A4A254876
:1020F000334601210AF0D4F9B9F1000F03D0AB6ADD
:1021000023F08003AB62132403E01024DAE76FF0BE
:1021100015061B4DAB6ADA0704D5204919480AF0A9
:102120005EFA1424AB6A9B0604D51D4915480AF0D3
:1021300056FA1524124B9A6AD50602D49A6A900769
:102140000AD55B68190507D54146304600F078FA94
:1021500010B180F309880224094B9A6A920642BFA3
:102160005A6A22F400525A629A6A42F0FF029A6254
:1021700000233B702046BDE8F8836FF01506C2E7E8
:1021800000ED00E0FCFF0000650C01007B0C01008D
:10219000F50A0100AE0C0100C60C0100DC0C0100C8
:1021A000690B01002DE9F041664B8AB0D3F8048039
:1021B00000AF0446C8F30805002686F31188BFF374
:1021C0006F8F02F07F43B3F17F4F07D102F00C0312
:1021D000082B12D15C495D480AF001FA002634460A
:1021E0000023FB71EB1E092B00F28A80DFE803F06D
:1021F0000A80837C88888888888610074CBF0C46B4
:102200000126EDE7524951484E4D0AF0E8F9002306
:10221000FB71EB6A9A0705D54E494C480AF0DFF985
:10222000002332E0EB6A002B01DA4B49F5E7EB6A59
:102230005B00F5D5494945480AF0D1F96B69A269B7
:1022400043F480736B61BFF34F8FBFF36F8F6B6984
:1022500032F8022C23F480736B61BFF34F8FBFF30E
:102260006F8F4DF602739A4208D0AB6ADBB273B33C
:10227000FA1D01212046FFF713FF37E02368384A93
:10228000324801210AF00CF92368FA79DAB907F12A
:10229000080504F1200C206861682A4603C208344E
:1022A00064451546F7D17A6A002E45D0C2F308017D
:1022B00021B96FEA52226FEA42227A6207F10801DD
:1022C0001846FFF7A1FD2837BD46BDE8F081AB6A8F
:1022D00013F47F4F04D0F91D0120FFF725FE05E020
:1022E000AB6AB3F5803F9BD3FFF786FE0346CCE78E
:1022F000FA1D0021BEE7F91D0020EEE719498CE721
:10230000194A1A4B18F4F87FE8468AB018BF1346EA
:102310006A461749C2E905134FF400731384103D50
:10232000144BD56142F8103F084800234FF4115177
:10233000FFF70AF9C54673E722F4FF7222F00102A3
:10234000BBE700BF00ED00E0290D0100FCFF00002D
:10235000540D01006B0D01008C0D01009A0D010060
:10236000B90D0100D50D0100100D0100FB0C01009D
:10237000F90D010004000001044B5A6942F01002FB
:102380005A615A6922F008025A61704700ED00E074
:10239000EFF30880EFF3098101B57246FFF702FF02
:1023A00001BD00BF002080F31488BFF36F8F0F487A
:1023B00080F3088803F0C0FF00200D490860BFF3D8
:1023C0004F8F00F02BF8202080F3118809484FF43C
:1023D0000461401880F30988EFF314800221084358
:1023E00080F31488BFF36F8F00F0FAF88044002068
:1023F00094ED00E0C03200200749D1F8902000237E
:10240000C2F307221846934200DB7047C1F89830A8
:10241000C1F8A0000133F6E700ED00E008B572B6A0
:10242000002383F31388FFF7E7FF144B4FF0FF32CD
:10243000C3F88020C3F88420C3F88820C3F88C2018
:10244000C3F89020C3F89420C3F89820C3F89C20C8
:10245000C3F88021C3F88421C3F88821C3F88C21F4
:10246000C3F89021C3F89421C3F89821C3F89C21A4
:1024700062B6BFF34F8FBFF36F8F08BD00E100E07E
:10248000084B9B6883420BD1EFF3058343B1064BA6
:102490005A6842F080525A605A6A22F400425A62E4
:1024A00005F0B2BD1C1D002000ED00E015498A6852
:1024B0004FF030001044EFF3098C80E8F01F20202B
:1024C00080F31288BFF36F8F0F4F4FF000664A6999
:1024D0008A603E60D2F880000C4C2060D2F8840004
:1024E0000023C2F8843080F3118804B5104600F050
:1024F0000DF9BDE8044002F1300090E8F01F8CF3C4
:10250000098870471C1D002004ED00E0141900200C
:102510001EF0040F0CBFEFF30880EFF30980816910
:1025200011F8021C0229FFD001B572460AF04CF8DE
:1025300001BD00BF40B2002807DB044A4109012366
:1025400000F01F00834042F82130704700E100E0B6
:1025500040B200280CDB4309064900F01F0020337D
:102560000122824041F82320BFF34F8FBFF36F8FCA
:10257000704700BF00E100E0054B420900F01F007A
:1025800053F82220012303FA00F01040704700BFE7
:1025900000E100E040B20028A8BF00F1604001F176
:1025A0000101B8BF064B4FEA4111ACBF00F56140D5
:1025B00000F00F00C9B2B4BF195480F8001370477F
:1025C00014ED00E0044B054A23F07F039360BFF352
:1025D0004F8FBFF36F8F70470000000000ED00E0E9
:1025E00008B5FFF7EFFF074AD2F8883023F47003ED
:1025F000C2F88830FFF7E0FBFFF7EAFB00F05CF879
:1026000004F0CCFC00ED00E042F8203C009B42F8D6
:102610001C3C0A49019B42F8183C029B42F8143CBE
:1026200021F001014FF0807342F8043C42F8081C8D
:102630000023203A0265C0F884307047B10D0000D5
:10264000094A0346906870B113F1160F006F05D068
:10265000A0F140029A4205D8834203D2814228BFAA
:1026600000207047002070471C1D002008B515464B
:102670000C4A0D4B9060D0F880201A600E4600F096
:1026800045F82C4686F309880020044B98472046DD
:10269000002100220023024C20470000F5C5000065
:1026A000B10D00001C1D002014190020014B102248
:1026B0001A61704700ED00E0044800232021C21891
:1026C0000133302B82F80013F9D1704700E100E0AC
:1026D00008B5EFF30583064A103B02EBC30152F83D
:1026E000330049688847BDE80840FFF70DBC00BFCC
:1026F0002CFD0000024B034A0348012100F08AB878
:102700000000042000000020FC000100026F054BC7
:10271000403A1A60044A4021C3E9011218460121D7
:1027200000F082B81819002000000B1508B5034608
:102730001048D0F89020C2F30722013A934207D9FB
:102740000D480E4A012109F0ABFE6FF0150008BDDF
:10275000C0F898300A6822F01F021A4342F01002B3
:10276000C0F89C208A6842F00102C0F8A0201846F8
:10277000EDE700BF00ED00E0DCFF0000100E0100FF
:10278000F0B50E4685B01F4604460025B5420DDA69
:10279000606810B397B1431E18420AD0104A11481E
:1027A0002B46012109F07CFE6FF01502104605B0A2
:1027B000F0BD1F28F2D921680B42EFD123680193A5
:1027C00009F03BFFA36801A90343D0B20393FFF7CD
:1027D000ADFF10F1160FE7D0421C01350C34D5E7E0
:1027E000360E0100DCFF0000044B0522C3F89420E4
:1027F000BFF34F8FBFF36F8F704700BF00ED00E056
:10280000BFF35F8F024B0022C3F89420704700BFD4
:1028100000ED00E010B5034C01232278FFF7B0FF74
:10282000207010BDAC28002008B50B4A0023127898
:10283000FFF7A6FF10F1160F07D0084A0021D2F8C3
:102840009030C3F30723984200DB08BDC2F898001C
:10285000C2F8A0100130F2E7AC28002000ED00E043
:102860002DE9F0435E485F49D0F890300D68C3F31E
:1028700007239D4285B000F2B080FFF7C1FF496891
:102880000022954201F10C011BD1574C574F257086
:102890006846FFF74BF9DFF85881DFF85891064694
:1028A0000025AE4220D123784D490020D1F8902058
:1028B000C2F307229342C0F28A80FFF795FF0020FF
:1028C0004FE0C0F8982051F80C3C23F01F0313434D
:1028D00043F01003C0F89C3051F8043C43F001036E
:1028E000C0F8A0300132CCE7009800EB05114FEAA8
:1028F000051CCB683B40B3F5000F49D00AD8B3F5AF
:10290000001F31D0B3F5800F37D0B3F5801F13D03F
:102910000135C6E7B3F1007F43D0B3F1805F49D002
:10292000B3F1807FF4D150F80C3088684A6809F020
:1029300084FE40F0887009E050F80C3088684A68DE
:1029400009F07BFE40F0885040F43020039001A94C
:102950002078CDE90123FFF7E9FE002833DA6FF094
:10296000150005B0BDE8F08350F80C3088684A685F
:1029700009F063FE40EA0900E8E750F80C30886887
:102980004A6809F05AFE40F0C06040F40030DDE7CC
:1029900050F80C3088684A6809F04FFE40F08270A9
:1029A000D4E750F80C3088684A6809F046FE40F4D5
:1029B0008020CBE750F80C3088684A6809F03DFE6B
:1029C00040EA0800C2E7237801332370A0E7C1F88A
:1029D0009830C1F8A000013368E74FF0FF30C0E73E
:1029E00000ED00E008010100AC2800200000F0FF2D
:1029F0000000021100000811F0B587B007460E462E
:102A000014460021102268461D460DF025F80223C9
:102A10008DF802302A46054B019321466846CDE9E0
:102A2000047608F081FB07B0F0BD00BF5BC6000074
:102A300008B50649064821F00701C1F1005202F528
:102A4000802208F0B8FF002008BD00BF3F590020D9
:102A50002419002070B54169857A0C4E044659B19D
:102A6000437ADB0706D4242303FB0563DB691B6879
:102A70009B6898470023636105EBC505214606EB7B
:102A80008500BDE870400CF0D7BC00BF6C0A002088
:102A9000024B242202FB0030704700BF6C0A00206A
:102AA0002DE9F04385B005466846039190461C46E3
:102AB0000CF0C9FEDDE90067EFF31189202383F3F1
:102AC0001288BFF36F8F6B8A002B41D02A8A9A42FB
:102AD00025D900220023284604F0BEFC0446F0B1AC
:102AE00089F31188BFF36F8F039B002B41D03246CF
:102AF0003B4668460CF0CCFEA27A264B242101FB13
:102B000002332046DB691B6803A91D68DDE9002349
:102B1000A847606170BB2046FFF79CFF24E0698AEC
:102B20004B1E6B8289F31188BFF36F8F2B7D2A8A2E
:102B30002C6A1B3323F00303521A02FB0344154B88
:102B4000154AEB1A9B105343A3722B7DE372CBE71C
:102B500089F31188BFF36F8F23464246284604F05D
:102B60007BFC04460028BFD10024204605B0BDE808
:102B7000F0836361012300252381039B6382E27A52
:102B80006560294604F118000CF066FF6369258230
:102B9000E360EAE76C0A0020398EE33870B50D4C2B
:102BA000242500B970BD037A4668002BFAD0013B9A
:102BB000DBB20372002BF5D1C3604360837A05FB5F
:102BC00003439B6913B198473046EAE7FFF742FF9A
:102BD000FAE700BF6C0A00200E4A0123C2F8403514
:102BE0004FF080424FF08051C2F87835D1F8300173
:102BF000082808D1D1F83411052904D80648415CC9
:102C000009B1C2F838364FF080430122C3F880255D
:102C10000020704700E001407F0E010048B1054BE5
:102C2000054A1B68B3FBF2F35843044B43F001031E
:102C3000184770475C08002040420F005000010018
:102C400008B50448044A3F23C0E9002303F052FCBE
:102C5000002008BD30190020FFFF0F00F7B5064621
:102C60000D461446124F38460CF04BFAE0B1BB68E3
:102C7000AAB21B68314638469847002802DB00207C
:102C800003B0F0BD002CFBD1AC42F8D22F1B042FB7
:102C900028BF04270BF081FE3A46019001A93019A4
:102CA0000CF0B2FE3C44EFE76FF01200E8E700BF23
:102CB000A0FC00002DE9F04190F8283003F01F033C
:102CC000012B04460F4600F128061BD0022B05D02D
:102CD00043BB90F829100AF0D5F903E0818DC9B201
:102CE0000AF0ADF90546E8B1304609F097FE024614
:102CF00068688368A2B99B684BB13A463146BDE823
:102D0000F0411847818DC9B20AF080F9EAE76FF007
:102D100085030CF015FF0F4A13500020BDE8F08129
:102D2000DB68E9E794F82910204609F096FD024691
:102D30000028ECD0304609F071FE40B91369002B31
:102D4000E5D03A463146204698470346E1E7D36846
:102D5000F5E700BF0C0000002DE9F04F0446087EA7
:102D600030F0800893B00D46174640F09B8492B136
:102D70000846FFF713FF6B7ED80706D4990740F18A
:102D8000AA802B7E002B40F0A680204613B0BDE821
:102D9000F04F09F06FBE4B7E9A0705D5802803D10E
:102DA0002846FFF7FBFE96E09E0704F1280900F095
:102DB0006284002840F03484D9072FD52B8A082B51
:102DC00001D028460AE0EA681368A3625368C9F88C
:102DD0000430294609F050FC054610B1FFF7DEFE2D
:102DE0006FE2484609F01AFEE28D70B9B2B1294689
:102DF000A0690BF0EDF80146002800F0438420465E
:102E000013B0BDE8F04F0AF0C4BA3AB111462046FB
:102E10000AF0BAFA0546002800F034840CF090FE5F
:102E200094F82820B94E002312F0600F8351C2F3AA
:102E3000411307D0032B40F0B5810CF081FE6FF0F9
:102E400085033CE0484609F0E9FD94F82930002864
:102E500040F04081013B0A2BEFD801A151F823F04B
:102E6000BB2F00003B2E00003D3000003B2E000039
:102E70008D2E00003B2E00003B2E00003B2E00005C
:102E80000D2F00003B2E00006F2F0000A069618D08
:102E900003697F29D3F88030CFD8A28D002ACCD106
:102EA000E28D002AC9D194F82820D206C5D194F821
:102EB0003020022A05D10CF043FE4FF0FF3333508F
:102EC00018E01B070BD5C9B209F00AFE804648B1CD
:102ED000002D7FF465AF404613B0BDE8F08F0123AD
:102EE00084F8393094F83030012B0DD1638D5BB903
:102EF00084F830300CF024FE3358002B00F0DE83D1
:102F0000002D40F0D581DCE10123F1E7204609F0F6
:102F100003FC628DFF2A01468FD8E38D002B8CD1F4
:102F200094F82830D80688D194F83030002BC2D0DD
:102F30002AB1D2B2204609F08EFF0028BBD0618DA5
:102F400094F838308B42D5D0C9B2204609F08AFFB8
:102F500080460028BCD1628D002A14BF02230123C1
:102F600084F83030052120460AF09FFAC2E794F831
:102F7000283003F01F03012B7FF45FAFE38D002B9C
:102F80007FF45BAF628DFF2A3FF657AFA18DFF291B
:102F90003FF653AF94F83030022B8CD1D2B2C9B285
:102FA00020460AF074F910F1020F804640F0FF80CD
:102FB0000CF0C6FD46F800809CE7E38DA18D002B48
:102FC0007FF43BAF94F83030002B3FF474AF012B0B
:102FD0000FD100297FF46FAF12F01F020CD1638D67
:102FE000012B87D194F86C306FF3C30384F86C30F5
:102FF00080E712F01F0217D0022A7FF47BAFB4F8EB
:103000002AA0BAF1000F7FF475AF5FFA81F841464C
:1030100020460AF030FA03460CF092FD335001339B
:1030200006D14FF0FF3853E700297FF444AFD6E7CD
:1030300052464146204609F0F7FC5BE7E38DA18D3F
:10304000002B7FF4FAAE638D022B5FFA81F813D167
:1030500094F8283003F01F0358EA03037FF4EDAE21
:10306000A0690122090A09F018FD00287FF4E5AEE5
:10307000012384F839303DE794F8300000283FF40C
:103080001AAF01280DD100297FF415AF12F01F02ED
:103090000AD1012B7FF42EAF94F86C3043F0080373
:1030A000A4E712F01F0211D0022A7FF423AF002BF5
:1030B0007FF420AF414620460AF0C8F903460CF0E1
:1030C0003FFD33500133ACD00122B2E700297FF439
:1030D000F2AEDEE70A2B3FF6B0AE01A151F823F0C5
:1030E000113100003B2E00003B2E00003B2E000063
:1030F0003B2E00003B2E0000913100003B2E0000D3
:10310000773500003B2E0000A53500000C000000C4
:10311000E38DA18D022B7FF490AE94F83030002B1C
:103120003FF4C9AE012B10D100297FF4C4AE12F0D8
:103130001F020DD194F86C304FEA930808F0020892
:10314000C3F3001348EA030806E012F01F0210D090
:10315000022A12D04FF0000805F10C0A504609F07F
:10316000C7FAE38D98420ED20CF0EAFC6FF00B0325
:10317000A5E600297FF49FAEDCE7C9B220460AF03D
:1031800089F98046E8E74146504609F098FAB1E6E9
:1031900094F82820B4F82A80D1064FEA18235FFA61
:1031A00088F809D029462046FFF784FD8046B8F10B
:1031B000000F7FF48DAE9DE6013B0E2B3FF63DAE3A
:1031C00001A252F823F000BF053200004F32000088
:1031D000373300003B2E00003B2E00002F33000051
:1031E0002F3300003B2E00003B2E00003B2E000042
:1031F0003B2E00003B2E00003B2E00003B2E00002B
:103200008134000005F10C0A5046B4F82E8009F014
:103210006FFA80450AD2B4F82E80204609F07CFA75
:1032200048B101287FF409AE616F05E0504609F00E
:103230005FFA8046F1E7216F002900F0D0810A781B
:10324000424528BF4246504609F028FA52E6204639
:1032500009F062FA08F1010201900146D2B220465B
:1032600009F0D3FD824600283FF4E7AD05F10C08D4
:10327000D0F804B0404609F03BFA9BF80020904299
:1032800003D2404609F034FA02465946404609F056
:1032900005FADAF80CA0BAF1000F1CD1298AE38DE7
:1032A00099423FD80CF04CFC3358002B00F00682BA
:1032B0002846FFF773FC0CF043FC3358002B00F05A
:1032C000FD81484609F0AAFB0346A069002B00F0E7
:1032D000DC818021E2E1DAF8040083681B6B13B91A
:1032E000DAF800A0D7E7019998470028F8D0A0F1B4
:1032F000040B5BF8043F002BF2D01B78002BEFD0BF
:10330000404609F0F5F9DBF800301A78904203D214
:10331000404609F0EDF982B2DBF80010404609F0B2
:10332000BDF9E6E7C91A404609F0D3F9BAE72046E5
:1033300009F0F2F981E542460321204609F0CCFA72
:10334000824600283FF479AD09F063FBB4F82EB053
:10335000E0B9BAF81430ADF82830DAF8103005F1D9
:103360000C081B88ADF82A30404609F0C1F98345A6
:1033700008D2E08D9DF82820824228BF02460AA983
:10338000404661E7404609F0B3F9F3E79AF8153093
:10339000DAF808208DF81530C44B1340C44A4FF0BA
:1033A000000893428DF8148058D1102106A80BF024
:1033B0002BF8031EFFF641AD0AA9102BDFF8F4E24B
:1033C00006A88C4628BF1023434501F1020134D8DA
:1033D0009B0002338DF81430CDF804C005F10C0ABF
:1033E000504609F085F99DF81480D84528BFD84685
:1033F000404503D2504609F07BF98046B8F1020FF0
:10340000C34628BF4FF0020B5A4605A9504609F0A3
:1034100045F9A8EB0B08DDF804B04FEA58030BEBB5
:1034200058025A4522D118F0010F3FF463AD019ABA
:10343000D15C504609F03BF95CE510F8012B4FEAEE
:10344000121A02F00F021EF80AA01EF8022001F85C
:1034500002AC01F8012C08F10108B5E79AF8143024
:103460008DF81430DAF810300193B7E71BF8011B20
:103470005046CDE9022309F022F9DDE90223D0E725
:10348000204609F049F920B101287FF4D6AC636FDA
:1034900000E0236F002B00F0A2805B88B3F5007F73
:1034A0007FF6CBAC844B0A9300238DF82C30E36C71
:1034B00004F14C0898455BD105F10C0B584609F016
:1034C00017F9BDF82AA0E38D9A4528BF9A465045C2
:1034D00003D2584609F00CF982469DF8282052453F
:1034E00028BF52460AA9584609F0D8F8BAF1050F84
:1034F00094BFAAEB0A0AAAF1050ABAF1000F3FF439
:10350000F9ACE36C43453FF4F5AC002B3FF4F2AC6F
:103510005A7D0F2A14D11A7D19690193524528BF8B
:103520005246584609F0BAF8019B1A7D524594BF9D
:10353000AAEB020AAAEB0A0ABAF1000F3FF4DAACCE
:10354000226D9A423FF4D6AC1B68DEE75A7D0F2A03
:103550000AD11A7DBDF82A100A44ADF82A209DF838
:103560002C2001328DF82C20226D9A42A4D01B68A9
:10357000002BEBD1A0E794F8303094F838A0002B62
:103580003FF499ACE38D012B7FF457AC05F10C08A7
:10359000404609F0ADF8E38D9842FFF4E5AD5146A1
:1035A000404647E794F8283003F01F03012B7FF4CF
:1035B00082AC204609F03DFC00283FF47CACA38D92
:1035C0004268FF2B3FF639AC12799A42FFF435ACD2
:1035D0000F2B3FF632AC234493F83AA0D2E76FF0BA
:1035E000150875E42946204609F0D3FE00287FF42B
:1035F000E8ABA0690369D3F8801011F004017FF4EF
:10360000C4AB0AF0F9FC054600283FF45AAE014667
:10361000204609F0BEFE00283FF4B7ABFFF7D1BB50
:103620005A077FF54EAE80287FF44BAE2846FFF751
:10363000B5FA94F83930002B3FF44DAC94F82930AA
:10364000052B05D1618DA069C9B209F049FA074679
:1036500094F82930032B09D1638D022B06D1A18D5B
:10366000A0690022090A09F018FA0746002384F825
:103670003930B8462FE45B077FF523AE0028D2D15E
:10368000FFF78EBB6FF00B071BE6E38D002B3FF4BB
:1036900020AE17F10C0118BF0121C9010AF0D2FBBD
:1036A000FFF773BB6FF0040815E400BF00FF0200D2
:1036B00000030200890E0100050F0500E38D3BB1F8
:1036C000484609F0ABF900288CD12846FFF766FA86
:1036D000204609F0B9F900287FF4F3ADFFF755BB98
:1036E0000B78062B10B414D10369D3F89C20EFF3A8
:1036F0001184202383F31288BFF36F8F4B6800205F
:103700001860506A58B9C2E9083384F31188BFF3CE
:103710006F8F044810BC002200230BF0E3BD036050
:103720005362F2E7100A00202DE9F043614F85B0A3
:1037300020264FF0FF334FF0FF3201A9384603F047
:103740005FFD039B1B69D3F89C40236A5BB1EFF3D9
:10375000118386F31288BFF36F8F216AE1B983F377
:103760001188BFF36F8F9DF80430062BE1D0072B33
:10377000DFD801A252F823F0DF370000D337000072
:10378000FF370000E537000023380000193800003B
:1037900033370000AF380000606A0A682262814255
:1037A00008BF626283F31188BFF36F8F0B7ED1F87D
:1037B0001E205D06204609D1FFF7CEFA02460028FA
:1037C000C3D00721204609F070FEBEE709F02EFCA9
:1037D000F4E700220121204609F067FEA9E7002254
:1037E0001146F8E794F86C3043F0040301A984F81B
:1037F0006C30204609F09CF900220321EBE794F895
:103800006C306FF3820301A984F86C30204609F014
:103810008FF900220221DEE701A9204609F088F98C
:1038200087E794F86C30D4F818806FF3820384F83B
:103830006C30D8F81030D8F80890BFF35B8FD3F80D
:10384000A030BFF35B8F9A0727D5D9F83C304046AC
:103850009847D9F82430002140469847D9F840309D
:10386000054640469847D5B92946204609F0FAFA58
:103870000546A0B9A0690AF0DEFB831E58425841F4
:1038800094F86C3084F8305023F0680343EA401316
:1038900084F86C302A4604219DE74FF0FF35002262
:1038A0000421204609F001FE2A46072193E7029AE7
:1038B000062190E7100A002030B589B000220023CD
:1038C000CDE9062300246FF00703CDE90334CDE9E9
:1038D00001441A4B1A4900944FF48062194804F0CD
:1038E000DBF8194917480BF04BFE184B18498B426F
:1038F00007D3184B184900208B4210D3002009B081
:1039000030BD03F11402BFF35B8F52E8000F42E8B1
:103910000045002DF9D1BFF35B8F1833E7E703F1C2
:103920001402BFF35B8F52E8004F42E80005002D00
:10393000F9D1BFF35B8F1833DEE700BF29370000F2
:10394000402C0020F80F00209A0E01000C0B0020E4
:10395000240B0020240B0020240B002038B5024645
:103960000949054680690AF0CCFB044648B985F848
:103970003800284609F04DF9044610B1A8690AF04C
:10398000F3FB204638BD00BFE136000070B5084C9F
:10399000084E0546B44202D30024204670BD636839
:1039A00028461968FCF7C6FB0028F6D01834F1E762
:1039B0000C0B0020240B002070B50646EFF311819C
:1039C000202282F31288BFF36F8F1D4C236881F38E
:1039D0001188BFF36F8F5B6893F86C30DB0705D4F9
:1039E000BDE870402122002303F0A2BFEFF3118352
:1039F00082F31288BFF36F8F256865B983F311884E
:103A0000BFF36F8F2368D3B130460022BDE870400A
:103A1000002303F059BF61682A6822608D4208BF05
:103A2000626083F31188BFF36F8F686805F1080146
:103A3000C3699847034829460BF004FCE2E770BDD0
:103A4000381900209009002030B585B06C4684E814
:103A50000600054600221548002303A903F038FBA1
:103A60000246E8B9039B94E803005D60083383E8ED
:103A70000300EFF31180202383F31288BFF36F8FCD
:103A8000039B1A600A4A516861B9C2E9003380F3A6
:103A90001188BFF36F8F07480022002303F014FF43
:103AA00005B030BD0B605360F1E700BF9009002006
:103AB00038190020C004002038B54B7804694568E7
:103AC0002069202B08D0222B19D00CF039F8114B8B
:103AD0006FF085021A5010E0CB88072BF5D1D36820
:103AE0001A6842609A8802819B79837209F0FEFC11
:103AF00022460821284609F0E6FC002038BD4B8804
:103B00008381C3F3400203F0010302764376224629
:103B10000921EFE70C00000008B51346026910699F
:103B20004A78212A13D133B90CF00AF80B4B6FF005
:103B30000B021A5009E0CA88072A00F1040128BFC5
:103B4000072203F10C0008F0A9FD002008BD0BF0CE
:103B5000F7FF024B6FF08502EBE700BF0C0000009F
:103B600073B504698DF807102025EFF3118685F3EE
:103B70001288BFF36F8F0122E06B0DF1070108F08F
:103B8000ADFB86F31188BFF36F8F012812D00BF0C5
:103B9000F1FC08B9A37EABB90D4BBFF35B8F0122DB
:103BA00053E8001F002903D143E800200028F7D183
:103BB000BFF35B8F2122002304F1480003F084FE51
:103BC00002B070BD002121200BF092FDCDE700BFB7
:103BD0004019002038B505690E49EB6B0024C3E994
:103BE0000144DC606B6B05F14800C3E90144DC6013
:103BF0000BF0A7FC05F1780007490BF076FC0749AC
:103C000005F124000BF071FC284609F06FFC2046FA
:103C100038BD00BFC1D6000069D80000F5D800004B
:103C2000F8B50369BFF35B8F03F1A005D3F8A030AB
:103C3000BFF35B8FC3F38003994200AF0C4617D1EB
:103C4000174A184B6E4688B0002908BF13466A46CB
:103C50001549C2E905134FF400739383134B42F8DF
:103C6000103F134800234FF4E451FDF76DFCB546B7
:103C7000BFF35B8F5CB155E8003F43F0040345E8B8
:103C80000032002AF7D1BFF35B8FBD46F8BD55E87F
:103C9000003F23F0040345E80032002AF3D0F6E7A2
:103CA000B20E0100EF0F0100B90E01000300000188
:103CB0002C0001002DE9F0470546D0F808A0894600
:103CC00090461F4609F06EFF0446C0B1067DF3071B
:103CD00009D5037E1648174A012108F0E1FB6FF071
:103CE0007700BDE8F0873B464246494609F014FF9D
:103CF00040B9237E104A0E48012108F0D1FB6FF035
:103D00001200EEE79DF8203084F8198026F00606B0
:103D1000678323772675DAF81830214628469847B6
:103D2000227DB0FA80F35B0963F300022275D8E7C5
:103D30002C000100CB0E0100E50E010070B5054618
:103D4000866809F02FFF0446D0B1037DDB0708D455
:103D5000037E0D480D4A012108F0A2FB6FF07700A9
:103D600070BD0146F3692846984738B1237D03F0BA
:103D70000103227D63F300022275F1E70346F8E7B1
:103D80006FF01200ECE700BF2C000100070F0100EC
:103D9000F8B587680546FB6B0C469847286909F01B
:103DA000EFFED0B12146284609F0FCFE0646B8B128
:103DB000037D9B0705D0037E0B4A0C48032108F0C6
:103DC0006FFB346824B1BB683146284698470446E7
:103DD00028463B6C98472046F8BD4FF0FF34F7E784
:103DE0006FF01204F4E700BF220F01002C00010065
:103DF0002DE9F341D0F808801746D8F83C30054645
:103E00000E4698470C48002200233946FEF748FE2C
:103E1000044670B9094A0A4800963B46012108F059
:103E200049FB2846D8F840309847204602B0BDE804
:103E3000F0810676F5E700BF6C0A0020430F010011
:103E40002C0001004FF08053D3F83021082A06D10E
:103E5000D3F83431052B04D8034AD05C70470020D6
:103E600070470120704700BFDE10010010F0080FFE
:103E70000B4B42B20CD100F00F00002A4FF014029D
:103E800002FB0033B4BFD3F80806D3F80807704725
:103E9000002AB4BFD3F8A806D3F8A807704700BF1C
:103EA00000700240F8B50246EFF31185202383F33A
:103EB0001288BFF36F8F00F008070AF080F901261F
:103EC000864012F07F0F1E4B6FEA060432D057B1C6
:103ED0001A6822401A601B4BC3F86C6485F3118882
:103EE000BFF36F8FF8BD184F396821FA00F0C00793
:103EF0000AD419682140196014490B68120654BF8E
:103F0000234033430B60E6E72140396051B2C94397
:103F100022F08000C90F00F2DA30090101EB400104
:103F20000848C0F80018D0F8041841F00201C0F8A1
:103F30000418DEE7196821401960002FCBD1DBE7B8
:103F4000A0190020007002409C190020A419002034
:103F5000EFF31180202383F31288BFF36F8F0A4B96
:103F6000D3F8001C032261B949F27531C3F8001C73
:103F7000C3F8142DC3F8001C80F31188BFF36F8FB2
:103F80007047C3F8142DF7E700E00640EFF3118007
:103F9000202383F31288BFF36F8F0A4BD3F8001CE2
:103FA00061B949F27532C3F8002CC3F8141DC3F887
:103FB000002C80F31188BFF36F8F70470022C3F885
:103FC000142DF6E700E0064070B502460AF0F7F857
:103FD000EFF31185202383F31288BFF36F8F531EF5
:103FE0000124062B04FA00F40FD80E4E0E4B316854
:103FF0001B680B43C34013F0010306D10B4802F5C5
:104000009472214340F822303160094A13682343F7
:104010001360084B8022C3F8042185F31188BFF395
:104020006F8F70BD9C190020A41900200070024001
:10403000A019002000E100E0F8B50306044623D4EF
:1040400010F0080720D100F00F02920002F1804228
:1040500002F51C32D2F84434B3B1EFF311862023B9
:1040600083F31288BFF36F8F0AF0A9F8084DC2F8E6
:10407000A074012303FA00F12B6823EA01032B60EB
:1040800086F31188BFF36F8F024BC3F81845F8BD54
:10409000A41900200070024008B50B7E012203F035
:1040A0000F0013F0800F02FA00F2124B12D0D3F877
:1040B0001005104218D00B7E1A0709D40D4AC2F819
:1040C0000C3543F48073C2F80C35087EFFF7B4FF5B
:1040D000002008BDD3F814051042ECD1D3F8140524
:1040E0000243C3F81425E6E7D3F810050243C3F8EA
:1040F0001025E0E7007002400B7E064A13F07F0FA8
:104100000BBF012343F480735365C2F818350020B8
:10411000704700BF0070024070B506460D4609F0BA
:1041200041FD044609F047FD28BB204609F066FD25
:1041300008B3802D16D1437E9A0744BF0E4A1570EE
:104140005B070FD50D4B1B7813B90D4B01221A6578
:10415000204609F04FFD002201463046BDE8704080
:1041600009F065BD2846FFF72FFF20460121BDE875
:10417000704009F024BD70BDAF280020B328002096
:104180000070024070B506460C4609F00BFD05466E
:1041900009F011FD20BB284609F030FD0146F8B1B9
:1041A000ACB9437ED8071BD49A0704D50D4B1C70BD
:1041B0000D4B0122DA644B7E5B0708D50B4B1B7855
:1041C00073B130460022BDE8704009F030BD204692
:1041D000FFF7FAFE28460121BDE8704009F0EFBC68
:1041E00070BD00BFAF28002000700240B42800203E
:1041F00008B5054A0548032109F0E9FF0AF045FF23
:1042000002F09EFC002008BD710F01003400010087
:1042100038B545682C4654F8040B01F0C1F80B4B37
:104220000022186001212720FEF7B4F9204602F091
:1042300051FC05F1080002F08FFC0AF01FFF044A50
:104240000448032109F0C3FF002038BD54190020A1
:104250007A0F0100340001000346024A024801219E
:1042600008F01EB9860F010034000100012810B5C6
:10427000014602D0022807D0A0B90C4BBDE810407F
:104280001868002209F0C7BC094B0A4C00221A70BA
:10429000094BC4F800332720FEF74CF90123C4F87A
:1042A000043510BDBDE81040FFF7D6BFA8190020A7
:1042B000B028002000700240FDFFDF0101460148E8
:1042C0000BF090BB580A002008B5054B1970054B40
:1042D0001B7813B10420FFF7F1FF002008BD00BFD9
:1042E000B1280020B228002010B50469087E0D4ACC
:1042F00009F065FF012303FA00F01368034313601C
:1043000003F088FD4020FFF7D9FF4FF0FF324FF058
:10431000FF3304F18401044803F04AFB03F08EFDEF
:10432000002010BD98190020640A00202DE9F04FEC
:104330004F4AD0F81080064689B04E48032109F054
:1043400046FF4D4B1E6008F184000AF0DAFF0022A0
:104350000023CDE9062300246FF00703CDE90334E1
:10436000CDE90144454B464900964FF4007245485B
:1043700003F092FB444F45494248DFF814A1DFF8AF
:1043800014B10BF0FDF83A69434B134043F4820338
:1043900043F040033B61B9463C763946304609F06C
:1043A00013FC054680B13D4A3248012109F00FFF58
:1043B000284609B0BDE8F08F13690AEA030343EA0F
:1043C0000B0313612037E7E70134092C10D009EB08
:1043D0004412082C937C43F040039374ECD1D9F839
:1043E00010312F4A1A402F4B1343C9F81031E9E717
:1043F0002D4C2E4B2269DFF8A8A0DFF8A8B013409F
:1044000043F4041343F0400323610746A14667F0D9
:104410007F0323762146304609F0D6FB1C4A054629
:104420000028C0D10137092F19D009EB4711082FF7
:104430008B7C43F020038B7408D1D9F810310AEA41
:10444000030343EA0B03C9F8103106E00B6913407C
:1044500043F4C02343F040030B612034D7E798F8BE
:10446000803023F0720343F0720388F880309FE7B6
:104470009D0F010034000100A819002059450000DB
:104480008030002088100020CC1A0020A50F0100E9
:104490000000F9FF400006000000BEFFAE0F010063
:1044A0000000F7FFFF010800AC1900200000DEFF4C
:1044B00010B50C462046114609F0A2FB207E09F0FB
:1044C0007EFE0146034809F084FE0120FFF7F6FE58
:1044D000002010BDF01B002008B5064A0B7EC2F874
:1044E0000C3543F48073C2F80C35087EFFF7A4FD49
:1044F000002008BD0070024010B50C7E4FF0FF3266
:104500004FF0FF33114803F00DF82046FFF7CAFCC7
:1045100004F00F02012393400D4A14F0800F14BFE2
:10452000D2F81015D2F814156FEA030315BF0B402B
:104530000B40C2F81035C2F81435044802F0BEFF33
:10454000044B8022C3F80421002010BD380A00204B
:104550000070024000E100E02DE9F04FDFF8FCA21E
:10456000BF4D87B004464FF0FF384FF0FF390022AF
:10457000CDE900894FF0FF3150460BF03AFA4FF089
:10458000FF3150460BF031FA0746380733D5B54AAC
:10459000B548032109F01BFEB44842464B4602F0E1
:1045A000C1FFEFF31182202383F31288BFF36F8FD3
:1045B000AF4B1B787BB1D5F8003413F400730AD1EC
:1045C0000121C5F82C15D5F82C15D5F8001489054E
:1045D00048BFC5F82C3582F31188BFF36F8FA3480D
:1045E00002F06CFF01212046FFF71AFB0022032195
:1045F000204609F010FBFB060DD59E4A9A48032180
:1046000009F0E5FD00212046FFF70AFB0022022108
:10461000204609F000FBBE060DD5974A92480321BB
:1046200009F0D5FD00212046FFF7FAFA0022022109
:10463000204609F0F0FAB8074FD4F90710D5BFF3B8
:104640005B8F8E4B002253E8006F43E80021002966
:10465000F9D1BFF35B8F4FF00108002E40F0B2801C
:104660007A0740F1E380864B00261E70D5F880045F
:10467000C0B28DF81000D5F88414C9B28DF81110AD
:10468000D5F88834D5F88C2443EA02239BB2ADF8E0
:104690001230D5F89024D5F894C442EA0C22ADF833
:1046A0001420D5F89824D5F89CC442EA0C2292B282
:1046B000DFF8D0C1ADF8162010B9052900F09980B7
:1046C000714A8CF80060D5F8703412789A4240F044
:1046D0009B806E4B00221A70A4E06D4BBFF35B8F82
:1046E000002253E8008F43E800210029F9D1BFF3ED
:1046F0005B8F4FF0010BB8F1000F9ED098FAA8F92C
:10470000B9FA89F90BFA09F3B9F10F0F28EA03088E
:1047100016DDA9F11006F6B23146204609F042FA3C
:10472000814609F067FA002840D15A4A4E4833467C
:10473000012107F0B5FE31462046FFF723FDDAE7F9
:1047400049F080063146204609F02CFA029009F023
:1047500051FA50B9504A44483346012107F0A0FEAF
:1047600031462046FFF7D8FCC5E7039000210298A8
:1047700009F025FA039B00221946204609F057FA52
:10478000B9F1000FECD13E4B494683F800B020460A
:10479000C5F850B009F006FA09F02CFA01460028D5
:1047A000DED04A46204609F042FAD9E702900021BD
:1047B000484609F004FA029B00221946204609F0F7
:1047C00036FAB8E796FAA6F3B3FA83F308FA03F2D7
:1047D0000F2B26EA020606DDA3F11001C9B220461E
:1047E000FFF7D0FC39E743F080012046FFF794FC47
:1047F00033E701218CF80010C2B903F07F03ADF854
:104800001230ADF8142064E7204A012313708CF8AD
:1048100000304FF4A063ADF81030D5F87034ADF827
:104820001230059604A9204609F028FA7B067FF588
:104830009AAE206984304FF0FF324FF0FF3302F020
:1048400043FD164E094F316861BB154803F076F8F9
:104850002069843002F0B0FD85E600BF580A0020D0
:1048600000700240CA0F010034000100380A002025
:10487000B0280020E10F0100F70F0100F01B00201D
:10488000B4280020B3280020B1280020B22800203E
:10489000EC1B0020281001000F10010098190020C7
:1048A000640A002091FAA1F8B8FA88F8B8F10F0F5D
:1048B0004146C6BFA8F11001C9B241F080012046AF
:1048C00009F070F9814690F818B04FF0FF324FF0C0
:1048D000FF33384602F026FE5846FFF7E3FA384623
:1048E00002F0ECFD0F4B8022C3F80421494620461C
:1048F00009F0B5F90021484609F061F9BFF35B8F73
:10490000012303FA08F3084ADB4352E8000F18407A
:1049100042E800010029F8D1BFF35B8F32681340F1
:10492000336090E700E100E0EC1B00204FF0805383
:10493000D3F83031082B02BF024B0022C3F81C2CE5
:10494000704700BF007002402DE9F04105464FF06E
:10495000FF324FF0FF33414802F0E4FD404B80222C
:10496000C3F884212720FDF707FEA8B13D4F3E4B39
:104970003C681B68240C24041C434FF00108002CE5
:1049800037D13A4E40F2FF133B602720C6F804456A
:10499000FDF7DEFDC6F80043354A13788BB1334B83
:1049A0000021C3F808110121C3F80026C3F804163A
:1049B0005960D3F808110029FBD00021C3F8081171
:1049C00011702A4B0024C3F80045FFF7AFFF2348BE
:1049D00002F074FD21462846FFF7B0F9F0B1254AF0
:1049E0002548012109F0F3FB6FF004052846BDE8D6
:1049F000F08194FAA4F6B6FA86F60F2E3346C6BFB7
:104A0000A6F11003D8B243F08000030701D4FFF7EA
:104A100049FA08FA06F624EA0604B0E72846802197
:104A2000FFF78CF905460028D9D1144B14491E68AC
:104A3000304607F0CBFB10F1780F044603D1304627
:104A400007F0A0FB0446002CD0DA0E4A0A482346A1
:104A5000012107F025FD2546C8E700BF380A0020E0
:104A600000E100E0A4190020A0190020007002401D
:104A7000AD28002045100100340001005419002029
:104A800044190020681001002DE9F04F474BDFF872
:104A900020B1D3F85421DFF81C8187B01AB300226B
:104AA000C3F85421D3F8042391021CD5D3F8C034A1
:104AB000002B14BF4FF001224FF480723E4B9B68D5
:104AC0003BB99BF8000009F07AFB0123834022EAFE
:104AD0000302D8F800301343384AC8F8003013688E
:104AE00023F001231360314BD3F8604134B100222D
:104AF000C3F86021D3F86C44C3F86C44D3F8282180
:104B00004AB10022C3F828212D4B187809F057FB31
:104B1000012383401C439BF800509BF900102B0796
:104B200032D40029B4BF274B274B05F00F02920067
:104B300013441A68002A5FD000221A602846FFF743
:104B400095F9224B1A7800F0010050401870FFF7D9
:104B5000EDFE1F4B28461A6809F031FBC240D7070B
:104B600006463DD4002916DA882D06D1014619489B
:104B700009F02FFB0220FFF7A1FB104A0123116867
:104B8000B3400B43136031E0134B144A13EA210383
:104B900038BF1346CDE701460E4809F01AFB022044
:104BA000FFF78CFB013D062DE7D91FE000700240A6
:104BB000AE280020A4190020380A00209C190020EB
:104BC000AF2800200871024030710240AD2800205B
:104BD000A0190020EC1B00202C71024050710240F3
:104BE000002D40F00181A34B0122DA6481238BF870
:104BF0000030A14802F062FC9CB1D8F800309F4A16
:104C00009F4FDFF8809224F001210B43C8F8003059
:104C1000136823EA01031360A4B20126002C40F0BC
:104C2000E780944BD3F800217AB10024C3F8004107
:104C3000954B964A96481C70032109F0C8FA904B90
:104C400022461868042108F0E6FF8A4BD3F8582161
:104C50002AB30022C3F85821D3F80044C3F8004413
:104C6000E60505D5884B012208201A70FFF726FBC0
:104C7000A50505D5844B002210201A70FFF71EFBF6
:104C800060050CD5804B1A784AB100221A70794B16
:104C90000122C3F8082520209A65FFF70FFB754B0A
:104CA0007C4CD3F85C31F3B1734B9B681BB99BF818
:104CB0000030590617D06F4B0022C3F85C212368DF
:104CC0006E4A23F001132360D8F8003023F48033B8
:104CD00043F00103C8F800301368042023F00113E7
:104CE0001360FFF7EBFA2568D8F800301D4078D044
:104CF000604BD3F82C45002C73D15F480022002371
:104D000002F010FC00286CD115F0012314BF93FAB7
:104D1000A3F595FAA5F5B5FA85F50F2D88BFA5F190
:104D20001009574B8CBF5FFA89F945F08009186864
:104D3000494608F037FF029008F060FF4FFA89F308
:104D4000039309F0080304934FFA89F3002B0646F6
:104D500009F00F0A80F2A280029B048A5B8BC7686D
:104D6000C3F30A039C4207F0604272D9B2F1005FBC
:104D70001C4605D039464848474F1A460AF044FEBB
:104D80004FF080530121D3F83031082B02BF394B4B
:104D90008222C3F81C2CD8F80030049A8BF80090BB
:104DA00001FA05F523EA0503C8F80030314B002A63
:104DB00040F0B580039A002A4FF0140202FB0A3239
:104DC000A9BF0AF10A0A03EB8A03C2F80077C2F806
:104DD0000447AFBF43F82A10C2F80076C2F8044671
:104DE000596007B0BDE8F08F0029BFF6DBAEC4E61E
:104DF00094FAA4F5B5FA85F506FA05F345F08005B1
:104E00002946386824EA030408F0CCFE08F0F6FED0
:104E100082462846FFF72AF801460AF10C0007F0FF
:104E20005FFCBAF81030002B7FF4F8AE504608F063
:104E3000E9FE18B1504608F0E9FEEFE6284609F011
:104E4000BEF90146484609F0C4F90220FFF736FAD8
:104E5000E4E6029208F0D6FE029AB2F1005F06463E
:104E600005D039460C480C4F22460AF0CDFD002EE5
:104E700036D085E700700240380A00209C190020D7
:104E8000A8190020EC1B0020B02800207F10010092
:104E900034000100A019002058190020038A56F898
:104EA0000C7F09F008021F44244B0AB3D3F8C03426
:104EB000DA0321D5304607F01BFC0023214630469B
:104EC000059307F0E5FB029B5A8B059BC2F30A0290
:104ED0009A4205D1304607F00BFC00287FF450AF12
:104EE000174901220B68AA4023EA02030B6047E737
:104EF0000AF5947253F822300593304607F0F8FB18
:104F0000059B9842044608D20E4A009001210E48A3
:104F1000059307F0CFFA059BD0E71C46CEE7039A2E
:104F2000002AB5BFC3F8A076C3F8A077C3F8A4469B
:104F3000C3F8A447B4BF5962996452E700700240B5
:104F4000A01900208510010034000100EFF3118347
:104F5000202282F31288BFF36F8F174A12781AB398
:104F6000164AD2F82C15F9B10021C2F82C154FF0D1
:104F70008052D2F83021082A05D083F31188BFF37C
:104F80006F8F002070470E4AD2F8000CC02140B944
:104F900049F27530C2F8000CC2F8141CC2F8000CBB
:104FA000EBE7C2F8141CE8E783F31188BFF36F8FB7
:104FB0006FF00A00704700BFB02800200070024068
:104FC00000E0064073B500220092114640230446DB
:104FD000FEF770FE024648B1604A6148012109F0BF
:104FE000F6F86FF00404204602B070BD0090402334
:104FF00020468021FEF75EFE04460028ECD1594988
:10500000594B4860C860012618688E6007F063F845
:10501000051E07DA554A52482B46314607F040FA3A
:105020002C46E0E7EFF31185202383F31288BFF3CA
:105030006F8F4F4B4FF40062C3F80024FEF702FF5E
:1050400008B1FEF785FF4FF08053D3F83031082BBD
:1050500018D1EFF31180202383F31288BFF36F8FF1
:10506000444BD3F8001CC022002970D149F275319D
:10507000C3F8001CC3F8142CC3F8001C80F311887B
:10508000BFF36F8F3A4B0122C3F80025D3F80024F9
:105090001205FBD54FF40062C3F800244FF0805393
:1050A000D3F83031082B17D1EFF31180202383F38D
:1050B0001288BFF36F8F2F4BD3F8001C002949D102
:1050C00049F27532C3F8002CC3F8141CC3F8002C45
:1050D00080F31188BFF36F8FFEF7B4FE30B1FEF797
:1050E00055FFFEF7AFFE08B1FEF732FF4FF08053D9
:1050F000D3F83031082B1E4B0AD140F2E372C3F8CB
:1051000000284022C3F80428BFF36F8FBFF34F8FEE
:105110008022C3F81C250122C3F83025164B40F22B
:10512000FF121A60154B00211960154B1960154BC1
:105130001970FFF7FBFB144B1970FEF783FE08B1E3
:10514000FEF724FF85F31188BFF36F8F4BE7C3F899
:10515000142C93E70022C3F8142CB9E7A410010023
:10516000340001004419002054190020C610010029
:105170000070024000E00640A4190020A0190020A1
:105180009C190020AD280020AF280020084B70B5E6
:10519000C31A0D4607499B1004465943064840224E
:1051A00009F03FF82B4601462046BDE870401847FD
:1051B000081C0020B76DDBB614FC000073B50C4C66
:1051C0000C4A4023041B00930D460B460A49A410C9
:1051D00061430646094809F04FF8011E05DA3046DA
:1051E0002B4602B0BDE87040184702B070BD00BF4A
:1051F000081C0020E1E20000B76DDBB614FC0000E3
:105200000022F8B5012105461046FDF7C3F9104804
:1052100001F098F90446B8B901F0B4F92F690D49C5
:10522000384606F045FF031E09DB01263E642D6962
:10523000084905F11C0006F03BFF031E02DA1C467C
:105240002046F8BDEE64FBE76FF00404F8E700BF0A
:1052500085530000A80101001FB500220123CDE9FC
:105260000223094ACDF800D06B46CDF804D009F0EE
:1052700030F8002805DB4FF480420023684602F036
:1052800051F905B05DF804FBF3E2000010B5EFF34F
:105290001184202383F31288BFF36F8F074A1368AA
:1052A00023F00201DB07116002D4012009F0E2FBC8
:1052B00084F31188BFF36F8F10BD00BF581C00200E
:1052C00030B4104B0C2202FB003301460020D3E91E
:1052D0000E529863EFF31180202484F31288BFF3F9
:1052E0006F8F1C6C04F0C00444F002041C6480F353
:1052F0001188BFF36F8F1DB12B46034830BC184790
:1053000030BC7047081C002014FC000010B4EFF300
:105310001182202383F31288BFF36F8F174801682F
:1053200041F002040460C80707D482F31188BFF378
:105330006F8F012010BC09F095BB4FF08041D1F870
:105340000C04D1F80C14C907EFD5EFF3118083F3E7
:105350001288BFF36F8F0A490B6C03F0C00343F050
:1053600002030B6480F31188BFF36F8F82F31188FF
:10537000BFF36F8F002010BCFFF7A2BF581C0020A6
:10538000081C002010B1012804D07047034B1B6C8F
:105390005B0701D1FFF794BF704700BF081C0020D6
:1053A000024AC3B21C2003FB00207047081C0020E7
:1053B0002DE9F0413849BFF35B8F0746012251E8E0
:1053C000003F41E800200028F9D1BFF35B8F33B9DB
:1053D000324933484B60CB608A6006F07CFE7B1E0E
:1053E000012B2BD8012F07D14FF08043D3F81C3469
:1053F00003F00303012B21D00AF0BCF80546F8B9ED
:10540000284B1B78E3B14FF080430222C3F80823F6
:105410000646DFF894804FF08044D4F81824D4F87E
:105420001834D20315D503F00303012B01D0012F4B
:105430000FD155B386F31188BFF36F8FBDE8F081AC
:10544000EFF31186202383F31288BFF36F8F0125BA
:10545000DFE7ADB1304607F0E1F8D4F81835002B9E
:10546000DBD1D4F80421002AD7D0C4F80431D4F811
:1054700004310123C4F81835C8F88031A360CCE7A3
:10548000002121200AF034F9E7E74FF0804302229F
:10549000C3F80423D2E700BF041C0020F41B002043
:1054A000241C0020D928002000E100E0EFF3118245
:1054B000202383F31288BFF36F8F0A4BD3F80011B8
:1054C00061B10021D3F80805C3F80011D3F8003109
:1054D000C0B282F31188BFF36F8F70476FF00A007C
:1054E000F7E700BF00D00040F0B5034610469C78B7
:1054F00093F803C0EFF31182202585F31288BFF3E0
:105500006F8F1F7893F801E0E41B04EA0C04A042BB
:1055100088BFA0B23E180CEA06063D461E7082F314
:105520001188BFF36F8F0A188A4216D177450CD1C4
:10553000EFF31182202181F31288BFF36F8F197866
:10554000597082F31188BFF36F8F1B79241AA3421D
:1055500022BF064B01221A60F0BD5E190135767933
:1055600001F8016B05EA0C05DEE700BF00D0004042
:10557000DB432DE9F04713F001050E46144604D035
:105580002248FFF7B1FFBDE8F0879AB3EFF3118827
:10559000202383F31288BFF36F8F0D20FCF7ECFFFD
:1055A00007460D20FCF7D4FF88F31188BFF36F8FF7
:1055B000DFF85CA0DFF85C80CAF80051DAF800314F
:1055C0004FF400590123CAF800302546C8F88091ED
:1055D000DAF8003183B1FFF769FF031EC8F8809144
:1055E000F6DB013DADB27355002DF1D117B10D20A1
:1055F000FCF7A0FF2046C6E7EFF31180202383F3DA
:105600001288BFF36F8F07F009F8E1E77C1C0020D8
:1056100000D0004000E100E02DE9F041124F0D46BE
:10562000144607F1350814B92046BDE8F0814FF063
:10563000FF334FF0FF32384601F074FF224629460F
:105640004046FFF751FF0646384601F037FF3EB9A6
:105650004FF0FF324FF0FF33044801F063FFE6E7FD
:10566000A41BA4B23544DEE75C1C00206C1C0020A7
:1056700038B5184C01221146204609F0EBFE0122F4
:10568000002104F1100009F0E5FE40F207432387F2
:105690004FF0706323620C2384F8243000250E4BF6
:1056A00084F83550E586D3F8042522F00102C3F8CA
:1056B00004250121C3F80051D3F80021C3F80413D5
:1056C0002A4619600D20FCF765FF0D20FCF732FF1C
:1056D000284638BD5C1C002000D0004010B5FFF704
:1056E000E5FE002820DB174B93F8222093F8214099
:1056F00093F82310141B31EA0404C0B20DD193F8BF
:10570000372093F8364093F83810141B31EA04041C
:105710000BD10D4B01225A600EE09C180132114052
:1057200084F8250083F8221010BD9C180132114026
:1057300084F83A0083F837100448BDE8104001F0BF
:10574000BDBE00BF5C1C002000D000406C1C0020CF
:10575000F0B544681646A068227C01F01F0587B0AA
:1057600045EA421500286DD0B6F5001F04D1294640
:1057700009F076FC002056E06268607CC2F82405DF
:1057800001AA0020B6F5800F0190506037D1B3F127
:10579000007F14BF052304238DF804300023CDE9D6
:1057A00004230393E36823FA01F111F001010DF1E1
:1057B00003073AD1B6F1A07F37D105F01F036A097C
:1057C00003F5E07326D0012A3FD1214A52F8233055
:1057D000DB072AD4A0683A46294609F0B7FB163001
:1057E0001BD00297A06803AA294609F07BFA00287B
:1057F00019DBA0680122294609F0DFFBBAE7B3F103
:10580000C06F05D0B3F1007F14BF01230223C3E7AB
:105810000323C1E74FF0A042D8E7A068394601F062
:1058200065F80028DDDA07B0F0BDA0683A462946E1
:1058300009F08CFB0028D5D19DF80310A06801F079
:105840004FF8CFE76FF08500EDE751F82330FFDE2A
:1058500000030050420970B5034602D0012A17D058
:1058600070BD0D4E326951680029F9D003F01F0355
:1058700001250C689D400029F2D08A682A4002D098
:105880004B68304698472CB1236821461C46F2E706
:10589000024EE7E72346F8E74CFC000030FC00002E
:1058A00038B54568A86890B109F07FFB014670B92A
:1058B000A86809F05EFB044658B902460649A86884
:1058C00009F041FB224605210620FCF763FE00207B
:1058D00038BD6FF00400FBE7555800002DE9F04398
:1058E000476840F20636D0063B7C87B002EA0606DF
:1058F00054BFC2F3401C4FF0030C01F01F05B6F576
:10590000837F144645EA43158DF803C045D00DD872
:10591000062E16D005D8A6B1022E40D06FF0150085
:1059200038E0B6F5807FF9D101260AE040F2022284
:10593000964236D0B6F5407F35D0B6F5007FEDD132
:1059400002260123220303FA01F12ED57B68C3F856
:105950000815B86890BB05F01F036D092BD0012D09
:1059600075D13D4A02EB830284F48033D2F80017EC
:10597000C3F30043C4F3404444EA430421F4E16127
:1059800044EA8C0421F0070144EA06230B43C2F8E1
:105990000037002007B0BDE8F0830726D1E70426D2
:1059A000CFE70526CDE70326CBE7630344BF7B683B
:1059B000C3F80C15CDE74FF0A042D3E70DF102027A
:1059C000294609F0C3FA14F4403F80460CD1B86868
:1059D000294609F0F0FAB8F1000FDAD19DF802106B
:1059E000B86800F07DFFD4E74FF0000901ABCDE9C6
:1059F0000199CDE90439CDF80C90B86803AA29467D
:105A000009F070F94845C4DB14F4003314D084F471
:105A100080349DF803308DF80E30C4F300448DF8C7
:105A20000C608DF80D40B8684B4603AA294609F072
:105A300011FA0028CFDAACE7CDE904330DF1030306
:105A40000393B86803AA294609F04CF9F1E703F576
:105A5000E07350F82330FFDE00030050036803F0CA
:105A60001F025B09026004D0012B034818BF00200D
:105A700070474FF0A0407047000300502DE9F04FF1
:105A8000DFF89491DFF894A185B01546834600EBCA
:105A9000810140F2FF18594503D1002005B0BDE84F
:105AA000F08FDBF800305E04C3F3C322C3F30804B5
:105AB00000F1AC801B0E19F80270444508BF4FF08E
:105AC000FF34222B00F2A580DFE803F012191F2219
:105AD000252B22A3A3A3A33B68A3A3A3A3A3A3A3B0
