:10000000C044002041260000AFC800002D2600009B
:100010002D2600002D2600002D26000000000000E7
:10002000000000000000000000000000AD270000FC
:100030002D26000000000000492700002D260000AA
:100040006D2900006D2900006D2900006D29000058
:100050006D2900006D2900006D2900006D29000048
:100060006D2900006D2900006D2900006D29000038
:100070006D2900006D2900006D2900006D29000028
:100080006D2900006D2900006D2900006D29000018
:100090006D2900006D2900006D2900006D29000008
:1000A0006D2900006D2900006D2900006D290000F8
:1000B0006D2900006D2900006D2900006D290000E8
:1000C0006D2900006D2900006D2900006D290000D8
:1000D0006D2900006D2900006D2900006D290000C8
:1000E0006D2900006D2900006D2900006D290000B8
:1000F0006D2900006D2900006D2900006D290000A8
:1001000053B94AB9002908BF00281CBF4FF0FF317E
:100110004FF0FF3000F00CB8ADF1080C6DE904CEE3
:1001200000F01AF8DDF804E0DDE9022304B07047BE
:10013000704700BF10F8012B11F8013B012A28BFBE
:100140009A42F7D0D01A7047034613F8012B002AC1
:10015000FBD1181A013870472DE9F04786468C46C6
:100160000846089E154674461946002B40F0C2808A
:100170008542B2FA82F245D94AB1C2F1200300FAAF
:1001800002FC2EFA03F3954043EA0C0C94404FEA2C
:10019000154EA8B2BCFBFEF8230C0EFB18CC08FBD6
:1001A00000F943EA0C43994528D9EB1808F1FF37C9
:1001B00004D2994502D9A8F102072B44A3EB090305
:1001C000A4B2B3FBFEFC0EFB1C330CFB00F044EAB4
:1001D0000344A04214D92C190CF1FF3304D2A042DD
:1001E00002D9ACF102032C44241A43EA07401EB1A1
:1001F000D440002334607360BDE8F0874746DDE7F4
:100200006346F1E792BB431B01214FEA154EAFB2A3
:10021000B3FBFEFC200C0EFB1C330CFB07F840EA82
:100220000343984562D9EB180CF1FF3004D298458E
:1002300002D9ACF102002B44A3EB0803A4B2B3FB38
:10024000FEFC0EFB1C330CFB07F744EA0344A742F9
:100250004ED92C190CF1FF3304D2A74202D9ACF1CC
:1002600002032C44E41B43EA0040C0E7C2F1200330
:1002700020FA03F1954090402EFA03F303434FEA2E
:10028000154EAFB2B1FBFEFC0EFB1C10190C0CFBA3
:1002900007F841EA0041884504FA02F422D96918B6
:1002A0000CF1FF3004D2884502D9ACF10200294498
:1002B000A1EB08019BB2B1FBFEFC0EFB1C110CFB79
:1002C00007F743EA01439F420ED9EB180CF1FF31C7
:1002D00004D29F4202D9ACF102012B44DB1B41EA5C
:1002E000004192E76046E3E76146F7E76046A3E72F
:1002F0006346B7E7834206D916B9002108467BE773
:10030000C6E900E0F9E7B3FA83F78FB9834201D376
:10031000724508D8BEEB020460EB030301209C4643
:100320001EB9002168E73846FAE7C6E9004CF8E74D
:10033000C7F1200CBB4022FA0CF41C432EFA0CF13E
:1003400020FA0CF3B84001434FEA14490EFA07F5BE
:10035000B3FBF9F81FFA84FE09FB18300B0C08FBFD
:100360000EFA43EA00439A4502FA07F240D9E3182D
:1003700008F1FF3004D29A4502D9A8F102002344C3
:10038000A3EB0A0389B2B3FBF9F809FB183308FBA6
:100390000EFE41EA03418E452CD9611808F1FF3366
:1003A00004D28E4502D9A8F10203214443EA004059
:1003B000A0FB0298A1EB0E014145CE46434602D375
:1003C00006D14D4504D2B9EB020E68EB04030138A7
:1003D000002EA6D0B5EB0E0261EB030101FA0CFC76
:1003E00022FA07F34CEA0303F940C6E9003198E723
:1003F0004046C5E74346D9E72DE9F34104460FF0EF
:100400001DFDDFF83880002640F8086005460F46DD
:100410000A2201A9204601960AF05EFF034655F81C
:10042000080048B9019AA24203D012780AB93B6089
:10043000012002B0BDE8F0813046FAE70C00000070
:10044000F0B5044689B08368DB6BCBB90F4F104E13
:10045000A368DB6A13B120469847A0B1A3681B6963
:100460008BB12022694620469847051E0BDD2A469F
:10047000694638460CF0A1F833682B443360E7E74F
:1004800098470028E2D109B0F0BD00BF90050020D8
:10049000D01300200146024883685B68184700BFFC
:1004A000B8FF00002DE9F04F9FB002AF0BF00FFA3C
:1004B00082468B469D4E30460EF092FF0546002840
:1004C00000F09E83B3682BB11B6C1BB198490022CE
:1004D00030469847B3681B6A0BB1944898471AF5A1
:1004E0007A7A4BF1000B934A934803210CF03EF9C2
:1004F0006C4688B002AA914B5361914B93614FF4C3
:10050000007393838F4B42F8103F8B4800234FF4C6
:10051000E65101F067F98C48A5460BF0F0F98B48DD
:100520000BF0EDF98A480122F91D0CF066F801285C
:10053000054674D0874B1B78BBB10BF0C8F950450A
:1005400071EB0B0111DB844C844A236812687A48F2
:1005500000920321824A0CF01CF9236801332360C6
:100560001AF57A739A464BF1000B7E4E3378002BC6
:1005700051D0DFF8F48198F8003053B10BF0A7F9AF
:100580007A4BD3E900239042994144DB002388F859
:100590000030DFF8DC913378002B00F02D83D9F8A0
:1005A0000050002D00F01A8398F80040002C40F015
:1005B0001583B5F5807F28BF4FF4807533787BB104
:1005C0006C4B1B78002B00F003830BF08EF96A4B09
:1005D00000F00F00185C0134FFF75CFFA542EDD17D
:1005E0006649D9F800300A685B1B2A440A60C9F8DA
:1005F00000303278002BCED0002ACCD0012388F8EE
:1006000000300BF064F95E4B584A1B681B1841F12F
:100610000001C2E9003101200BF08DF982E7F87981
:100620000D2802D00A2840F0B482564E56480BF0EE
:1006300066F93368554A002407F11008D45441463E
:100640001346A6461A788AB3082C33D093F800C014
:10065000BCF1200F184603F10103F7D0ACF10909F2
:10066000B9F1040FF2D9BCF1000F1FD0BCF1220F79
:1006700004F101040CD11A460B60107813460132C4
:1006800020B12228F9D10020187013460431D9E78F
:100690000860034610F8012B002AF7D0202A02D068
:1006A000093A042AF5D803F801EBEFE714B900235F
:1006B000336034E7D7F8109035494846FFF73AFDE4
:1006C00018B934480BF01BF9F1E733494846FFF7F6
:1006D00031FD08B93148F5E731494846FFF72AFDB1
:1006E00088B9012C0DD0DFF8BC9058F8040F013503
:1006F0000BF005F9A54280F06F8248460BF0FFF839
:10070000F3E72948DEE729494846FFF713FD0028AB
:1007100075D1032C01D02648D4E7786907F10C0184
:10072000FFF76AFE002847D12248CBE7B8FF000058
:10073000410400009307010008030100B207010013
:10074000BC07010003000001D4070100DE0D010019
:1007500090050020E0080020D4130020D0130020D2
:10076000270C0100EE280020AC280020280B0020D8
:10077000CC130020ED280020780C0100C4130020C9
:10078000C8130020C0130020C50B01002C28002036
:10079000FC070100010801008B090100900901001C
:1007A00097090100EE0D01009C090100B10901004B
:1007B000B7090100D4090100B86907F13001FFF75A
:1007C0001BFE0028B0D0FC68D7F83080A54D44450A
:1007D0000ADD214628460BF09BF8013C64200BF013
:1007E000AAF8A045F5DD62E7214628460BF090F80F
:1007F000013464200BF09FF8A045F5DA57E79A49D9
:100800004846FFF797FC38BB012C0CD1974B984911
:100810001878984B1A68984B002818BF19469748C3
:100820000BF076F843E7022C01D095484AE77C6943
:1008300094492046FFF77EFC20B98C4B9248012258
:100840001A703FE791492046FFF774FC0028ECD16D
:10085000864B18708E4835E78E494846FFF76AFC8C
:1008600070B90BF034F8044601468B480BF050F891
:100870004FF47A728948B4FBF2F102FB1142CFE7E0
:1008800087494846FFF756FC38B9864986480BF039
:100890003FF8864A86498748C2E787494846FFF7B6
:1008A00049FCC0B9022C01D084480BE7786907F1F4
:1008B0003001FFF7A1FD00283FF436AF3C6B002C60
:1008C000FFF632AF7E4821460BF022F820460BF0AF
:1008D00032F87C48F6E67C494846FFF72BFC58BBCB
:1008E0006423012CF8603B6311D0786907F10C0197
:1008F000FFF782FD08B97548E4E6022C07D0B86915
:1009000007F13001FFF778FD08B97148DAE63D6B71
:10091000FC68A54201DA6F48D4E60AF0E6FF2B1B1B
:100920000133B0FBF3F202FB13036B4823442A4666
:1009300021460AF0EDFFBAE668494846FFF7FAFBA0
:10094000002840F02481012C0CD07D6964492846A0
:10095000FFF7F0FB40B9634B1A780AB96248B1E679
:100960001870A4E66148ADE6284607F10801FFF7D4
:1009700043FD054620B1D7F80880B8F1000F01DA31
:100980005B489FE6022C10D0D7F81890594948468A
:10099000FFF7D0FB002839D057494846FFF7CAFB7C
:1009A0000546002832D055488CE6554B18681B790F
:1009B000386387F834303B22002107F135000FF00F
:1009C000BAF900250A23FB60464BFC6801221A7025
:1009D0004C4BC3F800804C4B1D704C4B1C604C4B77
:1009E0003F2207F1300118460FF0ADF9494B42495B
:1009F00000221A70484B80F83F201A603D4A474851
:100A0000002D08BF0A462346414692E73C4B186832
:100A10001B79386387F834303B22002107F1350019
:100A20000FF089F9032CCDD0D7F81CC000209CF81A
:100A3000009007F130031918B9F1000F01D03F28D9
:100A400070D100230B70042C4FF00A03FB60BBD065
:100A5000386A07F10C01FFF7CFFC002840F09180C5
:100A60002F482FE6280B0100E5090100E0080020CF
:100A70006A070100D413002062070100ED0901009C
:100A8000040A0100F61101001E0A0100300A0100EB
:100A9000340A0100460A01004D0A01005D0A010006
:100AA000710A0100BC070100760A0100820A0100F8
:100AB0008B0A0100970A0100AB0A0100B10A01008C
:100AC000C50A0100DE0A0100E50A0100EA0A010088
:100AD000F80A0100060B0100160B01002E0B0100A5
:100AE000330B0100EE280020380B01004B0B0100F6
:100AF0008F0B01007207010076070100A50B0100B2
:100B0000730C0100CC130020ED280020C813002036
:100B1000AD280020AC280020C4130020DE0B01000B
:100B2000C80B0100E646B9F15C0F1EF8013F00F169
:100B300001021FD1F3B1722B18D00FD85C2B10D04B
:100B40006E2B15D04FF05C0C3F2A81F800C015D0F9
:100B500070323A4402F8403C821C03E0742BF1D11D
:100B600009230B700EF1010C104660E70D23F8E726
:100B70000A23F6E781F80090E646F3E707F16F01F4
:100B80005FE7FB68002B3FF71FAF01231BE72148FE
:100B900098E5082801D07F2809D11F4B1B68002B3E
:100BA0003FF4C0AC1C4A1D48013B1360B8E4A0F1FF
:100BB00020035E2B3FF6B6AC174A13687E2B3FF638
:100BC000B1AC591C1160164AD054FFF763FCA9E47C
:100BD0000AF08BFEC0B2FEE4124873E512480AF038
:100BE0008EFE124B124819680AF092FE002311483B
:100BF00033700AF084FE0EE50C4B0F481968F3E7DA
:100C00000E4A0F4801210BF0B1FD28467437BD464E
:100C1000BDE8F08F030C0100C0130020230C01007D
:100C20002C280020C50B0100AD280020C413002093
:100C3000360C0100DE0D0100550C01007D0701009E
:100C4000080301002DE9F04F97B000AF90F802A023
:100C5000D7F880B03B62CBF3C0030446FA62BB61B5
:100C6000894641B9457800780AEB800020444D451B
:100C700017D8A0EB0409E378FB61BAF1000F02D0AA
:100C80001BF0010F16D1FB6953BBFB6A1BB13A6A1B
:100C90004946204698474D4628465C37BD46BDE844
:100CA000F08F461C3046FFF74FFA0130304409F10F
:100CB0000109DCE7237862687A62FA6A990079614F
:100CC00004EB8301002A40F000814D460E4601EB03
:100CD0000A094FF000084E454CD101EB0A0610E01E
:100CE0001BF0020FD1D023789A007A6162687A6291
:100CF000FA6A04EB8301002A77D14D4601EB0A061C
:100D000090461BF0050F0CBF02230123FB62FB6919
:100D100006EB430A0BF00203BB625645BCD016F843
:100D2000021B16F8013C54F82390994B994502D3C5
:100D3000984B994536D3BB69002B40D0786A0BF0AD
:100D400017F800283BD0E9468AB06A46924B5361B7
:100D50007B6AC2E906314FF4007313848F4B42F86B
:100D6000103F8F4800234FF4125100F03BFD023D2D
:100D7000CD46D2E716F8013BF96254F82300FFF79D
:100D8000E3F9D7F88430F96A01304BB1D7F88830ED
:100D900098453EBFD7F8843023F8180008F10108C1
:100DA000054498E7BB6923B1786A0AF0E1FF00289F
:100DB000C9D11BF0010F05D1FB6AED1AADE7BB6A83
:100DC000002BAAD04846FFF7BFF9D7F8843053B1BB
:100DD000D7F8883098453FBFD7F88420431C22F8C5
:100DE000183008F10108054497E7BAF1000F72D0F6
:100DF0001BF0040672D0D046002607F14800524688
:100E00003B61B9620EF06FFFB96A3B6901EB0A0200
:100E1000BA62FA69F9695200FA60BA6A02EB4102F1
:100E20003A610BF00202BA603A69B96A8A4257D154
:100E300062787A621BF0020F32440CBF4FEA58010D
:100E400000211BF0010FD2B240F09F801BF0040F75
:100E500014BF40460020BB616270A070E1703A6A26
:100E60007969FB6A20469847051EFFF615AFBB69F6
:100E700023707B6A6370FB69E37041463A6AFB6AE0
:100E800084F802A007F148009847B0F10008C0F2CA
:100E9000BB807B693A6AA9EB0A01C91AFB68C91AC7
:100EA000D7E90A0398470028C0F2B080A84408EBAD
:100EB00000054FF0000B07F1380AB34572D300214B
:100EC0003A6AFB6A08469847E6E656464FF000083D
:100ED00007F1380093E75646D04697E7B04695E7C6
:100EE000BA6A12F8021BBA6212F8015C284A54F876
:100EF0002500904202D3274A90421ED3BA6932B1EC
:100F0000786A7B600AF034FF7B6800288CD1BA686D
:100F100002BB08F1280207F1300C08F101009444EB
:100F200007F1580252FA80F008F102080CF8101C80
:100F30005FFA88F800F8105C76E7BA693AB1786A27
:100F40007B600AF015FF7B6800287FF46DAF1BF013
:100F5000010F09D006F1280207F13000711C1618A4
:100F600006F8205CCEB25FE71BF0040F3FF45CAFE5
:100F700008F1280207F1300008F1010102EB000836
:100F800008F8105C5FFA81F84EE7002063E700BFC5
:100F900050FE000068180100960C010004000001DA
:100FA000B80201001BF80A3087F8373054F8239054
:100FB000D7F884302BB3D7F888309B4521D2D7F8A7
:100FC000843033F81B803A6AFB6A012107F137004D
:100FD000984700281ADB0544B8F1000F06D14846AF
:100FE000FFF7B2F800F101081FFA88F83A6AFB6AC5
:100FF000414648469847002808DB05440BF1010BA1
:101000005BE74FF00008DEE7454645E6054643E668
:10101000014B1B68184700BFA405002030B585B000
:1010200004460D461022002168460EF084FE02237D
:101030008DF802302A46044B0193214668460AF097
:10104000C1F905B030BD00BF1110000080B50546E4
:101050000E461746984607F01FF903460EF0EEFEBF
:10106000DFF81890044649F80030424630463946C9
:10107000A84754F8090001F051FB00BF0800000028
:101080002DE9F047058B04462807904611D4022924
:1010900005F0070540F0CC8020460BF029F978B127
:1010A0000138218B042811D8DFE800F0C2106D85CB
:1010B000950001290CBF45F0100545F0200525835A
:1010C00088F31188BFF36F8FBDE8F08701F0070A3E
:1010D000AA4500F0A5800027B9463E46A368002B2C
:1010E00000F0BC8041F00801218388F31188BFF330
:1010F0006F8FA168002900F0BA800D68002900F008
:10110000B680D1F80480334652462046C047002DB1
:1011100076D02B6829461D46F0E701F007035A1FD9
:10112000012A1BD8002221F00701062B276889B26B
:10113000C4E9002209D13B4603E0628B013262839D
:101140001B68002BF9D141F00201218320460BF0EE
:10115000CFF800287AD041F0200176E0042B0AD1A4
:1011600021F0070189B2218320460BF0C1F810B1AC
:1011700041F020012183218B01F0070AAA454FD0BD
:101180000027B946AAE7236921F0070141F00601CB
:10119000062DD3F8009021832DD1B9F1000F3FD057
:1011A00041F00801218388F31188BFF36F8F3A491A
:1011B0002046C84729E021F00701236941F00401D6
:1011C00089B2042DD3F804902183E6D000273E464F
:1011D0004FF0040A82E721F00701236941F005017D
:1011E00089B2052DD3F808902183D6D000273E463A
:1011F0004FF0050A72E700273E464FF0060A6DE7FA
:101200002B4687E7B9F1000FD1D1EFF311882023E6
:1012100083F31288BFF36F8F238B23F0080323839C
:10122000258BEA062ED525F01003238305F007054C
:101230006669218B002EBFF670AF00232768C4E9D2
:10124000003321F0070141F001012183218B01F0DE
:10125000070AAA454FF000097FF440AF002F9CD049
:1012600041F00801218388F31188BFF36F8F002FAD
:10127000C8D03D6839463346524620460BF064F8E4
:101280002F46F4E7AB067FF51BAF25F02003238341
:1012900005F0070500E700BF75C300002DE9F04722
:1012A000DFF85880044607464FF0010914B9384664
:1012B000BDE8F08794FAA4F5B5FA85F509FA05F3C7
:1012C0002E0108EB05156FEA030A24EA03042B7BC1
:1012D000002BEBD058F806301B694BB9464404226A
:1012E00073682846196807EA0A070BF0CFF9DDE7AB
:1012F000284698470028D9D1F0E700BF38030100FD
:1013000030B51049104889B000220EF051FC0F4D45
:101310000F494FF400320023CDE9062300240E23A9
:10132000CDE90334CDE901440A4B00944FF44072F7
:10133000284606F0FFFC084928460EF090FA2046A1
:1013400009B030BD5D130000C80F0020300B002035
:101350004029002089160000550D0100014806F0C3
:10136000FBB900BF480A00202DE9F047804621481C
:101370000F460BF079F90646002833D000252846A1
:10138000BDE8F087237B83B12368DB680BB120467F
:101390009847636883F8069023681B69D3B963682C
:1013A0000422196820460BF071F9013610345445B7
:1013B000E8D3B8F1000FE2D0002DDFD02846FFF7C8
:1013C0006DFF0546002FF7D000214FF4A4700EF0FA
:1013D000FEFAF1E7204698470028E0D009FA06F324
:1013E0001D43E2E7044CDFF814A005464FF0010965
:1013F000DDE700BFE81300203803010048030100C7
:10140000014B53F8200070476C03010008B50346F8
:1014100008462BB1044A136000F02AFC002008BDE6
:101420006FF01500FBE700BFA805002010B5044CC5
:10143000237813B9034806F08FF90123237010BDF8
:10144000EF280020480A002010B504460B480BF096
:101450000BF95CB1BFF35B8F094B53E8001F0139F7
:1014600043E80012002AF8D1BFF35B8F05480EF065
:10147000ABFB0548BDE8104006F06EB9E013002054
:10148000E4130020C80F0020480A00200020064B6B
:10149000BFF35B8F014653E8000F43E80012002AB8
:1014A000F9D1BFF35B8F7047E013002070B5FFF7F1
:1014B000EDFF084C084E0546B44200D370BD63688A
:1014C0005B792BB123685B6813B1294620469847A6
:1014D0001034F1E7380301004803010010B5044C53
:1014E000044920460AF07BFD034B1C6010BD00BF81
:1014F0005409002058030100D81300200D4A0E485B
:10150000002310B513700D4A13600D4A4FF40041CB
:101510001360FFF77BFFFFF7E1FF0A4B0A4918460C
:101520008B4200D310BD1A1A5C681211013222716D
:101530001033F5E7F028002065C60000E013002016
:10154000E413002038030100480301000146002293
:10155000014800230AF064BD5409002001480AF044
:10156000FDBD00BF54090020024B014618680AF077
:1015700050BE00BFD813002001480AF085BE00BF4E
:101580005409002070B5294B187800284DD0FFF77A
:10159000E5FF0546002845D1254B264C1B68002B4E
:1015A00019DD0EF0BDFA4FF47A72A0FB020302FBC4
:1015B0000131C30BD4E9002043EA41439B1A4FEAAF
:1015C000D13140F2E93261EB0001934271F1000147
:1015D00001D3FFF76BFFD4E9003213F57A7342F1C0
:1015E0000002C4E90032BDE87040FFF7C5BF636880
:1015F0005B7923B1236829461B682046984710343D
:10160000B442F4D32846FFF7AFFFBFF35B8F0A4B1A
:1016100053E8001F013943E80012002AF8D1BFF354
:101620005B8FB9E7054C064EEAE770BDEF28002056
:10163000E0130020C00F0020E41300203803010055
:101640004803010070B50D4D297861B90120FFF7FD
:101650008BFE0B4C0B4EB44206D3FFF793FF0028D2
:10166000FBD101232B7070BD63685B791BB12368CC
:1016700020469B6898471034EDE700BFF028002013
:10168000380301004803010000212DE9F047084616
:10169000FFF76AFE044658B340F267684FF000094E
:1016A0000EF0CCFB1B4B1C4A1B58136033B11B4B79
:1016B0001B68092B02DD1A4806F04EF8194FDFF8B7
:1016C00060A0002544B12046FFF7E8FD044618B9A4
:1016D0004FF0FF384FF0FF39FFF754FF064628B9A7
:1016E000B5B942464B46504606F06AF83546E9E73A
:1016F0004FF0FF384FF0FF39D2E72B689B691BB1E1
:1017000000221146284698471035BD42F5D3E8E738
:10171000054DFAE708000000DC130020E413002068
:10172000480A0020480301003803010013B5184897
:101730000AF09AFF174B1B7873B1EFF31184202343
:1017400083F31288BFF36F8FFFF71CFF84F31188B8
:10175000BFF36F8F02B010BD0F4B1B68002BF9D089
:1017600050B900220023CDE900230C484FF4004279
:10177000002307F083F8EDE70928EBD107480EF0C6
:1017800023FA074802B0BDE8104005F0E5BF00BFEE
:10179000E4130020F0280020DC130020C80F0020F4
:1017A000480A002010B5064B1B680446984721469E
:1017B000A06004480AF0B3FCBDE81040FFF7B6BFD4
:1017C000A805002054090020044A054B9B1AB1EBE0
:1017D000D30F34BF52F8310000207047B802010027
:1017E000380301002DE9F04F8FB004AFC1F34A2850
:1017F000B8600D4691467B600C0DB8F1000F63D0C8
:10180000002607F114034FF0040B4FF00A0AC7F843
:101810000C80C7E907667E620193CDF808B0CDF869
:1018200000A007F11C03F96832464846FFF70AFAA0
:10183000B0F5006F03461CD36C468AB0D9F804108B
:1018400004AB2648C3E9050140F2FF71D9611A468D
:101850004FF400711984224B42F8103F214833465F
:101860004FF41251FFF7BEFFA5462C37BD46BDE829
:10187000F08FC0F30A0804F11700184420F00700A5
:1018800080083B60FFF762FE68F35325044690B181
:101890003B68154AC7E9083600F1100107F1140347
:1018A000F961CDE900A3CDF808B0F96807F11C0390
:1018B0004846FFF7C7F968F353257B68B9682A469D
:1018C00020460AF003FFD0E704F1170020F00700DC
:1018D0008008FFF73BFE0446EDE700BF6A0D0100FC
:1018E00004000001C80201009FC60000406820B14A
:1018F000034BC01A40F3CF0070474FF0FF307047E2
:10190000B80201000EB403B503AB014653F8042B33
:101910000448019301F0BEF902B05DF804EB03B096
:10192000704700BFE1C70000CA0605D48B064CBF54
:1019300002490349FFF7E6BF704700BFC60B01002D
:10194000C50B01002DE9F04F89B09B46149B06930F
:101950009DF84CA0159B0593169B179E0493044677
:101960000D469046BAF1000F00F09D8006F480739A
:1019700007930AF089FE06F00209024600283ED0CD
:1019800091492046FFF7BEFF0746B9F1000F08D086
:1019900016F0440F35D18D492A462046FFF7B2FF95
:1019A000074406F0010353B1894B8A4953F82A20B2
:1019B000894B2046002A08BF1A46FFF7A3FF06F40A
:1019C0008073002B49D006F00803002B63D1B8F1D7
:1019D000000F66D0814942462046FFF793FF054637
:1019E000069B3D44002B6DD1049B002B73D1F30764
:1019F00000F1E48031462046FFF796FFD8E0074625
:101A0000C3E7774B18680028CAD0764B4FF47A7931
:101A10001B68B5FBF3F54FF46163B5FBF0F100FB18
:101A2000115509FB05F54FF03C0CB1FBF3F203FB3C
:101A30001211B5FBF0FEB1FBFCF300FB1E550CFBD5
:101A4000131109FB05F50091B5FBF0F56649CDE9E9
:101A500001E52046FFF756FFA2E706F00803EBB1C9
:101A6000624B634953F82A202046FFF74BFF054697
:101A7000B8F1000F05D0594942462046FFF742FF12
:101A80000544BBF1000FABD05A495A462046FFF738
:101A900039FF0544A4E74FF0000BE1E706F0080525
:101AA000E6E745469CE7BBF1010F069B06D1002BFC
:101AB00064D1049B002B7BD000250CE0002BF8D0D8
:101AC0004D485CE04D48069B4D4922460AF01FF9FF
:101AD000049B002B68D0DFF82C81DFF82C91049F49
:101AE0003146102F204628BF1027FFF71DFF4FF06B
:101AF000000B5D4545DC059B49461A782046FFF7FB
:101B000001FF4FF0010B1BF0070F03D141462046A8
:101B1000FFF7F8FE5F453BD9059B494613F80B20BC
:101B20002046FFF7EFFE0BF1010BBBF1100FEAD1DE
:101B3000364920464FF0000BFFF7E4FE5A46059B5E
:101B40009A5CA2F120015F2928BF2E22304920464D
:101B5000FFF7D8FE0BF1010BBBF1100F1DD01BF0EE
:101B6000070F03D141462046FFF7CCFE5F455A469A
:101B7000E5D841462046FFF7C5FEEBE71F4855462E
:101B8000A1E741462046FFF7BDFE0BF1010BB0E790
:101B900020492046FFF7B6FEC5E7059B3B44059369
:101BA000049BDB1B04939AD1BAF1000F7FF41FAFA3
:101BB000204609B0BDE8F04F0AF005BE064A0549C7
:101BC0002046FFF79FFE15E7AE0D0100B20D0100A4
:101BD0007C030100B9070100A90D0100D70D010028
:101BE000F0130020EC130020BB0D01009003010056
:101BF000DB0D0100E10D010017C80000E1C7000086
:101C0000952C0000EE0D0100E60D0100F00D010025
:101C1000F20D0100EC0D010073B542F20F738B421F
:101C200028BF0B4605680F4A04460521684609F09F
:101C300027FB63680C495B6806460B2228460AF0BE
:101C4000B4FD63683246694628465B680AF0ADFD1C
:101C5000636806495B681B2228460AF0A6FD02B0AD
:101C600070BD00BFFE0F0100110E0100F50D010057
:101C7000074A00210123904206D8064A01B90123F0
:101C80001360054B1860704740085B000121F2E7C4
:101C900040420F00EC130020F0130020014B012202
:101CA0001A707047F1280020014B0020196070471E
:101CB000081400200148FFF7AFBF00BFC0030100B8
:101CC00010B5064B18680C46FFF79AFB21460346F1
:101CD000BDE8104002480F22184700BF081400203A
:101CE000C0030100F8B5094D094B0A4ED5E900477C
:101CF00001221A700CB92C60F8BD214630463A46D4
:101D000000F01EF8241A0644F4E700BFFC1300207C
:101D1000F2280020F328002010B9074B18707047F4
:101D2000064B1B781BB141F288300DF03DBBA4205F
:101D300000210DF04CBE00BFF1280020F228002049
:101D40002DE9F047DFF878901E4F80460E460424B8
:101D500099F80050A5B90DF01AFB3246824641466B
:101D6000284605F0D1F8054650460DF018FBE5B1C0
:101D700001233B7099F8003073B93046BDE8F08715
:101D800032464146002005F0BFF80546EFE7204601
:101D9000FFF7C2FF651E2C46002005F0F9F8002869
:101DA000EBD03B78002BF2D1E7E73B78002BE4D077
:101DB000013C2046FFF7B0FF3B78002BC8D1DCE7A1
:101DC000F2280020F1280020014B0360002070471A
:101DD000D003010007B51B491B480AF006FF70BB82
:101DE0001A4919480AF001FF48BB194916480AF078
:101DF000FCFE20BB174914480AF0F7FEF8B901466B
:101E0000154A11480BF0E9F9C8B9024613490E48C2
:101E100001230BF0BDFA90B9012300930146022380
:101E20000948EF220AF0ECFD48B907480AF011FE14
:101E300028B9054803B05DF804EB0AF03ABE03B0D8
:101E40005DF804FB20060020900A00200806002010
:101E5000F0050020D8050020AC0500204D0E010043
:101E600008B5044809F0ABFF034809F0A8FF0020BB
:101E700008BD00BF9D0E0100D20E0100014806F012
:101E8000FDBD00BFD003010038B5044618B90F4BA3
:101E90000F485B6898476168B1F5683F10D0B1F5AD
:101EA000680F0DD00B4DA9420AD011F4686120686B
:101EB00007D0014608480DF034FB0023236065601D
:101EC00038BD14220DF037FFF9E700BF700800207D
:101ED000000F01002C5F5CA90C19002008B520B38D
:101EE0004368B3F5683F10D101220368BFF35B8FED
:101EF00053E8001F002903D143E800200028F7D150
:101F0000BFF35B8F0DD1002008BD094A93420AD070
:101F100000684FF0FF324FF0FF3305F023FB00283D
:101F2000F1D00448F0E70448EEE76FF4E040EBE757
:101F30002C5F5CA9E98FFFFFEA8FFFFF08B5D8B1DE
:101F40004368B3F5683F10D100220368BFF35B8F8D
:101F500053E8001F012903D143E800200028F7D1EE
:101F6000BFF35B8F0BD1002008BD074A934208D016
:101F7000006805F06FFBF6E76FF4E040F4E7034814
:101F8000F2E70348F0E700BF2C5F5CA9E98FFFFF91
:101F9000EA8FFFFF10B5044618B91D4B1D485B685A
:101FA00098476368B3F5683F2FD0B3F5680F2CD01E
:101FB000194A934219D1236803BB18484FF0FF32E6
:101FC0004FF0FF33214605F0D1F908B923681BB95A
:101FD0000F4B13485B6898472068142200210DF0CE
:101FE000AAFE4FF46863636008E0B3F5683F0DD85C
:101FF0003A2B03D040F6BA629342DED120680DF04E
:10200000EFFA636843F03A03636010BD054AF3E7F3
:1020100070080020000F01002C5F5CA90C19002043
:10202000260F01003A00003A08B506490648402349
:1020300014220DF068FABDE808400449044806F08F
:10204000E1BD00BF0C1400200C190020D8030100D2
:10205000EC03010008B50348034A0021121A0AF0F4
:102060001EFC08BD280B0020342900200748084A20
:10207000084908B5121A0AF014FC0748074A08492B
:10208000BDE80840121A0AF00CBC00BFC0040020D2
:10209000240B002070180100B8040020C0040020A8
:1020A000681801002DE9F047064600AF0C460029EC
:1020B00036D0E9468AB0D1E90012A3686D462148BE
:1020C000A8464FF0050AC5E90501C5E9072348F808
:1020D00010AF1D48424600234FF42151FFF782FB09
:1020E000CD46D4E903126369AD461848C5F810A07F
:1020F000C5E90501C5E907231348002342464FF40B
:102100002151FFF76FFBCD46E369114A0E480121CB
:102110000AF035FBA3690F4A0B4801210AF02FFB97
:10212000012E07D1EFF305830B4A0748103B3146D8
:102130000AF025FB2146304604F05AFFBD46BDE8B3
:10214000F08700BF530F0100F8020100820F010069
:10215000B10F0100C00F0100EE0F010030BFFFF70B
:10216000FDBF00BF2DE9F0410B4EDFF8308006EBDC
:102170000807CC1B05463246094920460DF0B3FD41
:10218000A01942460021083C0DF0D5FDC5F880405D
:1021900007F10800BDE8F081000000000800000021
:1021A00048030100054B5A699B689A421FBF044AC5
:1021B000536843F080535360704700BF301D0020C8
:1021C00000ED00E070B5294C06460D462848294927
:1021D0000AF074FBA36AD9043CD5254826490AF0C5
:1021E0006DFB1720A36A1A0504D5214823490AF07C
:1021F00065FB18201D4CA36A9B0512D51C4820497D
:102200000AF05CFBA36BA26A100409D51D4A1848AA
:1022100001210AF0B4FA1EB1A36A23F40043A362B9
:102220001920124CA36A590504D5114816490AF021
:1022300045FB1A20A36ADA050ED50D4813490AF0AA
:102240003DFB1B20094A936A43F47F4393620023BA
:102250002B7070BD1620C5E7A36A9B04F2D5044815
:102260000B490AF02BFB1C20ECE700BF00ED00E05F
:10227000F8020100011001001710010028100100F0
:102280003B1001005410010069100100841001008E
:102290009C10010010B5204C204921480AF00EFB8B
:1022A000A36A990136D51E481E490AF007FB1E2075
:1022B000A36ADA0104D51A481B490AF0FFFA1F2065
:1022C000154CA36A1B0304D5154818490AF0F6FA01
:1022D0002120A36A590304D5114815490AF0EEFAE2
:1022E00022200D4CA36A9A0304D50D4811490AF027
:1022F000E5FA2320A36ADB0304D509480E490AF056
:10230000DDFA2420044A936A6FEA03436FEA134319
:10231000936210BD1D20CBE700ED00E0CB10010063
:10232000F8020100E3100100F61001001011010095
:102330002E110100531101006D1101002DE9F84328
:10234000364D804689463648364917460AF0B6FA71
:10235000AB6ADE0627D5344931480AF0AFFA1124BA
:10236000AB6A1D0704D531492D480AF0A7FA12249B
:102370002A4DAB6A980718D52D4929480AF09EFACC
:102380006E6BAB6A190646D52A4A254833460121A9
:102390000AF0F5F9B9F1000F03D0AB6A23F080031E
:1023A000AB62132403E01024DAE76FF015061B4D2F
:1023B000AB6ADA0704D5204919480AF07FFA1424D9
:1023C000AB6A9B0604D51D4915480AF077FA152417
:1023D000124B9A6AD50602D49A6A90070AD55B68AE
:1023E000190507D54146304600F078FA10B180F360
:1023F00009880224094B9A6A920642BF5A6A22F45B
:1024000000525A629A6A42F0FF029A6200233B70BD
:102410002046BDE8F8836FF01506C2E700ED00E046
:10242000F802010098110100AE110100281001000E
:10243000E1110100F91101000F1201009C100100CF
:102440002DE9F041664B8AB0D3F8048000AF044612
:10245000C8F30805002686F31188BFF36F8F02F0DA
:102460007F43B3F17F4F07D102F00C03082B12D149
:102470005C495D480AF022FA002634460023FB71CD
:10248000EB1E092B00F28A80DFE803F00A80837CD0
:1024900088888888888610074CBF0C460126EDE79F
:1024A000524951484E4D0AF009FA0023FB71EB6A7C
:1024B0009A0705D54E494C480AF000FA002332E04D
:1024C000EB6A002B01DA4B49F5E7EB6A5B00F5D5C7
:1024D000494945480AF0F2F96B69A26943F48073EF
:1024E0006B61BFF34F8FBFF36F8F6B6932F8022CB4
:1024F00023F480736B61BFF34F8FBFF36F8F4DF683
:1025000002739A4208D0AB6ADBB273B3FA1D0121A1
:102510002046FFF713FF37E02368384A324801218D
:102520000AF02DF92368FA79DAB907F1080504F100
:10253000200C206861682A4603C2083464451546A9
:10254000F7D17A6A002E45D0C2F3080121B96FEAAB
:1025500052226FEA42227A6207F108011846FFF719
:10256000A1FD2837BD46BDE8F081AB6A13F47F4F6B
:1025700004D0F91D0120FFF725FE05E0AB6AB3F595
:10258000803F9BD3FFF786FE0346CCE7FA1D002170
:10259000BEE7F91D0020EEE719498CE7194A1A4BEE
:1025A00018F4F87FE8468AB018BF13466A46174900
:1025B000C2E905134FF400731384103D144BD56129
:1025C00042F8103F084800234FF41151FFF70AF971
:1025D000C54673E722F4FF7222F00102BBE700BF99
:1025E00000ED00E05C120100F8020100871201001A
:1025F0009E120100BF120100CD120100EC12010079
:1026000008130100431201002E1201002C130100D7
:1026100004000001044B5A6942F010025A615A69E1
:1026200022F008025A61704700ED00E0EFF30880E5
:10263000EFF3098101B57246FFF702FF01BD00BF4C
:10264000002080F31488BFF36F8F0F4880F3088851
:1026500003F0C0FF00200D490860BFF34F8F00F06A
:102660002BF8202080F3118809484FF404614018AA
:1026700080F30988EFF314800221084380F3148863
:10268000BFF36F8F00F0FAF8C044002094ED00E033
:10269000003300200749D1F890200023C2F307221D
:1026A0001846934200DB7047C1F89830C1F8A0008B
:1026B0000133F6E700ED00E008B572B6002383F3BE
:1026C0001388FFF7E7FF144B4FF0FF32C3F8802069
:1026D000C3F88420C3F88820C3F88C20C3F8902066
:1026E000C3F89420C3F89820C3F89C20C3F8802135
:1026F000C3F88421C3F88821C3F88C21C3F8902142
:10270000C3F89421C3F89821C3F89C2162B6BFF3A3
:102710004F8FBFF36F8F08BD00E100E0084B9B684F
:1027200083420BD1EFF3058343B1064B5A6842F065
:1027300080525A605A6A22F400425A6205F0B2BDD1
:10274000301D002000ED00E015498A684FF0300090
:102750001044EFF3098C80E8F01F202080F31288EA
:10276000BFF36F8F0F4F4FF000664A698A603E607B
:10277000D2F880000C4C2060D2F884000023C2F80C
:10278000843080F3118804B5104600F00DF9BDE8DF
:10279000044002F1300090E8F01F8CF30988704784
:1027A000301D002004ED00E0281900201EF0040F69
:1027B0000CBFEFF30880EFF30980816911F8021C68
:1027C0000229FFD001B572460AF06DF801BD00BFC5
:1027D00040B2002807DB044A4109012300F01F0032
:1027E000834042F82130704700E100E040B2002809
:1027F0000CDB4309064900F01F0020330122824010
:1028000041F82320BFF34F8FBFF36F8F704700BF96
:1028100000E100E0054B420900F01F0053F82220C0
:10282000012303FA00F01040704700BF00E100E010
:1028300040B20028A8BF00F1604001F10101B8BF1B
:10284000064B4FEA4111ACBF00F5614000F00F00AC
:10285000C9B2B4BF195480F80013704714ED00E0FA
:10286000044B054A23F07F039360BFF34F8FBFF300
:102870006F8F70470000000000ED00E008B5FFF723
:10288000EFFF074AD2F8883023F47003C2F888308B
:10289000FFF7E0FBFFF7EAFB00F05CF804F0CCFC8C
:1028A00000ED00E042F8203C009B42F81C3C0A4945
:1028B000019B42F8183C029B42F8143C21F00101B4
:1028C0004FF0807342F8043C42F8081C0023203A81
:1028D0000265C0F8843070474D100000094A034675
:1028E000906870B113F1160F006F05D0A0F140028F
:1028F0009A4205D8834203D2814228BF0020704704
:1029000000207047301D002008B515460C4A0D4BBD
:102910009060D0F880201A600E4600F045F82C46F2
:1029200086F309880020044B9847204600210022A6
:102930000023024C20470000D3C800004D100000C7
:10294000301D002028190020014B10221A61704709
:1029500000ED00E0044800232021C2180133302B91
:1029600082F80013F9D1704700E100E008B5EFF3F9
:102970000583064A103B02EBC30152F83300496855
:102980008847BDE80840FFF70DBC00BF28000100E4
:10299000024B034A0348012100F08AB800000420DA
:1029A00000000020FC030100026F054B403A1A6052
:1029B000044A4021C3E901121846012100F082B8FF
:1029C0002C19002000000B1508B503461048D0F85C
:1029D0009020C2F30722013A934207D90D480E4ACC
:1029E000012109F0CCFE6FF0150008BDC0F8983049
:1029F0000A6822F01F021A4342F01002C0F89C201D
:102A00008A6842F00102C0F8A0201846EDE700BF36
:102A100000ED00E0D802010043130100F0B50E46BE
:102A200085B01F4604460025B5420DDA606810B334
:102A300097B1431E18420AD0104A11482B46012173
:102A400009F09DFE6FF01502104605B0F0BD1F287D
:102A5000F2D921680B42EFD12368019309F05CFFA2
:102A6000A36801A90343D0B20393FFF7ADFF10F1B0
:102A7000160FE7D0421C01350C34D5E7691301006D
:102A8000D8020100044B0522C3F89420BFF34F8FF6
:102A9000BFF36F8F704700BF00ED00E0BFF35F8FA3
:102AA000024B0022C3F89420704700BF00ED00E005
:102AB00010B5034C01232278FFF7B0FF207010BD42
:102AC0000329002008B50B4A00231278FFF7A6FF60
:102AD00010F1160F07D0084A0021D2F89030C3F346
:102AE0000723984200DB08BDC2F89800C2F8A01086
:102AF0000130F2E70329002000ED00E02DE9F0436A
:102B00005E485F49D0F890300D68C3F307239D42BB
:102B100085B000F2B080FFF7C1FF496800229542FE
:102B200001F10C011BD1574C574F25706846FFF738
:102B30004BF9DFF85881DFF8589106460025AE4280
:102B400020D123784D490020D1F89020C2F30722EC
:102B50009342C0F28A80FFF795FF00204FE0C0F853
:102B6000982051F80C3C23F01F03134343F010034B
:102B7000C0F89C3051F8043C43F00103C0F8A03089
:102B80000132CCE7009800EB05114FEA051CCB6839
:102B90003B40B3F5000F49D00AD8B3F5001F31D040
:102BA000B3F5800F37D0B3F5801F13D00135C6E7DA
:102BB000B3F1007F43D0B3F1805F49D0B3F1807FA0
:102BC000F4D150F80C3088684A6809F0A5FE40F04E
:102BD000887009E050F80C3088684A6809F09CFE5B
:102BE00040F0885040F43020039001A92078CDE9CE
:102BF0000123FFF7E9FE002833DA6FF0150005B076
:102C0000BDE8F08350F80C3088684A6809F084FE0B
:102C100040EA0900E8E750F80C3088684A6809F093
:102C20007BFE40F0C06040F40030DDE750F80C302F
:102C300088684A6809F070FE40F08270D4E750F866
:102C40000C3088684A6809F067FE40F48020CBE7C2
:102C500050F80C3088684A6809F05EFE40EA0800C7
:102C6000C2E7237801332370A0E7C1F89830C1F898
:102C7000A000013368E74FF0FF30C0E700ED00E04F
:102C800008040100032900200000F0FF00000211E9
:102C900000000811F0B587B007460E461446002123
:102CA000102268461D460DF046F802238DF80230CA
:102CB0002A46054B019321466846CDE9047608F083
:102CC00081FB07B0F0BD00BF39C9000008B5064957
:102CD000064821F00701C1F1005202F5802208F0F8
:102CE000D9FF002008BD00BF7F59002038190020FF
:102CF00070B54169857A0C4E044659B1437ADB07B9
:102D000006D4242303FB0563DB691B689B68984793
:102D10000023636105EBC505214606EB8500BDE890
:102D200070400CF0F8BC00BF6C0A0020024B24225B
:102D300002FB0030704700BF6C0A00202DE9F04311
:102D400085B005466846039190461C460CF0EAFEA5
:102D5000DDE90067EFF31189202383F31288BFF3C5
:102D60006F8F6B8A002B41D02A8A9A4225D9002284
:102D70000023284604F0BEFC0446F0B189F3118814
:102D8000BFF36F8F039B002B41D032463B46684612
:102D90000CF0EDFEA27A264B242101FB02332046E3
:102DA000DB691B6803A91D68DDE90023A847606192
:102DB00070BB2046FFF79CFF24E0698A4B1E6B82A4
:102DC00089F31188BFF36F8F2B7D2A8A2C6A1B33FE
:102DD00023F00303521A02FB0344154B154AEB1A66
:102DE0009B105343A3722B7DE372CBE789F31188C9
:102DF000BFF36F8F23464246284604F07BFC04460F
:102E00000028BFD10024204605B0BDE8F0836361EF
:102E1000012300252381039B6382E27A65602946B2
:102E200004F118000CF087FF63692582E360EAE78C
:102E30006C0A0020398EE33870B50D4C242500B99A
:102E400070BD037A4668002BFAD0013BDBB20372F7
:102E5000002BF5D1C3604360837A05FB03439B6974
:102E600013B198473046EAE7FFF742FFFAE700BFA1
:102E70006C0A00200E4A0123C2F840354FF0804210
:102E80004FF08051C2F87835D1F83001082808D1C8
:102E9000D1F83411052904D80648415C09B1C2F8BB
:102EA00038364FF080430122C3F880250020704758
:102EB00000E00140B213010048B1054B054A1B6810
:102EC000B3FBF2F35843044B43F001031847704738
:102ED0005C08002040420F005003010008B5044880
:102EE000044A3F23C0E9002303F052FC002008BD40
:102EF00044190020FFFF0F00F7B506460D461446A3
:102F0000124F38460CF06CFAE0B1BB68AAB21B68ED
:102F1000314638469847002802DB002003B0F0BD58
:102F2000002CFBD1AC42F8D22F1B042F28BF042762
:102F30000BF0A2FE3A46019001A930190CF0D3FE25
:102F40003C44EFE76FF01200E8E700BF9CFF000091
:102F50002DE9F04190F8283003F01F03012B0446BF
:102F60000F4600F128061BD0022B05D043BB90F87A
:102F700029100AF0F6F903E0818DC9B20AF0CEF902
:102F80000546E8B1304609F0B8FE02466868836835
:102F9000A2B99B684BB13A463146BDE8F0411847AB
:102FA000818DC9B20AF0A1F9EAE76FF085030CF050
:102FB00045FF0F4A13500020BDE8F081DB68E9E7C8
:102FC00094F82910204609F0B7FD02460028ECD0FD
:102FD000304609F092FE40B91369002BE5D03A461D
:102FE0003146204698470346E1E7D368F5E700BF3E
:102FF0000C0000002DE9F04F0446087E30F08008F8
:1030000093B00D46174640F09B8492B10846FFF7F7
:1030100013FF6B7ED80706D4990740F1AA802B7E58
:10302000002B40F0A680204613B0BDE8F04F09F019
:1030300090BE4B7E9A0705D5802803D12846FFF71E
:10304000FBFE96E09E0704F1280900F06284002848
:1030500040F03484D9072FD52B8A082B01D028467D
:103060000AE0EA681368A3625368C9F80430294685
:1030700009F071FC054610B1FFF7DEFE6FE248462D
:1030800009F03BFEE28D70B9B2B12946A0690BF0A0
:103090000EF90146002800F04384204613B0BDE835
:1030A000F04F0AF0E5BA3AB1114620460AF0DBFAD1
:1030B0000546002800F034840CF0C0FE94F8282067
:1030C000B94E002312F0600F8351C2F3411307D0B1
:1030D000032B40F0B5810CF0B1FE6FF085033CE0AE
:1030E000484609F00AFE94F82930002840F0408153
:1030F000013B0A2BEFD801A151F823F05732000011
:10310000D7300000D9320000D7300000293100004C
:10311000D7300000D7300000D7300000A9310000C0
:10312000D73000000B320000A069618D03697F2950
:10313000D3F88030CFD8A28D002ACCD1E28D002ADE
:10314000C9D194F82820D206C5D194F83020022A9B
:1031500005D10CF073FE4FF0FF33335018E01B071E
:103160000BD5C9B209F02BFE804648B1002D7FF483
:1031700065AF404613B0BDE8F08F012384F83930C5
:1031800094F83030012B0DD1638D5BB984F8303069
:103190000CF054FE3358002B00F0DE83002D40F07D
:1031A000D581DCE10123F1E7204609F024FC628DA2
:1031B000FF2A01468FD8E38D002B8CD194F828305C
:1031C000D80688D194F83030002BC2D02AB1D2B2C0
:1031D000204609F0AFFF0028BBD0618D94F838304D
:1031E0008B42D5D0C9B2204609F0ABFF80460028FB
:1031F000BCD1628D002A14BF0223012384F8303031
:10320000052120460AF0C0FAC2E794F8283003F0FE
:103210001F03012B7FF45FAFE38D002B7FF45BAFC7
:10322000628DFF2A3FF657AFA18DFF293FF653AFBE
:1032300094F83030022B8CD1D2B2C9B220460AF0B9
:1032400095F910F1020F804640F0FF800CF0F6FD7A
:1032500046F800809CE7E38DA18D002B7FF43BAF07
:1032600094F83030002B3FF474AF012B0FD10029BC
:103270007FF46FAF12F01F020CD1638D012B87D149
:1032800094F86C306FF3C30384F86C3080E712F06D
:103290001F0217D0022A7FF47BAFB4F82AA0BAF13C
:1032A000000F7FF475AF5FFA81F8414620460AF0BF
:1032B00051FA03460CF0C2FD3350013306D14FF0F2
:1032C000FF3853E700297FF444AFD6E75246414622
:1032D000204609F018FD5BE7E38DA18D002B7FF4FC
:1032E000FAAE638D022B5FFA81F813D194F828307F
:1032F00003F01F0358EA03037FF4EDAEA069012237
:10330000090A09F039FD00287FF4E5AE012384F8AD
:1033100039303DE794F8300000283FF41AAF012817
:103320000DD100297FF415AF12F01F020AD1012B35
:103330007FF42EAF94F86C3043F00803A4E712F04A
:103340001F0211D0022A7FF423AF002B7FF420AF9D
:10335000414620460AF0E9F903460CF06FFD335070
:103360000133ACD00122B2E700297FF4F2AEDEE7F0
:103370000A2B3FF6B0AE01A151F823F0AD330000A7
:10338000D7300000D7300000D7300000D730000021
:10339000D73000002D340000D73000001338000073
:1033A000D7300000413800000C000000E38DA18DF3
:1033B000022B7FF490AE94F83030002B3FF4C9AE6E
:1033C000012B10D100297FF4C4AE12F01F020DD1E1
:1033D00094F86C304FEA930808F00208C3F3001326
:1033E00048EA030806E012F01F0210D0022A12D0A9
:1033F0004FF0000805F10C0A504609F0E8FAE38D99
:1034000098420ED20CF01AFD6FF00B03A5E60029CE
:103410007FF49FAEDCE7C9B220460AF0AAF98046E5
:10342000E8E74146504609F0B9FAB1E694F8282099
:10343000B4F82A80D1064FEA18235FFA88F809D039
:1034400029462046FFF784FD8046B8F1000F7FF43F
:103450008DAE9DE6013B0E2B3FF63DAE01A252F82C
:1034600023F000BFA1340000EB340000D33500008E
:10347000D7300000D7300000CB350000CB3500003E
:10348000D7300000D7300000D7300000D730000020
:10349000D7300000D7300000D73000001D370000C3
:1034A00005F10C0A5046B4F82E8009F090FA8045D8
:1034B0000AD2B4F82E80204609F09DFA48B10128BE
:1034C0007FF409AE616F05E0504609F080FA80464E
:1034D000F1E7216F002900F0D0810A78424528BF2A
:1034E0004246504609F049FA52E6204609F083FA6E
:1034F00008F1010201900146D2B2204609F0F4FD24
:10350000824600283FF4E7AD05F10C08D0F804B07E
:10351000404609F05CFA9BF80020904203D24046F6
:1035200009F055FA02465946404609F026FADAF8FB
:103530000CA0BAF1000F1CD1298AE38D99423FD823
:103540000CF07CFC3358002B00F006822846FFF775
:1035500073FC0CF073FC3358002B00F0FD814846DF
:1035600009F0CBFB0346A069002B00F0DC81802131
:10357000E2E1DAF8040083681B6B13B9DAF800A003
:10358000D7E7019998470028F8D0A0F1040B5BF821
:10359000043F002BF2D01B78002BEFD0404609F0FF
:1035A00016FADBF800301A78904203D2404609F050
:1035B0000EFA82B2DBF80010404609F0DEF9E6E7C9
:1035C000C91A404609F0F4F9BAE7204609F013FA9F
:1035D00081E542460321204609F0EDFA82460028A3
:1035E0003FF479AD09F084FBB4F82EB0E0B9BAF835
:1035F0001430ADF82830DAF8103005F10C081B88CB
:10360000ADF82A30404609F0E2F9834508D2E08D52
:103610009DF82820824228BF02460AA9404661E759
:10362000404609F0D4F9F3E79AF81530DAF80820A3
:103630008DF81530C44B1340C44A4FF00008934234
:103640008DF8148058D1102106A80BF04CF8031EF9
:10365000FFF641AD0AA9102BDFF8F4E206A88C466C
:1036600028BF1023434501F1020134D89B000233E7
:103670008DF81430CDF804C005F10C0A504609F05D
:10368000A6F99DF81480D84528BFD846404503D2F6
:10369000504609F09CF98046B8F1020FC34628BF96
:1036A0004FF0020B5A4605A9504609F066F9A8EBFF
:1036B0000B08DDF804B04FEA58030BEB58025A45EB
:1036C00022D118F0010F3FF463AD019AD15C50464E
:1036D00009F05CF95CE510F8012B4FEA121A02F0D0
:1036E0000F021EF80AA01EF8022001F802AC01F831
:1036F000012C08F10108B5E79AF814308DF8143060
:10370000DAF810300193B7E71BF8011B5046CDE9FA
:10371000022309F043F9DDE90223D0E7204609F04E
:103720006AF920B101287FF4D6AC636F00E0236F03
:10373000002B00F0A2805B88B3F5007F7FF6CBAC56
:10374000844B0A9300238DF82C30E36C04F14C0871
:1037500098455BD105F10C0B584609F038F9BDF8D6
:103760002AA0E38D9A4528BF9A46504503D2584671
:1037700009F02DF982469DF82820524528BF52466F
:103780000AA9584609F0F9F8BAF1050F94BFAAEB57
:103790000A0AAAF1050ABAF1000F3FF4F9ACE36C8A
:1037A00043453FF4F5AC002B3FF4F2AC5A7D0F2AB1
:1037B00014D11A7D19690193524528BF52465846C3
:1037C00009F0DBF8019B1A7D524594BFAAEB020A6F
:1037D000AAEB0A0ABAF1000F3FF4DAAC226D9A4262
:1037E0003FF4D6AC1B68DEE75A7D0F2A0AD11A7D5A
:1037F000BDF82A100A44ADF82A209DF82C20013289
:103800008DF82C20226D9A42A4D01B68002BEBD19E
:10381000A0E794F8303094F838A0002B3FF499AC2E
:10382000E38D012B7FF457AC05F10C08404609F0FD
:10383000CEF8E38D9842FFF4E5AD5146404647E7A8
:1038400094F8283003F01F03012B7FF482AC20464C
:1038500009F05EFC00283FF47CACA38D4268FF2B8E
:103860003FF639AC12799A42FFF435AC0F2B3FF694
:1038700032AC234493F83AA0D2E76FF0150875E410
:103880002946204609F0F4FE00287FF4E8ABA06941
:103890000369D3F8801011F004017FF4C4AB0AF07F
:1038A0001AFD054600283FF45AAE0146204609F0AD
:1038B000DFFE00283FF4B7ABFFF7D1BB5A077FF517
:1038C0004EAE80287FF44BAE2846FFF7B5FA94F849
:1038D0003930002B3FF44DAC94F82930052B05D13D
:1038E000618DA069C9B209F06AFA074694F82930D7
:1038F000032B09D1638D022B06D1A18DA069002273
:10390000090A09F039FA0746002384F83930B84625
:103910002FE45B077FF523AE0028D2D1FFF78EBBE3
:103920006FF00B071BE6E38D002B3FF420AE17F181
:103930000C0118BF0121C9010AF0F3FBFFF773BBAB
:103940006FF0040815E400BF00FF0200000302004E
:10395000BC130100050F0500E38D3BB1484609F09B
:10396000CCF900288CD12846FFF766FA204609F0EA
:10397000DAF900287FF4F3ADFFF755BB0B78062B7F
:1039800010B414D10369D3F89C20EFF311842023E1
:1039900083F31288BFF36F8F4B6800201860506A62
:1039A00058B9C2E9083384F31188BFF36F8F044814
:1039B00010BC002200230BF004BE03605362F2E748
:1039C000100A00202DE9F043614F85B020264FF00A
:1039D000FF334FF0FF3201A9384603F05FFD039B30
:1039E0001B69D3F89C40236A5BB1EFF3118386F324
:1039F0001288BFF36F8F216AE1B983F31188BFF397
:103A00006F8F9DF80430062BE1D0072BDFD801A281
:103A100052F823F07B3A00006F3A00009B3A000016
:103A2000813A0000BF3A0000B53A0000CF390000EB
:103A30004B3B0000606A0A682262814208BF6262F2
:103A400083F31188BFF36F8F0B7ED1F81E205D06C4
:103A5000204609D1FFF7CEFA02460028C3D007213D
:103A6000204609F091FEBEE709F04FFCF4E7002282
:103A70000121204609F088FEA9E700221146F8E757
:103A800094F86C3043F0040301A984F86C302046AC
:103A900009F0BDF900220321EBE794F86C306FF3D5
:103AA000820301A984F86C30204609F0B0F90022A5
:103AB0000221DEE701A9204609F0A9F987E794F879
:103AC0006C30D4F818806FF3820384F86C30D8F827
:103AD0001030D8F80890BFF35B8FD3F8A030BFF355
:103AE0005B8F9A0727D5D9F83C3040469847D9F8DC
:103AF0002430002140469847D9F8403005464046DA
:103B00009847D5B92946204609F01BFB0546A0B9C0
:103B1000A0690AF0FFFB831E5842584194F86C30AC
:103B200084F8305023F0680343EA401384F86C3083
:103B30002A4604219DE74FF0FF350022042120464C
:103B400009F022FE2A46072193E7029A062190E710
:103B5000100A002030B589B000220023CDE90623E9
:103B600000246FF00703CDE90334CDE901441A4B7B
:103B70001A4900944FF48062194804F0DBF819499F
:103B800017480BF06CFE184B18498B4207D3184BA3
:103B9000184900208B4210D3002009B030BD03F13A
:103BA0001402BFF35B8F52E8000F42E80045002D7E
:103BB000F9D1BFF35B8F1833E7E703F11402BFF3CA
:103BC0005B8F52E8004F42E80005002DF9D1BFF3AA
:103BD0005B8F1833DEE700BFC5390000802C002062
:103BE00000100020CD1301000C0B0020240B00203E
:103BF000240B0020240B002038B502460949054655
:103C000080690AF0EDFB044648B985F8380028467B
:103C100009F06EF9044610B1A8690AF014FC2046B8
:103C200038BD00BF7D39000070B5084C084E054610
:103C3000B44202D30024204670BD63682846196848
:103C4000FCF778FA0028F6D01834F1E70C0B0020C6
:103C5000240B002070B50646EFF31181202282F379
:103C60001288BFF36F8F1D4C236881F31188BFF357
:103C70006F8F5B6893F86C30DB0705D4BDE870404C
:103C80002122002303F0A2BFEFF3118382F31288F5
:103C9000BFF36F8F256865B983F31188BFF36F8F0A
:103CA0002368D3B130460022BDE87040002303F002
:103CB00059BF61682A6822608D4208BF626083F341
:103CC0001188BFF36F8F686805F10801C3699847D1
:103CD000034829460BF025FCE2E770BD4C19002093
:103CE0009009002030B585B06C4684E80600054692
:103CF00000221548002303A903F038FB0246E8B967
:103D0000039B94E803005D60083383E80300EFF34E
:103D10001180202383F31288BFF36F8F039B1A60F7
:103D20000A4A516861B9C2E9003380F31188BFF3D0
:103D30006F8F07480022002303F014FF05B030BD49
:103D40000B605360F1E700BF900900204C19002080
:103D5000C004002038B54B78046945682069202BE1
:103D600008D0222B19D00CF069F8114B6FF08502A6
:103D70001A5010E0CB88072BF5D1D3681A6842603F
:103D80009A8802819B79837209F01FFD22460821DF
:103D9000284609F007FD002038BD4B888381C3F316
:103DA000400203F001030276437622460921EFE741
:103DB0000C00000008B51346026910694A78212AF0
:103DC00013D133B90CF03AF80B4B6FF00B021A50C9
:103DD00009E0CA88072A00F1040128BF072203F17D
:103DE0000C0008F0CAFD002008BD0CF027F8024BBB
:103DF0006FF08502EBE700BF0C00000073B50469AB
:103E00008DF807102025EFF3118685F31288BFF394
:103E10006F8F0122E06B0DF1070108F0CEFB86F3F6
:103E20001188BFF36F8F012812D00BF012FD08B973
:103E3000A37EABB90D4BBFF35B8F012253E8001F8C
:103E4000002903D143E800200028F7D1BFF35B8F9E
:103E50002122002304F1480003F084FE02B070BD6B
:103E6000002121200BF0B3FDCDE700BF5419002045
:103E700038B505690E49EB6B0024C3E90144DC60E9
:103E80006B6B05F14800C3E90144DC600BF0C8FC32
:103E900005F1780007490BF097FC074905F124006C
:103EA0000BF092FC284609F090FC204638BD00BF7C
:103EB0009FD9000047DB0000D3DB0000F8B50369A1
:103EC000BFF35B8F03F1A005D3F8A030BFF35B8F86
:103ED000C3F38003994200AF0C4617D1174A184B21
:103EE0006E4688B0002908BF13466A461549C2E9E4
:103EF00005134FF400739383134B42F8103F13489C
:103F000000234FF4E451FDF76DFCB546BFF35B8F22
:103F10005CB155E8003F43F0040345E80032002A55
:103F2000F7D1BFF35B8FBD46F8BD55E8003F23F0E6
:103F3000040345E80032002AF3D0F6E7E513010058
:103F400022150100EC130100030000012803010009
:103F50002DE9F0470546D0F808A0894690461F464F
:103F600009F08FFF0446C0B1067DF30709D5037E33
:103F70001648174A012108F002FC6FF07700BDE8EF
:103F8000F0873B464246494609F035FF40B9237E5B
:103F9000104A0E48012108F0F2FB6FF01200EEE724
:103FA0009DF8203084F8198026F006066783237771
:103FB0002675DAF81830214628469847227DB0FA4F
:103FC00080F35B0963F300022275D8E72803010040
:103FD000FE1301001814010070B50546866809F04B
:103FE00050FF0446D0B1037DDB0708D4037E0D48A3
:103FF0000D4A012108F0C3FB6FF0770070BD014648
:10400000F3692846984738B1237D03F00103227DE8
:1040100063F300022275F1E70346F8E76FF0120040
:10402000ECE700BF280301003A140100F8B58768E7
:104030000546FB6B0C469847286909F010FFD0B184
:104040002146284609F01DFF0646B8B1037D9B07AF
:1040500005D0037E0B4A0C48032108F090FB34681E
:1040600024B1BB68314628469847044628463B6C35
:1040700098472046F8BD4FF0FF34F7E76FF0120481
:10408000F4E700BF55140100280301002DE9F341B6
:10409000D0F808801746D8F83C3005460E469847B9
:1040A0000C48002200233946FEF748FE044670B94A
:1040B000094A0A4800963B46012108F06AFB284657
:1040C000D8F840309847204602B0BDE8F081067627
:1040D000F5E700BF6C0A00207614010028030100F8
:1040E0004FF08053D3F83021082A06D1D3F8343169
:1040F000052B04D8034AD05C70470020704701208C
:10410000704700BF1116010010F0080F0B4B42B2B0
:104110000CD100F00F00002A4FF0140202FB003314
:10412000B4BFD3F80806D3F808077047002AB4BF15
:10413000D3F8A806D3F8A807704700BF0070024064
:10414000F8B50246EFF31185202383F31288BFF3FD
:104150006F8F00F008070AF0A1F90126864012F0DF
:104160007F0F1E4B6FEA060432D057B11A68224007
:104170001A601B4BC3F86C6485F31188BFF36F8F13
:10418000F8BD184F396821FA00F0C0070AD4196841
:104190002140196014490B68120654BF2340334371
:1041A0000B60E6E72140396051B2C94322F080003C
:1041B000C90F00F2DA30090101EB40010848C0F8EC
:1041C0000018D0F8041841F00201C0F80418DEE726
:1041D000196821401960002FCBD1DBE7B41900200A
:1041E00000700240B0190020B8190020EFF31180D0
:1041F000202383F31288BFF36F8F0A4BD3F8001C80
:10420000032261B949F27531C3F8001CC3F8142DBB
:10421000C3F8001C80F31188BFF36F8F7047C3F899
:10422000142DF7E700E00640EFF31180202383F31D
:104230001288BFF36F8F0A4BD3F8001C61B949F2A3
:104240007532C3F8002CC3F8141DC3F8002C80F39A
:104250001188BFF36F8F70470022C3F8142DF6E763
:1042600000E0064070B502460AF018F9EFF3118538
:10427000202383F31288BFF36F8F531E0124062B74
:1042800004FA00F40FD80E4E0E4B31681B680B4336
:10429000C34013F0010306D10B4802F59472214389
:1042A00040F822303160094A136823431360084BF9
:1042B0008022C3F8042185F31188BFF36F8F70BD8E
:1042C000B0190020B819002000700240B419002075
:1042D00000E100E0F8B50306044623D410F0080717
:1042E00020D100F00F02920002F1804202F51C3250
:1042F000D2F84434B3B1EFF31186202383F312884C
:10430000BFF36F8F0AF0CAF8084DC2F8A0740123FA
:1043100003FA00F12B6823EA01032B6086F311886E
:10432000BFF36F8F024BC3F81845F8BDB8190020D2
:104330000070024008B50B7E012203F00F0013F05D
:10434000800F02FA00F2124B12D0D3F8100510427F
:1043500018D00B7E1A0709D40D4AC2F80C3543F465
:104360008073C2F80C35087EFFF7B4FF002008BD4B
:10437000D3F814051042ECD1D3F814050243C3F866
:104380001425E6E7D3F810050243C3F81025E0E74B
:10439000007002400B7E064A13F07F0F0BBF012313
:1043A00043F480735365C2F818350020704700BF8E
:1043B0000070024070B506460D4609F062FD0446E5
:1043C00009F068FD28BB204609F087FD08B3802D61
:1043D00016D1437E9A0744BF0E4A15705B070FD56E
:1043E0000D4B1B7813B90D4B01221A65204609F0BD
:1043F00070FD002201463046BDE8704009F086BDE0
:104400002846FFF72FFF20460121BDE8704009F044
:1044100045BD70BD062900200A2900200070024019
:1044200070B506460C4609F02CFD054609F032FD34
:1044300020BB284609F051FD0146F8B1ACB9437ED6
:10444000D8071BD49A0704D50D4B1C700D4B0122C5
:10445000DA644B7E5B0708D50B4B1B7873B1304693
:104460000022BDE8704009F051BD2046FFF7FAFE7A
:1044700028460121BDE8704009F010BD70BD00BFA5
:1044800006290020007002400B29002008B5054ACB
:10449000054803210AF00AF80AF066FF02F09EFCC4
:1044A000002008BDA41401003003010038B54568A0
:1044B0002C4654F8040B01F0C1F80B4B0022186095
:1044C00001212720FEF7B4F9204602F051FC05F146
:1044D000080002F08FFC0AF040FF044A0448032160
:1044E00009F0E4FF002038BD68190020AD14010078
:1044F000300301000346024A0248012108F03FB997
:10450000B914010030030100012810B5014602D0A2
:10451000022807D0A0B90C4BBDE810401868002253
:1045200009F0E8BC094B0A4C00221A70094BC4F888
:1045300000332720FEF74CF90123C4F8043510BDE1
:10454000BDE81040FFF7D6BFBC19002007290020A6
:1045500000700240FDFFDF01014601480BF0B1BBD6
:10456000580A002008B5054B1970054B1B7813B18C
:104570000420FFF7F1FF002008BD00BF082900203C
:104580000929002010B50469087E0D4A09F086FF4C
:10459000012303FA00F013680343136003F088FD5E
:1045A0004020FFF7D9FF4FF0FF324FF0FF3304F107
:1045B0008401044803F04AFB03F08EFD002010BD87
:1045C000AC190020640A00202DE9F04F4F4AD0F8C2
:1045D0001080064689B04E48032109F067FF4D4B15
:1045E0001E6008F184000AF0FBFF00220023CDE9E1
:1045F000062300246FF00703CDE90334CDE901441D
:10460000454B464900964FF40072454803F092FB33
:10461000444F45494248DFF814A1DFF814B10BF0CC
:104620001EF93A69434B134043F4820343F04003BD
:104630003B61B9463C763946304609F034FC0546C4
:1046400080B13D4A3248012109F030FF284609B0C7
:10465000BDE8F08F13690AEA030343EA0B03136111
:104660002037E7E70134092C10D009EB4412082C5D
:10467000937C43F040039374ECD1D9F810312F4A66
:104680001A402F4B1343C9F81031E9E72D4C2E4B3C
:104690002269DFF8A8A0DFF8A8B0134043F40413A0
:1046A00043F0400323610746A14667F07F0323766A
:1046B0002146304609F0F7FB1C4A05460028C0D1C8
:1046C0000137092F19D009EB4711082F8B7C43F0D4
:1046D00020038B7408D1D9F810310AEA030343EAA6
:1046E0000B03C9F8103106E00B69134043F4C023F3
:1046F00043F040030B612034D7E798F8803023F073
:10470000720343F0720388F880309FE7D0140100F1
:1047100030030100BC190020F5470000C030002024
:1047200090100020E01A0020D81401000000F9FFCA
:10473000400006000000BEFFE11401000000F7FF8A
:10474000FF010800C01900200000DEFF10B50C4674
:104750002046114609F0C3FB207E09F09FFE01466A
:10476000034809F0A5FE0120FFF7F6FE002010BD6A
:10477000041C002008B5064A0B7EC2F80C3543F431
:104780008073C2F80C35087EFFF7A4FD002008BD39
:104790000070024010B50C7E4FF0FF324FF0FF3337
:1047A000114803F00DF82046FFF7CAFC04F00F0291
:1047B000012393400D4A14F0800F14BFD2F8101556
:1047C000D2F814156FEA030315BF0B400B40C2F873
:1047D0001035C2F81435044802F0BEFF044B8022A5
:1047E000C3F80421002010BD380A002000700240E8
:1047F00000E100E02DE9F04FDFF8FCA2BF4D87B0EB
:1048000004464FF0FF384FF0FF390022CDE9008910
:104810004FF0FF3150460BF05BFA4FF0FF3150463E
:104820000BF052FA0746380733D5B54AB54803218D
:1048300009F03CFEB44842464B4602F0C1FFEFF39C
:104840001182202383F31288BFF36F8FAF4B1B7845
:104850007BB1D5F8003413F400730AD10121C5F8F7
:104860002C15D5F82C15D5F80014890548BFC5F8C6
:104870002C3582F31188BFF36F8FA34802F06CFFD1
:1048800001212046FFF71AFB00220321204609F0F0
:1048900031FBFB060DD59E4A9A48032109F006FE1E
:1048A00000212046FFF70AFB00220221204609F0E2
:1048B00021FBBE060DD5974A9248032109F0F6FD6B
:1048C00000212046FFF7FAFA00220221204609F0D3
:1048D00011FBB8074FD4F90710D5BFF35B8F8E4B90
:1048E000002253E8006F43E800210029F9D1BFF30B
:1048F0005B8F4FF00108002E40F0B2807A0740F144
:10490000E380864B00261E70D5F88004C0B28DF877
:104910001000D5F88414C9B28DF81110D5F8883478
:10492000D5F88C2443EA02239BB2ADF81230D5F8B7
:104930009024D5F894C442EA0C22ADF81420D5F89E
:104940009824D5F89CC442EA0C2292B2DFF8D0C178
:10495000ADF8162010B9052900F09980714A8CF83D
:104960000060D5F8703412789A4240F09B806E4B0C
:1049700000221A70A4E06D4BBFF35B8F002253E856
:10498000008F43E800210029F9D1BFF35B8F4FF07E
:10499000010BB8F1000F9ED098FAA8F9B9FA89F97D
:1049A0000BFA09F3B9F10F0F28EA030816DDA9F194
:1049B0001006F6B23146204609F063FA814609F046
:1049C00088FA002840D15A4A4E483346012107F060
:1049D000D6FE31462046FFF723FDDAE749F0800690
:1049E0003146204609F04DFA029009F072FA50B9AA
:1049F000504A44483346012107F0C1FE3146204663
:104A0000FFF7D8FCC5E703900021029809F046FAA9
:104A1000039B00221946204609F078FAB9F1000FED
:104A2000ECD13E4B494683F800B02046C5F850B063
:104A300009F027FA09F04DFA01460028DED04A466F
:104A4000204609F063FAD9E702900021484609F0B0
:104A500025FA029B00221946204609F057FAB8E7CA
:104A600096FAA6F3B3FA83F308FA03F20F2B26EAB9
:104A7000020606DDA3F11001C9B22046FFF7D0FC03
:104A800039E743F080012046FFF794FC33E701212A
:104A90008CF80010C2B903F07F03ADF81230ADF806
:104AA000142064E7204A012313708CF800304FF47F
:104AB000A063ADF81030D5F87034ADF8123005961B
:104AC00004A9204609F049FA7B067FF59AAE2069D1
:104AD00084304FF0FF324FF0FF3302F043FD164EAB
:104AE000094F316861BB154803F076F820698430BE
:104AF00002F0B0FD85E600BF580A002000700240B9
:104B0000FD14010030030100380A002007290020AD
:104B1000141501002A150100041C00200B29002097
:104B20000A2900200829002009290020001C002053
:104B30005B15010042150100AC190020640A002039
:104B400091FAA1F8B8FA88F8B8F10F0F4146C6BF3C
:104B5000A8F11001C9B241F08001204609F091F995
:104B6000814690F818B04FF0FF324FF0FF333846CF
:104B700002F026FE5846FFF7E3FA384602F0ECFD55
:104B80000F4B8022C3F804214946204609F0D6F98C
:104B90000021484609F082F9BFF35B8F012303FA35
:104BA00008F3084ADB4352E8000F184042E80001CE
:104BB0000029F8D1BFF35B8F32681340336090E770
:104BC00000E100E0001C00204FF08053D3F83031AA
:104BD000082B02BF024B0022C3F81C2C704700BFF9
:104BE000007002402DE9F04105464FF0FF324FF0D2
:104BF000FF33414802F0E4FD404B8022C3F884219A
:104C00002720FDF707FEA8B13D4F3E4B3C681B68CF
:104C1000240C24041C434FF00108002C37D13A4ED9
:104C200040F2FF133B602720C6F80445FDF7DEFD88
:104C3000C6F80043354A13788BB1334B0021C3F8D3
:104C400008110121C3F80026C3F804165960D3F8EF
:104C500008110029FBD00021C3F8081111702A4B5C
:104C60000024C3F80045FFF7AFFF234802F074FDAE
:104C700021462846FFF7B0F9F0B1254A2548012121
:104C800009F014FC6FF004052846BDE8F08194FAA1
:104C9000A4F6B6FA86F60F2E3346C6BFA6F1100369
:104CA000D8B243F08000030701D4FFF749FA08FAAD
:104CB00006F624EA0604B0E728468021FFF78CF9BF
:104CC00005460028D9D1144B14491E68304607F018
:104CD000ECFB10F1780F044603D1304607F0C1FB1E
:104CE0000446002CD0DA0E4A0A482346012107F078
:104CF00046FD2546C8E700BF380A002000E100E075
:104D0000B8190020B41900200070024004290020C6
:104D1000781501003003010068190020581900209F
:104D20009B1501002DE9F04F474BDFF820B1D3F878
:104D30005421DFF81C8187B01AB30022C3F8542134
:104D4000D3F8042391021CD5D3F8C034002B14BF30
:104D50004FF001224FF480723E4B9B683BB99BF8A9
:104D6000000009F09BFB0123834022EA0302D8F8EC
:104D700000301343384AC8F80030136823F0012389
:104D80001360314BD3F8604134B10022C3F8602185
:104D9000D3F86C44C3F86C44D3F828214AB10022FC
:104DA000C3F828212D4B187809F078FB01238340A4
:104DB0001C439BF800509BF900102B0732D40029AC
:104DC000B4BF274B274B05F00F02920013441A681B
:104DD000002A5FD000221A602846FFF795F9224B7F
:104DE0001A7800F0010050401870FFF7EDFE1F4BDD
:104DF00028461A6809F052FBC240D70706463DD440
:104E0000002916DA882D06D10146194809F050FB11
:104E10000220FFF7A1FB104A01231168B3400B43A6
:104E2000136031E0134B144A13EA210338BF1346D1
:104E3000CDE701460E4809F03BFB0220FFF78CFB53
:104E4000013D062DE7D91FE0007002400529002032
:104E5000B8190020380A0020B019002006290020C7
:104E6000087102403071024004290020B41900206A
:104E7000001C00202C71024050710240002D40F0B7
:104E80000181A34B0122DA6481238BF80030A14811
:104E900002F062FC9CB1D8F800309F4A9F4FDFF8C7
:104EA000809224F001210B43C8F80030136823EAF4
:104EB00001031360A4B20126002C40F0E780944B5C
:104EC000D3F800217AB10024C3F80041954B964AEB
:104ED00096481C70032109F0E9FA904B22461868A5
:104EE000042109F007F88A4BD3F858212AB300228D
:104EF000C3F85821D3F80044C3F80044E60505D5AB
:104F0000884B012208201A70FFF726FBA50505D55E
:104F1000844B002210201A70FFF71EFB60050CD591
:104F2000804B1A784AB100221A70794B0122C3F8DB
:104F3000082520209A65FFF70FFB754B7C4CD3F8B2
:104F40005C31F3B1734B9B681BB99BF80030590679
:104F500017D06F4B0022C3F85C2123686E4A23F000
:104F600001132360D8F8003023F4803343F00103A9
:104F7000C8F800301368042023F001131360FFF712
:104F8000EBFA2568D8F800301D4078D0604BD3F894
:104F90002C45002C73D15F480022002302F010FC46
:104FA00000286CD115F0012314BF93FAA3F595FAEC
:104FB000A5F5B5FA85F50F2D88BFA5F11009574B5A
:104FC0008CBF5FFA89F945F080091868494608F0F6
:104FD00058FF029008F081FF4FFA89F3039309F01C
:104FE000080304934FFA89F3002B064609F00F0AD1
:104FF00080F2A280029B048A5B8BC768C3F30A031A
:105000009C4207F0604272D9B2F1005F1C4605D0A5
:1050100039464848474F1A460AF065FE4FF080531C
:105020000121D3F83031082B02BF394B8222C3F85B
:105030001C2CD8F80030049A8BF8009001FA05F582
:1050400023EA0503C8F80030314B002A40F0B58050
:10505000039A002A4FF0140202FB0A32A9BF0AF198
:105060000A0A03EB8A03C2F80077C2F80447AFBF0D
:1050700043F82A10C2F80076C2F80446596007B017
:10508000BDE8F08F0029BFF6DBAEC4E694FAA4F5C4
:10509000B5FA85F506FA05F345F080052946386826
:1050A00024EA030408F0EDFE08F017FF82462846C4
:1050B000FFF72AF801460AF10C0007F080FCBAF865
:1050C0001030002B7FF4F8AE504608F00AFF18B1FC
:1050D000504608F00AFFEFE6284609F0DFF90146DE
:1050E000484609F0E5F90220FFF736FAE4E60292B5
:1050F00008F0F7FE029AB2F1005F064605D0394685
:105100000C480C4F22460AF0EEFD002E36D085E703
:1051100000700240380A0020B0190020BC1900209D
:10512000001C002007290020B215010030030100F7
:10513000B41900206C190020038A56F80C7F09F07E
:1051400008021F44244B0AB3D3F8C034DA0321D534
:10515000304607F03CFC002321463046059307F01B
:1051600006FC029B5A8B059BC2F30A029A4205D1A8
:10517000304607F02CFC00287FF450AF174901227D
:105180000B68AA4023EA02030B6047E70AF5947212
:1051900053F822300593304607F019FC059B9842DE
:1051A000044608D20E4A009001210E48059307F0EC
:1051B000F0FA059BD0E71C46CEE7039A002AB5BF5C
:1051C000C3F8A076C3F8A077C3F8A446C3F8A447F1
:1051D000B4BF5962996452E700700240B4190020CC
:1051E000B815010030030100EFF31183202282F390
:1051F0001288BFF36F8F174A12781AB3164AD2F883
:105200002C15F9B10021C2F82C154FF08052D2F8BC
:105210003021082A05D083F31188BFF36F8F002057
:1052200070470E4AD2F8000CC02140B949F27530DF
:10523000C2F8000CC2F8141CC2F8000CEBE7C2F86C
:10524000141CE8E783F31188BFF36F8F6FF00A0037
:10525000704700BF072900200070024000E00640B0
:1052600073B500220092114640230446FEF770FEFB
:10527000024648B1604A6148012109F017F96FF010
:105280000404204602B070BD0090402320468021D7
:10529000FEF75EFE04460028ECD15949594B4860A0
:1052A000C860012618688E6007F084F8051E07DACA
:1052B000554A52482B46314607F061FA2C46E0E742
:1052C000EFF31185202383F31288BFF36F8F4F4BC9
:1052D0004FF40062C3F80024FEF702FF08B1FEF7A6
:1052E00085FF4FF08053D3F83031082B18D1EFF3FE
:1052F0001180202383F31288BFF36F8F444BD3F8C0
:10530000001CC022002970D149F27531C3F8001C7D
:10531000C3F8142CC3F8001C80F31188BFF36F8FFF
:105320003A4B0122C3F80025D3F800241205FBD51F
:105330004FF40062C3F800244FF08053D3F83031AB
:10534000082B17D1EFF31180202383F31288BFF3CA
:105350006F8F2F4BD3F8001C002949D149F27532C9
:10536000C3F8002CC3F8141CC3F8002C80F3118878
:10537000BFF36F8FFEF7B4FE30B1FEF755FFFEF7B7
:10538000AFFE08B1FEF732FF4FF08053D3F8303153
:10539000082B1E4B0AD140F2E372C3F800284022CA
:1053A000C3F80428BFF36F8FBFF34F8F8022C3F879
:1053B0001C250122C3F83025164B40F2FF121A605B
:1053C000154B00211960154B1960154B1970FFF72B
:1053D000FBFB144B1970FEF783FE08B1FEF724FFA8
:1053E00085F31188BFF36F8F4BE7C3F8142C93E755
:1053F0000022C3F8142CB9E7D715010030030100CF
:105400005819002068190020F915010000700240A9
:1054100000E00640B8190020B4190020B01900209F
:105420000429002006290020084B70B5C31A0D4638
:1054300007499B10044659430648402209F060F88A
:105440002B4601462046BDE8704018471C1C002032
:10545000B76DDBB610FF000073B50C4C0C4A40234F
:10546000041B00930D460B460A49A41061430646EF
:10547000094809F070F8011E05DA30462B4602B0E3
:10548000BDE87040184702B070BD00BF1C1C002072
:10549000BFE50000B76DDBB610FF00000022F8B5D5
:1054A000012105461046FDF7C3F9104801F098F9AF
:1054B0000446B8B901F0B4F92F690D49384606F031
:1054C00066FF031E09DB01263E642D69084905F1CC
:1054D0001C0006F05CFF031E02DA1C462046F8BDE5
:1054E000EE64FBE76FF00404F8E700BF215600000C
:1054F000A80401001FB500220123CDE90223094AB7
:10550000CDF800D06B46CDF804D009F051F8002852
:1055100005DB4FF480420023684602F051F905B0E4
:105520005DF804FBD1E5000010B5EFF311842023F2
:1055300083F31288BFF36F8F074A136823F00201C9
:10554000DB07116002D4012009F003FC84F3118809
:10555000BFF36F8F10BD00BF6C1C002030B4104B28
:105560000C2202FB003301460020D3E90E5298635F
:10557000EFF31180202484F31288BFF36F8F1C6C2B
:1055800004F0C00444F002041C6480F31188BFF3EB
:105590006F8F1DB12B46034830BC184730BC704795
:1055A0001C1C002010FF000010B4EFF31182202318
:1055B00083F31288BFF36F8F1748016841F002042C
:1055C0000460C80707D482F31188BFF36F8F0120EE
:1055D00010BC09F0B6BB4FF08041D1F80C04D1F8F3
:1055E0000C14C907EFD5EFF3118083F31288BFF3D2
:1055F0006F8F0A490B6C03F0C00343F002030B6486
:1056000080F31188BFF36F8F82F31188BFF36F8F20
:10561000002010BCFFF7A2BF6C1C00201C1C002047
:1056200010B1012804D07047034B1B6C5B0701D1FC
:10563000FFF794BF704700BF1C1C0020024AC3B292
:105640001C2003FB002070471C1C00202DE9F041AA
:105650003849BFF35B8F0746012251E8003F41E81C
:1056600000200028F9D1BFF35B8F33B932493348AA
:105670004B60CB608A6006F09DFE7B1E012B2BD811
:10568000012F07D14FF08043D3F81C3403F00303FC
:10569000012B21D00AF0DDF80546F8B9284B1B781C
:1056A000E3B14FF080430222C3F808230646DFF837
:1056B00094804FF08044D4F81824D4F81834D203DE
:1056C00015D503F00303012B01D0012F0FD155B3E2
:1056D00086F31188BFF36F8FBDE8F081EFF3118679
:1056E000202383F31288BFF36F8F0125DFE7ADB16D
:1056F000304607F002F9D4F81835002BDBD1D4F886
:105700000421002AD7D0C4F80431D4F8043101238D
:10571000C4F81835C8F88031A360CCE700212120F7
:105720000AF055F9E7E74FF080430222C3F804235B
:10573000D2E700BF181C0020081C0020381C0020E5
:105740003029002000E100E0EFF31182202383F3F1
:105750001288BFF36F8F0A4BD3F8001161B100219B
:10576000D3F80805C3F80011D3F80031C0B282F3B2
:105770001188BFF36F8F70476FF00A00F7E700BF23
:1057800000D00040F0B5034610469C7893F803C063
:10579000EFF31182202585F31288BFF36F8F1F78F6
:1057A00093F801E0E41B04EA0C04A04288BFA0B215
:1057B0003E180CEA06063D461E7082F31188BFF3C0
:1057C0006F8F0A188A4216D177450CD1EFF31182F8
:1057D000202181F31288BFF36F8F1978597082F3FB
:1057E0001188BFF36F8F1B79241AA34222BF064B87
:1057F00001221A60F0BD5E190135767901F8016B5E
:1058000005EA0C05DEE700BF00D00040DB432DE9D0
:10581000F04713F001050E46144604D02248FFF766
:10582000B1FFBDE8F0879AB3EFF31188202383F32B
:105830001288BFF36F8F0D20FCF7ECFF07460D2099
:10584000FCF7D4FF88F31188BFF36F8FDFF85CA0FB
:10585000DFF85C80CAF80051DAF800314FF40059E3
:105860000123CAF800302546C8F88091DAF80031E3
:1058700083B1FFF769FF031EC8F88091F6DB013D95
:10588000ADB27355002DF1D117B10D20FCF7A0FF7B
:105890002046C6E7EFF31180202383F31288BFF37D
:1058A0006F8F07F02AF8E1E7901C002000D000403D
:1058B00000E100E02DE9F041124F0D46144607F1DA
:1058C000350814B92046BDE8F0814FF0FF334FF0A2
:1058D000FF32384601F074FF224629464046FFF762
:1058E00051FF0646384601F037FF3EB94FF0FF3210
:1058F0004FF0FF33044801F063FFE6E7A41BA4B2B6
:105900003544DEE7701C0020801C002038B5184CA0
:1059100001221146204609F00CFF0122002104F16A
:10592000100009F006FF40F2074323874FF0706331
:1059300023620C2384F8243000250E4B84F8355064
:10594000E586D3F8042522F00102C3F804250121DD
:10595000C3F80051D3F80021C3F804132A46196094
:105960000D20FCF765FF0D20FCF732FF284638BDFF
:10597000701C002000D0004010B5FFF7E5FE0028A5
:1059800020DB174B93F8222093F8214093F8231043
:10599000141B31EA0404C0B20DD193F8372093F8F8
:1059A000364093F83810141B31EA04040BD10D4B28
:1059B00001225A600EE09C180132114084F8250043
:1059C00083F8221010BD9C180132114084F83A006F
:1059D00083F837100448BDE8104001F0BDBE00BF99
:1059E000701C002000D00040801C0020F0B54468EE
:1059F0001646A068227C01F01F0587B045EA4215D3
:105A000000286DD0B6F5001F04D1294609F097FC97
:105A1000002056E06268607CC2F8240501AA0020DC
:105A2000B6F5800F0190506037D1B3F1007F14BFFD
:105A3000052304238DF804300023CDE904230393C8
:105A4000E36823FA01F111F001010DF103073AD1E6
:105A5000B6F1A07F37D105F01F036A0903F5E073A3
:105A600026D0012A3FD1214A52F82330DB072AD41D
:105A7000A0683A46294609F0D8FB16301BD0029799
:105A8000A06803AA294609F09CFA002819DBA0683F
:105A90000122294609F000FCBAE7B3F1C06F05D036
:105AA000B3F1007F14BF01230223C3E70323C1E73F
:105AB0004FF0A042D8E7A068394601F065F8002809
:105AC000DDDA07B0F0BDA0683A46294609F0ADFB23
:105AD0000028D5D19DF80310A06801F04FF8CFE75A
