:10000000C0360020951E0000F5970000811E0000FC
:10001000811E0000811E0000811E00000000000003
:1000200000000000000000000000000001200000AF
:10003000811E0000000000009D1F0000811E0000C6
:10004000C1210000C1210000C1210000C121000028
:10005000C1210000C1210000C1210000C121000018
:10006000C1210000C1210000C1210000C121000008
:10007000C1210000C1210000C1210000C1210000F8
:10008000C1210000C1210000C1210000C1210000E8
:10009000C1210000C1210000C1210000C1210000D8
:1000A000C1210000C1210000C1210000C1210000C8
:1000B000C1210000C1210000C1210000C1210000B8
:1000C000C1210000C1210000C1210000C1210000A8
:1000D000C1210000C1210000C1210000C121000098
:1000E000C1210000C1210000C1210000C121000088
:1000F000C1210000C1210000C1210000C121000078
:1001000053B94AB9002908BF00281CBF4FF0FF317E
:100110004FF0FF3000F00CB8ADF1080C6DE904CEE3
:1001200000F01AF8DDF804E0DDE9022304B07047BE
:10013000704700BF10F8012B11F8013B012A28BFBE
:100140009A42F7D0D01A7047034613F8012B002AC1
:10015000FBD1181A013870472DE9F04786468C46C6
:100160000846089E154674461946002B40F0C2808A
:100170008542B2FA82F245D94AB1C2F1200300FAAF
:1001800002FC2EFA03F3954043EA0C0C94404FEA2C
:10019000154EA8B2BCFBFEF8230C0EFB18CC08FBD6
:1001A00000F943EA0C43994528D9EB1808F1FF37C9
:1001B00004D2994502D9A8F102072B44A3EB090305
:1001C000A4B2B3FBFEFC0EFB1C330CFB00F044EAB4
:1001D0000344A04214D92C190CF1FF3304D2A042DD
:1001E00002D9ACF102032C44241A43EA07401EB1A1
:1001F000D440002334607360BDE8F0874746DDE7F4
:100200006346F1E792BB431B01214FEA154EAFB2A3
:10021000B3FBFEFC200C0EFB1C330CFB07F840EA82
:100220000343984562D9EB180CF1FF3004D298458E
:1002300002D9ACF102002B44A3EB0803A4B2B3FB38
:10024000FEFC0EFB1C330CFB07F744EA0344A742F9
:100250004ED92C190CF1FF3304D2A74202D9ACF1CC
:1002600002032C44E41B43EA0040C0E7C2F1200330
:1002700020FA03F1954090402EFA03F303434FEA2E
:10028000154EAFB2B1FBFEFC0EFB1C10190C0CFBA3
:1002900007F841EA0041884504FA02F422D96918B6
:1002A0000CF1FF3004D2884502D9ACF10200294498
:1002B000A1EB08019BB2B1FBFEFC0EFB1C110CFB79
:1002C00007F743EA01439F420ED9EB180CF1FF31C7
:1002D00004D29F4202D9ACF102012B44DB1B41EA5C
:1002E000004192E76046E3E76146F7E76046A3E72F
:1002F0006346B7E7834206D916B9002108467BE773
:10030000C6E900E0F9E7B3FA83F78FB9834201D376
:10031000724508D8BEEB020460EB030301209C4643
:100320001EB9002168E73846FAE7C6E9004CF8E74D
:10033000C7F1200CBB4022FA0CF41C432EFA0CF13E
:1003400020FA0CF3B84001434FEA14490EFA07F5BE
:10035000B3FBF9F81FFA84FE09FB18300B0C08FBFD
:100360000EFA43EA00439A4502FA07F240D9E3182D
:1003700008F1FF3004D29A4502D9A8F102002344C3
:10038000A3EB0A0389B2B3FBF9F809FB183308FBA6
:100390000EFE41EA03418E452CD9611808F1FF3366
:1003A00004D28E4502D9A8F10203214443EA004059
:1003B000A0FB0298A1EB0E014145CE46434602D375
:1003C00006D14D4504D2B9EB020E68EB04030138A7
:1003D000002EA6D0B5EB0E0261EB030101FA0CFC76
:1003E00022FA07F34CEA0303F940C6E9003198E723
:1003F0004046C5E74346D9E72DE9F0411C4800AF28
:1004000008F080FC6C4688B06A461A4B53611A4B60
:1004100093614FF400739383184B42F8103F1848D0
:10042000DFF86080184E164D00234FF4E65100F0BF
:1004300003FEA54600240CF0EBFA4FF47A72A0FB01
:10044000020302FB0131C00B40EA41412246404613
:1004500008F058FC032123463246284609F032F9B9
:10046000013400214FF400400CF029FAE3E700BF0B
:10047000AAD40000CAD40000D4D4000003000001B4
:100480005CD10000ECD400000ED500002DE9F04F47
:1004900097B000AF90F802A0D7F880B03B62CBF3E2
:1004A000C0030446FA62BB61894641B945780078C9
:1004B0000AEB800020444D4517D8A0EB0409E378EF
:1004C000FB61BAF1000F02D01BF0010F16D1FB69DE
:1004D00053BBFB6A1BB13A6A4946204698474D46D2
:1004E00028465C37BD46BDE8F08F461C3046FFF716
:1004F0002BFE0130304409F10109DCE72378626802
:100500007A62FA6A9900796104EB8301002A40F06B
:1005100000814D460E4601EB0A094FF000084E459A
:100520004CD101EB0A0610E01BF0020FD1D023786A
:100530009A007A6162687A62FA6A04EB8301002A9F
:1005400077D14D4601EB0A0690461BF0050F0CBF14
:1005500002230123FB62FB6906EB430A0BF0020353
:10056000BB625645BCD016F8021B16F8013C54F885
:100570002390994B994502D3984B994536D3BB6943
:10058000002B40D0786A08F096FB00283BD0E94663
:100590008AB06A46924B53617B6AC2E906314FF4D6
:1005A000007313848F4B42F8103F8F4800234FF4A1
:1005B000125100F041FD023DCD46D2E716F8013B55
:1005C000F96254F82300FFF7BFFDD7F88430F96AC9
:1005D00001304BB1D7F8883098453EBFD7F884300A
:1005E00023F8180008F10108054498E7BB6923B116
:1005F000786A08F060FB0028C9D11BF0010F05D113
:10060000FB6AED1AADE7BB6A002BAAD04846FFF79C
:100610009BFDD7F8843053B1D7F8883098453FBF59
:10062000D7F88420431C22F8183008F1010805444B
:1006300097E7BAF1000F72D01BF0040672D0D046D3
:10064000002607F1480052463B61B9620CF0C3FA3C
:10065000B96A3B6901EB0A02BA62FA69F9695200A8
:10066000FA60BA6A02EB41023A610BF00202BA6028
:100670003A69B96A8A4257D162787A621BF0020FEE
:1006800032440CBF4FEA580100211BF0010FD2B2D7
:1006900040F09F801BF0040F14BF40460020BB6158
:1006A0006270A070E1703A6A7969FB6A20469847E7
:1006B000051EFFF615AFBB6923707B6A6370FB698B
:1006C000E37041463A6AFB6A84F802A007F14800E9
:1006D0009847B0F10008C0F2BB807B693A6AA9EB89
:1006E0000A01C91AFB68C91AD7E90A039847002802
:1006F000C0F2B080A84408EB00054FF0000B07F1F2
:10070000380AB34572D300213A6AFB6A0846984713
:10071000E6E656464FF0000807F1380093E75646E4
:10072000D04697E7B04695E7BA6A12F8021BBA625C
:1007300012F8015C284A54F82500904202D3274A57
:1007400090421ED3BA6932B1786A7B6008F0B3FA7E
:100750007B6800288CD1BA6802BB08F1280207F137
:10076000300C08F10100944407F1580252FA80F06D
:1007700008F102080CF8101C5FFA88F800F8105C09
:1007800076E7BA693AB1786A7B6008F094FA7B68D8
:1007900000287FF46DAF1BF0010F09D006F128028D
:1007A00007F13000711C161806F8205CCEB25FE726
:1007B0001BF0040F3FF45CAF08F1280207F1300092
:1007C00008F1010102EB000808F8105C5FFA81F8FB
:1007D0004EE7002063E700BFECCC0000DCE0000047
:1007E00024D50000040000010CD100001BF80A30E1
:1007F00087F8373054F82390D7F884302BB3D7F8E4
:1008000088309B4521D2D7F8843033F81B803A6A70
:10081000FB6A012107F13700984700281ADB0544DD
:10082000B8F1000F06D14846FFF78EFC00F1010831
:100830001FFA88F83A6AFB6A4146484698470028FA
:1008400008DB05440BF1010B5BE74FF00008DEE726
:10085000454645E6054643E6014B1B68184700BF81
:1008600090050020014B1860704700BF90050020E4
:1008700030B585B004460D461022002168460CF0C4
:10088000B8F902238DF802302A46044B0193214621
:10089000684607F0A9FD05B030BD00BF590800004B
:1008A00080B505460E461746984606F0DDFF03461E
:1008B0000CF012FADFF81890044649F8003042466E
:1008C00030463946A84754F8090001F051FB00BFF3
:1008D000080000002DE9F047058B044628079046E4
:1008E00011D4022905F0070540F0CC80204608F01D
:1008F000A2FC78B10138218B042811D8DFE800F080
:10090000C2106D85950001290CBF45F0100545F01A
:100910002005258388F31188BFF36F8FBDE8F0872A
:1009200001F0070AAA4500F0A5800027B9463E4617
:10093000A368002B00F0BC8041F00801218388F3FC
:100940001188BFF36F8FA168002900F0BA800D688D
:10095000002900F0B680D1F8048033465246204684
:10096000C047002D76D02B6829461D46F0E701F0E0
:1009700007035A1F012A1BD8002221F00701062B6A
:10098000276889B2C4E9002209D13B4603E0628BA3
:10099000013262831B68002BF9D141F002012183EF
:1009A000204608F048FC00287AD041F0200176E08B
:1009B000042B0AD121F0070189B22183204608F0D7
:1009C0003AFC10B141F020012183218B01F0070A8C
:1009D000AA454FD00027B946AAE7236921F00701AD
:1009E00041F00601062DD3F8009021832DD1B9F1F5
:1009F000000F3FD041F00801218388F31188BFF335
:100A00006F8F3A492046C84729E021F00701236942
:100A100041F0040189B2042DD3F804902183E6D07B
:100A200000273E464FF0040A82E721F007012369C0
:100A300041F0050189B2052DD3F808902183D6D065
:100A400000273E464FF0050A72E700273E464FF06A
:100A5000060A6DE72B4687E7B9F1000FD1D1EFF316
:100A60001188202383F31288BFF36F8F238B23F029
:100A700008032383258BEA062ED525F01003238354
:100A800005F007056669218B002EBFF670AF0023C5
:100A90002768C4E9003321F0070141F001012183F7
:100AA000218B01F0070AAA454FF000097FF440AFFF
:100AB000002F9CD041F00801218388F31188BFF3F7
:100AC0006F8F002FC8D03D683946334652462046C6
:100AD00008F0DDFB2F46F4E7AB067FF51BAF25F0F2
:100AE0002003238305F0070500E700BFBB92000049
:100AF0002DE9F047DFF85880044607464FF001091A
:100B000014B93846BDE8F08794FAA4F5B5FA85F52E
:100B100009FA05F32E0108EB05156FEA030A24EA2A
:100B200003042B7B002BEBD058F806301B694BB924
:100B30004644042273682846196807EA0A0708F041
:100B400048FDDDE7284698470028D9D1F0E700BFE7
:100B50008CD1000030B51049104889B000220BF04C
:100B60009FFF0F4D0F494FF400320023CDE90623BC
:100B700000240E23CDE90334CDE901440A4B00944F
:100B80004FF44072284606F0BDFB084928460BF09A
:100B9000DEFD204609B030BDB10B0000A80F0020DB
:100BA000100B0020401F0020DD0E0000E3D50000E8
:100BB000014806F0B9B800BF300A00202DE9F0471F
:100BC000804621480F4608F0F2FC0646002833D044
:100BD00000252846BDE8F087237B83B12368DB68C6
:100BE0000BB120469847636883F8069023681B6919
:100BF000D3B9636804221968204608F0EAFC01367C
:100C000010345445E8D3B8F1000FE2D0002DDFD006
:100C10002846FFF76DFF0546002FF7D000214FF45F
:100C2000A4700BF04CFEF1E7204698470028E0D076
:100C300009FA06F31D43E2E7044CDFF814A0054669
:100C40004FF00109DDE700BFB01300208CD1000098
:100C50009CD10000014B53F820007047BCD100002C
:100C600008B5034608462BB1044A136000F02AFC7D
:100C7000002008BD6FF01500FBE700BF94050020C1
:100C800010B5044C237813B9034806F04DF801233E
:100C9000237010BDC41E0020300A002010B5044689
:100CA0000B4808F084FC5CB1BFF35B8F094B53E841
:100CB000001F013943E80012002AF8D1BFF35B8F0F
:100CC00005480BF0F9FE0548BDE8104006F02CB8C9
:100CD000A8130020AC130020A80F0020300A002029
:100CE0000020064BBFF35B8F014653E8000F43E83B
:100CF0000012002AF9D1BFF35B8F7047A8130020C0
:100D000070B5FFF7EDFF084C084E0546B44200D31E
:100D100070BD63685B792BB123685B6813B12946AA
:100D2000204698471034F1E78CD100009CD1000098
:100D300010B5044C0449204608F0F4F8034B1C603D
:100D400010BD00BF3C090020A8D10000A013002066
:100D50000D4A0E48002310B513700D4A13600D4A5A
:100D60004FF400411360FFF77BFFFFF7E1FF0A4BF1
:100D70000A4918468B4200D310BD1A1A5C6812113A
:100D8000013222711033F5E7C51E0020AB9500003B
:100D9000A8130020AC1300208CD100009CD10000CF
:100DA000014600220148002308F0DDB83C0900207C
:100DB000014808F076B900BF3C090020024B01460B
:100DC000186808F0C9B900BFA0130020014808F056
:100DD000FEB900BF3C09002070B5294B18780028E7
:100DE0004DD0FFF7E5FF0546002845D1254B264CA1
:100DF0001B68002B19DD0BF00BFE4FF47A72A0FB81
:100E0000020302FB0131C30BD4E9002043EA414352
:100E10009B1A4FEAD13140F2E93261EB0001934273
:100E200071F1000101D3FFF76BFFD4E9003213F534
:100E30007A7342F10002C4E90032BDE87040FFF766
:100E4000C5BF63685B7923B1236829461B682046C8
:100E500098471034B442F4D32846FFF7AFFFBFF3EE
:100E60005B8F0A4B53E8001F013943E80012002A48
:100E7000F8D1BFF35B8FB9E7054C064EEAE770BDCA
:100E8000C41E0020A8130020A00F0020AC130020D7
:100E90008CD100009CD1000070B50D4D297861B94E
:100EA0000120FFF78BFE0B4C0B4EB44206D3FFF72D
:100EB00093FF0028FBD101232B7070BD63685B7921
:100EC0001BB1236820469B6898471034EDE700BFAC
:100ED000C51E00208CD100009CD1000000212DE90E
:100EE000F0470846FFF76AFE044658B340F26768C9
:100EF0004FF000090BF0F0FE1B4B1C4A1B5813600F
:100F000033B11B4B1B68092B02DD1A4805F00CFF9F
:100F1000194FDFF860A0002544B12046FFF7E8FD37
:100F2000044618B94FF0FF384FF0FF39FFF754FF70
:100F3000064628B9B5B942464B46504605F028FF4B
:100F40003546E9E74FF0FF384FF0FF39D2E72B681D
:100F50009B691BB100221146284698471035BD42B7
:100F6000F5D3E8E7054DFAE708000000A4130020D8
:100F7000AC130020300A00209CD100008CD100006E
:100F800013B5184808F013FB174B1B7873B1EFF338
:100F90001184202383F31288BFF36F8FFFF71CFFA8
:100FA00084F31188BFF36F8F02B010BD0F4B1B6825
:100FB000002BF9D050B900220023CDE900230C48C2
:100FC0004FF40042002306F041FFEDE70928EBD182
:100FD00007480BF071FD074802B0BDE8104005F06E
:100FE000A3BE00BFAC130020C51E0020A413002028
:100FF000A80F0020300A002010B5064B1B680446DD
:1010000098472146A060044808F02CF8BDE810403D
:10101000FFF7B6BF940500203C090020044A054BA9
:101020009B1AB1EBD30F34BF52F831000020704748
:101030000CD100008CD100002DE9F04F8FB004AF2F
:10104000C1F34A28B8600D4691467B600C0DB8F19B
:10105000000F63D0002607F114034FF0040B4FF08C
:101060000A0AC7F80C80C7E907667E620193CDF8CB
:1010700008B0CDF800A007F11C03F96832464846D5
:10108000FFF704FAB0F5006F03461CD36C468AB034
:10109000D9F8041004AB2648C3E9050140F2FF71FA
:1010A000D9611A464FF400711984224B42F8103F5F
:1010B000214833464FF41251FFF7BEFFA5462C37A7
:1010C000BD46BDE8F08FC0F30A0804F117001844CC
:1010D00020F0070080083B60FFF762FE68F35325AD
:1010E000044690B13B68154AC7E9083600F1100183
:1010F00007F11403F961CDE900A3CDF808B0F96850
:1011000007F11C034846FFF7C1F968F353257B68D4
:10111000B9682A46204608F07CFAD0E704F11700A7
:1011200020F007008008FFF73BFE0446EDE700BF14
:10113000F8D50000040000011CD10000E595000076
:10114000406820B1034BC01A40F3CF0070474FF006
:10115000FF3070470CD100000EB403B503AB01465D
:1011600053F8042B0448019301F0BEF902B05DF876
:1011700004EB03B0704700BF27970000CA0605D4F0
:101180008B064CBF02490349FFF7E6BF704700BF1B
:1011900038D6000037D600002DE9F04F89B09B46C5
:1011A000149B06939DF84CA0159B0593169B179EC8
:1011B000049304460D469046BAF1000F00F09D805E
:1011C00006F48073079308F002FA06F0020902465B
:1011D00000283ED091492046FFF7BEFF0746B9F1EF
:1011E000000F08D016F0440F35D18D492A4620460D
:1011F000FFF7B2FF074406F0010353B1894B8A4958
:1012000053F82A20894B2046002A08BF1A46FFF7C8
:10121000A3FF06F48073002B49D006F00803002BCF
:1012200063D1B8F1000F66D0814942462046FFF7EE
:1012300093FF0546069B3D44002B6DD1049B002B7C
:1012400073D1F30700F1E48031462046FFF796FFA3
:10125000D8E00746C3E7774B18680028CAD0764B1A
:101260004FF47A791B68B5FBF3F54FF46163B5FB76
:10127000F0F100FB115509FB05F54FF03C0CB1FBFB
:10128000F3F203FB1211B5FBF0FEB1FBFCF300FB24
:101290001E550CFB131109FB05F50091B5FBF0F58C
:1012A0006649CDE901E52046FFF756FFA2E706F0C3
:1012B0000803EBB1624B634953F82A202046FFF73D
:1012C0004BFF0546B8F1000F05D05949424620466C
:1012D000FFF742FF0544BBF1000FABD05A495A4615
:1012E0002046FFF739FF0544A4E74FF0000BE1E784
:1012F00006F00805E6E745469CE7BBF1010F069BB3
:1013000006D1002B64D1049B002B7BD000250CE080
:10131000002BF8D04D485CE04D48069B4D492246D5
:1013200007F098FC049B002B68D0DFF82C81DFF8D5
:101330002C91049F3146102F204628BF1027FFF71D
:101340001DFF4FF0000B5D4545DC059B49461A78B3
:101350002046FFF701FF4FF0010B1BF0070F03D1F1
:1013600041462046FFF7F8FE5F453BD9059B4946BD
:1013700013F80B202046FFF7EFFE0BF1010BBBF13A
:10138000100FEAD1364920464FF0000BFFF7E4FE7C
:101390005A46059B9A5CA2F120015F2928BF2E22A4
:1013A00030492046FFF7D8FE0BF1010BBBF1100FBF
:1013B0001DD01BF0070F03D141462046FFF7CCFE9E
:1013C0005F455A46E5D841462046FFF7C5FEEBE7A4
:1013D0001F485546A1E741462046FFF7BDFE0BF1E9
:1013E000010BB0E720492046FFF7B6FEC5E7059B95
:1013F0003B440593049BDB1B04939AD1BAF1000F85
:101400007FF41FAF204609B0BDE8F04F08F07EB969
:10141000064A05492046FFF79FFE15E73FD6000024
:1014200043D60000CCD10000D1D400003AD6000051
:1014300068D60000B8130020B41300204CD600007A
:10144000E0D100006CD6000072D600005D9700006D
:1014500027970000E92400007FD6000077D600001F
:1014600081D6000083D600007DD6000073B542F21D
:101470000F738B4228BF0B4605680F4A04460521AF
:10148000684606F085FF63680C495B6806460B22D8
:10149000284608F02DF963683246694628465B689D
:1014A00008F026F9636806495B681B22284608F0A5
:1014B0001FF902B070BD00BF8FD80000A2D6000097
:1014C00086D60000074A00210123904206D8064A2A
:1014D00001B901231360054B1860704740085B0099
:1014E0000121F2E740420F00B4130020B81300209E
:1014F000014B01221A707047C61E0020014B0020CC
:1015000019607047D01300200148FFF7AFBF00BF3C
:1015100010D2000010B5064B18680C46FFF79AFB76
:1015200021460346BDE8104002480F22184700BF7D
:10153000D013002010D20000F8B5094D094B0A4E17
:10154000D5E9004701221A700CB92C60F8BD21467C
:1015500030463A4600F01EF8241A0644F4E700BF6D
:10156000C4130020C71E0020C81E002010B9074B5E
:1015700018707047064B1B781BB141F288300AF097
:101580008BBEA42000210BF09AB900BFC61E00201C
:10159000C71E00202DE9F047DFF878901E4F8046E7
:1015A0000E46042499F80050A5B90AF068FE3246A8
:1015B00082464146284604F08FFF054650460AF011
:1015C00066FEE5B101233B7099F8003073B93046EF
:1015D000BDE8F08732464146002004F07DFF054615
:1015E000EFE72046FFF7C2FF651E2C46002004F0FF
:1015F000B7FF0028EBD03B78002BF2D1E7E73B7830
:10160000002BE4D0013C2046FFF7B0FF3B78002BD5
:10161000C8D1DCE7C71E0020C61E0020014B0360B6
:101620000020704720D2000007B51B491B4808F076
:1016300081FA70BB1A49194808F07CFA48BB19496D
:10164000164808F077FA20BB1749144808F072FAD8
:10165000F8B90146154A114808F064FDC8B90246B8
:1016600013490E48012308F038FE90B90123009376
:10167000014602230948EF2208F067F948B90748F4
:1016800008F08CF928B9054803B05DF804EB08F0C0
:10169000B5B903B05DF804FB0C060020780A002001
:1016A000F4050020DC050020C4050020980500207A
:1016B000DED6000008B5044807F024FB034807F015
:1016C00021FB002008BD00BF2ED7000063D700001B
:1016D000014806F0B5BC00BF20D2000038B5044672
:1016E00018B90F4B0F485B6898476168B1F5683FC0
:1016F00010D0B1F5680F0DD00B4DA9420AD011F4EE
:101700006861206807D0014608480AF082FE00237D
:101710002360656038BD14220BF06BFAF9E700BF57
:101720006C08002091D700002C5F5CA9D418002021
:1017300008B520B34368B3F5683F10D101220368B0
:10174000BFF35B8F53E8001F002903D143E800205B
:101750000028F7D1BFF35B8F0DD1002008BD094AE7
:1017600093420AD000684FF0FF324FF0FF3305F08C
:10177000E1F90028F1D00448F0E70448EEE76FF4FF
:10178000E040EBE72C5F5CA9E98FFFFFEA8FFFFFEA
:1017900008B5D8B14368B3F5683F10D1002203689B
:1017A000BFF35B8F53E8001F012903D143E80020FA
:1017B0000028F7D1BFF35B8F0BD1002008BD074A8B
:1017C000934208D0006805F02DFAF6E76FF4E04088
:1017D000F4E70348F2E70348F0E700BF2C5F5CA999
:1017E000E98FFFFFEA8FFFFF10B5044618B91D4BC4
:1017F0001D485B6898476368B3F5683F2FD0B3F521
:10180000680F2CD0194A934219D1236803BB18489A
:101810004FF0FF324FF0FF33214605F08FF808B943
:1018200023681BB90F4B13485B6898472068142244
:1018300000210BF0DEF94FF46863636008E0B3F554
:10184000683F0DD83A2B03D040F6BA629342DED1FE
:1018500020680AF03DFE636843F03A03636010BD00
:10186000054AF3E76C08002091D700002C5F5CA9C3
:10187000D4180020B7D700003A00003A08B506494E
:101880000648402314220AF0B6FDBDE8084004498A
:10189000044806F047BC00BFD4130020D418002031
:1018A00028D200003CD2000008B50348034A0021BA
:1018B000121A07F097FF08BD100B0020081F002028
:1018C0000748084A084908B5121A07F08DFF07486B
:1018D000074A0849BDE80840121A07F085BF00BF53
:1018E000C00400200C0B0020E4E00000B80400203D
:1018F000C0040020DCE000002DE9F047064600AF00
:101900000C46002936D0E9468AB0D1E90012A36816
:101910006D462148A8464FF0050AC5E90501C5E90D
:10192000072348F810AF1D48424600234FF42151C9
:10193000FFF782FBCD46D4E903126369AD46184830
:10194000C5F810A0C5E90501C5E907231348002320
:1019500042464FF42151FFF76FFBCD46E369114A30
:101960000E48012107F0AEFEA3690F4A0B48012182
:1019700007F0A8FE012E07D1EFF305830B4A0748B5
:10198000103B314607F09EFE2146304604F018FE1B
:10199000BD46BDE8F08700BFE4D700004CD1000091
:1019A00013D8000042D8000051D800007FD80000B2
:1019B00030BFFFF7FDBF00BF2DE9F0410B4EDFF850
:1019C000308006EB0807CC1B054632460949204605
:1019D0000BF001F9A01942460021083C0BF009F96F
:1019E000C5F8804007F10800BDE8F0810000000064
:1019F000080000009CD10000054B5A699B689A4280
:101A00001FBF044A536843F080535360704700BFC0
:101A1000B81C002000ED00E070B5294C06460D46CC
:101A20002848294907F0EDFEA36AD9043CD525488A
:101A3000264907F0E6FE1720A36A1A0504D52148B7
:101A4000234907F0DEFE18201D4CA36A9B0512D522
:101A50001C48204907F0D5FEA36BA26A100409D5E3
:101A60001D4A1848012107F02DFE1EB1A36A23F478
:101A70000043A3621920124CA36A590504D51148EA
:101A8000164907F0BEFE1A20A36ADA050ED50D48E6
:101A9000134907F0B6FE1B20094A936A43F47F43BB
:101AA000936200232B7070BD1620C5E7A36A9B04C8
:101AB000F2D504480B4907F0A4FE1C20ECE700BF58
:101AC00000ED00E04CD1000092D80000A8D8000042
:101AD000B9D80000CCD80000E5D80000FAD8000042
:101AE00015D900002DD9000010B5204C20492148FF
:101AF00007F087FEA36A990136D51E481E4907F0F4
:101B000080FE1E20A36ADA0104D51A481B4907F09B
:101B100078FE1F20154CA36A1B0304D515481849ED
:101B200007F06FFE2120A36A590304D51148154917
:101B300007F067FE22200D4CA36A9A0304D50D48D6
:101B4000114907F05EFE2320A36ADB0304D5094890
:101B50000E4907F056FE2420044A936A6FEA0343B5
:101B60006FEA1343936210BD1D20CBE700ED00E048
:101B70005CD900004CD1000074D9000087D9000066
:101B8000A1D90000BFD90000E4D90000FED90000AF
:101B90002DE9F843364D8046894636483649174682
:101BA00007F02FFEAB6ADE0627D53449314807F02F
:101BB00028FE1124AB6A1D0704D531492D4807F0D2
:101BC00020FE12242A4DAB6A980718D52D492948C2
:101BD00007F017FE6E6BAB6A190646D52A4A2548F0
:101BE0003346012107F06EFDB9F1000F03D0AB6A57
:101BF00023F08003AB62132403E01024DAE76FF0D4
:101C000015061B4DAB6ADA0704D52049194807F0C1
:101C1000F8FD1424AB6A9B0604D51D49154807F04E
:101C2000F0FD1524124B9A6AD50602D49A6A9007E1
:101C30000AD55B68190507D54146304600F078FAA9
:101C400010B180F309880224094B9A6A920642BFB8
:101C50005A6A22F400525A629A6A42F0FF029A6269
:101C600000233B702046BDE8F8836FF01506C2E7FD
:101C700000ED00E04CD1000029DA00003FDA00005E
:101C8000B9D8000072DA00008ADA0000A0DA000099
:101C90002DD900002DE9F041664B8AB0D3F80480BD
:101CA00000AF0446C8F30805002686F31188BFF389
:101CB0006F8F02F07F43B3F17F4F07D102F00C0327
:101CC000082B12D15C495D4807F09BFD0026344685
:101CD0000023FB71EB1E092B00F28A80DFE803F082
:101CE0000A80837C88888888888610074CBF0C46C9
:101CF0000126EDE7524951484E4D07F082FD002381
:101D0000FB71EB6A9A0705D54E494C4807F079FDFF
:101D1000002332E0EB6A002B01DA4B49F5E7EB6A6E
:101D20005B00F5D54949454807F06BFD6B69A26931
:101D300043F480736B61BFF34F8FBFF36F8F6B6999
:101D400032F8022C23F480736B61BFF34F8FBFF323
:101D50006F8F4DF602739A4208D0AB6ADBB273B351
:101D6000FA1D01212046FFF713FF37E02368384AA8
:101D70003248012107F0A6FC2368FA79DAB907F1A5
:101D8000080504F1200C206861682A4603C2083463
:101D900064451546F7D17A6A002E45D0C2F3080192
:101DA00021B96FEA52226FEA42227A6207F10801F2
:101DB0001846FFF7A1FD2837BD46BDE8F081AB6AA4
:101DC00013F47F4F04D0F91D0120FFF725FE05E035
:101DD000AB6AB3F5803F9BD3FFF786FE0346CCE7A3
:101DE000FA1D0021BEE7F91D0020EEE719498CE736
:101DF000194A1A4B18F4F87FE8468AB018BF134600
:101E00006A461749C2E905134FF400731384103D65
:101E1000144BD56142F8103F084800234FF411518C
:101E2000FFF70AF9C54673E722F4FF7222F00102B8
:101E3000BBE700BF00ED00E0EDDA00004CD1000090
:101E400018DB00002FDB000050DB00005EDB000031
:101E50007DDB000099DB0000D4DA0000BFDA00006F
:101E6000BDDB000004000001044B5A6942F010027F
:101E70005A615A6922F008025A61704700ED00E089
:101E8000EFF30880EFF3098101B57246FFF702FF17
:101E900001BD00BF002080F31488BFF36F8F0F488F
:101EA00080F3088803F07EFE00200D490860BFF330
:101EB0004F8F00F02BF8202080F3118809484FF451
:101EC0000461401880F30988EFF31480022108436D
:101ED00080F31488BFF36F8F00F0FAF8C03600204B
:101EE00094ED00E0002900200749D1F8902000235C
:101EF000C2F307221846934200DB7047C1F89830BE
:101F0000C1F8A0000133F6E700ED00E008B572B6B5
:101F1000002383F31388FFF7E7FF144B4FF0FF32E2
:101F2000C3F88020C3F88420C3F88820C3F88C202D
:101F3000C3F89020C3F89420C3F89820C3F89C20DD
:101F4000C3F88021C3F88421C3F88821C3F88C2109
:101F5000C3F89021C3F89421C3F89821C3F89C21B9
:101F600062B6BFF34F8FBFF36F8F08BD00E100E093
:101F7000084B9B6883420BD1EFF3058343B1064BBB
:101F80005A6842F080525A605A6A22F400425A62F9
:101F900005F070BCB81C002000ED00E015498A680F
:101FA0004FF030001044EFF3098C80E8F01F202040
:101FB00080F31288BFF36F8F0F4F4FF000664A69AE
:101FC0008A603E60D2F880000C4C2060D2F8840019
:101FD0000023C2F8843080F3118804B5104600F065
:101FE0000DF9BDE8044002F1300090E8F01F8CF3D9
:101FF00009887047B81C002004ED00E0F0180020AC
:102000001EF0040F0CBFEFF30880EFF30980816925
:1020100011F8021C0229FFD001B5724607F0E6FB59
:1020200001BD00BF40B2002807DB044A410901237B
:1020300000F01F00834042F82130704700E100E0CB
:1020400040B200280CDB4309064900F01F00203392
:102050000122824041F82320BFF34F8FBFF36F8FDF
:10206000704700BF00E100E0054B420900F01F008F
:1020700053F82220012303FA00F01040704700BFFC
:1020800000E100E040B20028A8BF00F1604001F18B
:102090000101B8BF064B4FEA4111ACBF00F56140EA
:1020A00000F00F00C9B2B4BF195480F80013704794
:1020B00014ED00E0044B054A23F07F039360BFF367
:1020C0004F8FBFF36F8F70470000000000ED00E0FE
:1020D00008B5FFF7EFFF074AD2F8883023F4700302
:1020E000C2F88830FFF7E0FBFFF7EAFB00F05CF88E
:1020F00004F08AFB00ED00E042F8203C009B42F82F
:102100001C3C0A49019B42F8183C029B42F8143CD3
:1021100021F001014FF0807342F8043C42F8081CA2
:102120000023203A0265C0F884307047A1080000FF
:10213000094A0346906870B113F1160F006F05D07D
:10214000A0F140029A4205D8834203D2814228BFBF
:102150000020704700207047B81C002008B51546C5
:102160000C4A0D4B9060D0F880201A600E4600F0AB
:1021700045F82C4686F309880020044B98472046F2
:10218000002100220023024C204700001998000083
:10219000A1080000B81C0020F0180020014B1022FC
:1021A0001A61704700ED00E0044800232021C218A6
:1021B0000133302B82F80013F9D1704700E100E0C1
:1021C00008B5EFF30583064A103B02EBC30152F852
:1021D000330049688847BDE80840FFF70DBC00BFE1
:1021E00084CE0000024B034A0348012100F08AB864
:1021F00000000420000000204CD20000026F054BBC
:10220000403A1A60044A4021C3E9011218460121EC
:1022100000F082B8F418002000000B1508B5034642
:102220001048D0F89020C2F30722013A934207D910
:102230000D480E4A012107F045FA6FF0150008BD60
:10224000C0F898300A6822F01F021A4342F01002C8
:10225000C0F89C208A6842F00102C0F8A02018460D
:10226000EDE700BF00ED00E02CD10000D4DB000062
:10227000F0B50E4685B01F4604460025B5420DDA7E
:10228000606810B397B1431E18420AD0104A114833
:102290002B46012107F016FA6FF01502104605B023
:1022A000F0BD1F28F2D921680B42EFD123680193BA
:1022B00007F0D5FAA36801A90343D0B20393FFF74F
:1022C000ADFF10F1160FE7D0421C01350C34D5E7F5
:1022D000FADB00002CD10000044B0522C3F8942047
:1022E000BFF34F8FBFF36F8F704700BF00ED00E06B
:1022F000BFF35F8F024B0022C3F89420704700BFEA
:1023000000ED00E010B5034C01232278FFF7B0FF89
:10231000207010BDD81E002008B50B4A002312788B
:10232000FFF7A6FF10F1160F07D0084A0021D2F8D8
:102330009030C3F30723984200DB08BDC2F8980031
:10234000C2F8A0100130F2E7D81E002000ED00E036
:102350002DE9F0435E485F49D0F890300D68C3F333
:1023600007239D4285B000F2B080FFF7C1FF4968A6
:102370000022954201F10C011BD1574C574F25709B
:102380006846FFF74BF9DFF85881DFF858910646A9
:102390000025AE4220D123784D490020D1F890206D
:1023A000C2F307229342C0F28A80FFF795FF002014
:1023B0004FE0C0F8982051F80C3C23F01F03134362
:1023C00043F01003C0F89C3051F8043C43F0010383
:1023D000C0F8A0300132CCE7009800EB05114FEABD
:1023E000051CCB683B40B3F5000F49D00AD8B3F5C4
:1023F000001F31D0B3F5800F37D0B3F5801F13D055
:102400000135C6E7B3F1007F43D0B3F1805F49D017
:10241000B3F1807FF4D150F80C3088684A6807F037
:102420001EFA40F0887009E050F80C3088684A685D
:1024300007F015FA40F0885040F43020039001A9CD
:102440002078CDE90123FFF7E9FE002833DA6FF0A9
:10245000150005B0BDE8F08350F80C3088684A6874
:1024600007F0FDF940EA0900E8E750F80C30886809
:102470004A6807F0F4F940F0C06040F40030DDE74E
:1024800050F80C3088684A6807F0E9F940F082702B
:10249000D4E750F80C3088684A6807F0E0F940F457
:1024A0008020CBE750F80C3088684A6807F0D7F9ED
:1024B00040EA0800C2E7237801332370A0E7C1F89F
:1024C0009830C1F8A000013368E74FF0FF30C0E753
:1024D00000ED00E058D20000D81E00200000F0FF00
:1024E0000000021100000811F0B587B007460E4643
:1024F00014460021102268461D460AF07AFB02238A
:102500008DF802302A46054B019321466846CDE9F5
:10251000047605F069FF07B0F0BD00BF7F980000AA
:1025200008B5024B1B689847002008BD0019002021
:10253000034B044A1860937843F00203937070478A
:10254000001900204406002008B50649064821F07D
:102550000701C1F1005202F5802206F03EFB002087
:1025600008BD00BF7F4A00200419002070B54169F2
:10257000857A0C4E044659B1437ADB0706D42423EE
:1025800003FB0563DB691B689B6898470023636155
:1025900005EBC505214606EB8500BDE870400AF055
:1025A00032B800BF540A0020024B242202FB003044
:1025B000704700BF540A00202DE9F04385B005465E
:1025C0006846039190461C460AF024FADDE900674C
:1025D000EFF31189202383F31288BFF36F8F6B8A87
:1025E000002B41D02A8A9A4225D90022002328466E
:1025F00004F068FB0446F0B189F31188BFF36F8FD4
:10260000039B002B41D032463B4668460AF027FA2E
:10261000A27A264B242101FB02332046DB691B688A
:1026200003A91D68DDE90023A847606170BB20464F
:10263000FFF79CFF24E0698A4B1E6B8289F31188A7
:10264000BFF36F8F2B7D2A8A2C6A1B3323F0030381
:10265000521A02FB0344154B154AEB1A9B105343C5
:10266000A3722B7DE372CBE789F31188BFF36F8FE1
:1026700023464246284604F025FB04460028BFD1E5
:102680000024204605B0BDE8F083636101230025E6
:102690002381039B6382E27A6560294604F1180076
:1026A0000AF0A7FA63692582E360EAE7540A00208A
:1026B000398EE33870B50D4C242500B970BD037A0E
:1026C0004668002BFAD0013BDBB20372002BF5D138
:1026D000C3604360837A05FB03439B6913B198474A
:1026E0003046EAE7FFF742FFFAE700BF540A00204E
:1026F0000E4A0123C2F840354FF080424FF080511E
:10270000C2F87835D1F83001082808D1D1F8341151
:10271000052904D80648415C09B1C2F838364FF0A3
:1027200080430122C3F880250020704700E001406B
:1027300043DC000048B1054B054A1B68B3FBF2F3CC
:102740005843044B43F001031847704758080020D2
:1027500040420F00A0D1000008B50448044A3F23BE
:10276000C0E9002303F0FCFA002008BD1019002086
:10277000FFFF0F002DE9F04190F8283003F01F0310
:10278000012B04460F4600F128061BD0022B05D072
:1027900043BB90F8291007F089FD03E0818DC9B291
:1027A00007F061FD0546E8B1304607F04BFA0246F6
:1027B00068688368A2B99B684BB13A463146BDE868
:1027C000F0411847818DC9B207F034FDEAE76FF098
:1027D00085030AF081FA0F4A13500020BDE8F0810A
:1027E000DB68E9E794F82910204607F04AF9024629
:1027F0000028ECD0304607F025FA40B91369002BC9
:10280000E5D03A463146204698470346E1E7D3688B
:10281000F5E700BF0C0000002DE9F04F0446087EEC
:1028200030F0800893B00D46174640F09B8492B17B
:102830000846FFF73FFF6B7ED80706D4990740F1A3
:10284000AA802B7E002B40F0A680204613B0BDE866
:10285000F04F07F023BA4B7E9A0705D5802803D1A5
:102860002846FFF727FF96E09E0704F1280900F0AD
:102870006284002840F03484D9072FD52B8A082B96
:1028800001D028460AE0EA681368A3625368C9F8D1
:102890000430294607F007F8054610B1FFF70AFF94
:1028A0006FE2484607F0CEF9E28D70B9B2B1294621
:1028B000A06908F0A1FC0146002800F043842046EE
:1028C00013B0BDE8F04F07F078BE3AB1114620468C
:1028D00007F06EFE0546002800F034840AF0FCF98B
:1028E00094F82820B94E002312F0600F8351C2F3F0
:1028F000411307D0032B40F0B5810AF0EDF96FF0DA
:1029000085033CE0484607F09DF994F829300028FB
:1029100040F04081013B0A2BEFD801A151F823F090
:102920007B2A0000FB280000FD2A0000FB28000095
:102930004D290000FB280000FB280000FB280000B8
:10294000CD290000FB2800002F2A0000A069618D1E
:1029500003697F29D3F88030CFD8A28D002ACCD14B
:10296000E28D002AC9D194F82820D206C5D194F866
:102970003020022A05D10AF0AFF94FF0FF3333506F
:1029800018E01B070BD5C9B207F0BEF9804648B165
:10299000002D7FF465AF404613B0BDE8F08F0123F2
:1029A00084F8393094F83030012B0DD1638D5BB948
:1029B00084F830300AF090F93358002B00F0DE83B1
:1029C000002D40F0D581DCE10123F1E7204606F03F
:1029D000B7FF628DFF2A01468FD8E38D002B8CD183
:1029E00094F82830D80688D194F83030002BC2D023
:1029F0002AB1D2B2204607F042FB0028BBD0618D3D
:102A000094F838308B42D5D0C9B2204607F03EFB4F
:102A100080460028BCD1628D002A14BF0223012306
:102A200084F830300521204607F053FEC2E794F8C1
:102A3000283003F01F03012B7FF45FAFE38D002BE1
:102A40007FF45BAF628DFF2A3FF657AFA18DFF2960
:102A50003FF653AF94F83030022B8CD1D2B2C9B2CA
:102A6000204607F028FD10F1020F804640F0FF805D
:102A70000AF032F946F800809CE7E38DA18D002B27
:102A80007FF43BAF94F83030002B3FF474AF012B50
:102A90000FD100297FF46FAF12F01F020CD1638DAC
:102AA000012B87D194F86C306FF3C30384F86C303A
:102AB00080E712F01F0217D0022A7FF47BAFB4F830
:102AC0002AA0BAF1000F7FF475AF5FFA81F8414692
:102AD000204607F0E4FD03460AF0FEF833500133C8
:102AE00006D14FF0FF3853E700297FF444AFD6E713
:102AF00052464146204607F0ABF85BE7E38DA18DD7
:102B0000002B7FF4FAAE638D022B5FFA81F813D1AC
:102B100094F8283003F01F0358EA03037FF4EDAE66
:102B2000A0690122090A07F0CCF800287FF4E5AE7D
:102B3000012384F839303DE794F8300000283FF451
:102B40001AAF01280DD100297FF415AF12F01F0232
:102B50000AD1012B7FF42EAF94F86C3043F00803B8
:102B6000A4E712F01F0211D0022A7FF423AF002B3A
:102B70007FF420AF4146204607F07CFD03460AF073
:102B8000ABF833500133ACD00122B2E700297FF417
:102B9000F2AEDEE70A2B3FF6B0AE01A151F823F00A
:102BA000D12B0000FB280000FB280000FB280000C0
:102BB000FB280000FB280000512C0000FB2800002F
:102BC00037300000FB280000653000000C000000DA
:102BD000E38DA18D022B7FF490AE94F83030002B62
:102BE0003FF4C9AE012B10D100297FF4C4AE12F01E
:102BF0001F020DD194F86C304FEA930808F00208D8
:102C0000C3F3001348EA030806E012F01F0210D0D5
:102C1000022A12D04FF0000805F10C0A504606F0C7
:102C20007EFEE38D98420ED20AF056F86FF00B0349
:102C3000A5E600297FF49FAEDCE7C9B2204607F085
:102C40003DFD8046E8E74146504606F04FFEB1E6BE
:102C500094F82820B4F82A80D1064FEA18235FFAA6
:102C600088F809D029462046FFF784FD8046B8F150
:102C7000000F7FF48DAE9DE6013B0E2B3FF63DAE7F
:102C800001A252F823F000BFC52C00000F2D000058
:102C9000F72D0000FB280000FB280000EF2D0000AE
:102CA000EF2D0000FB280000FB280000FB2800009F
:102CB000FB280000FB280000FB280000FB28000088
:102CC000412F000005F10C0A5046B4F82E8006F0A2
:102CD00026FE80450AD2B4F82E80204606F030FE4B
:102CE00048B101287FF409AE616F05E0504606F057
:102CF00016FE8046F1E7216F002900F0D0810A78A6
:102D0000424528BF4246504606F0DFFD52E62046C7
:102D100006F016FE08F1010201900146D2B22046EB
:102D200007F087F9824600283FF4E7AD05F10C086B
:102D3000D0F804B0404606F0F2FD9BF80020904227
:102D400003D2404606F0EBFD02465946404606F0E7
:102D5000BCFDDAF80CA0BAF1000F1CD1298AE38D72
:102D600099423FD809F0B8FF3358002B00F0068293
:102D70002846FFF79FFC09F0AFFF3358002B00F007
:102D8000FD81484606F05EFF0346A069002B00F077
:102D9000DC818021E2E1DAF8040083681B6B13B95F
:102DA000DAF800A0D7E7019998470028F8D0A0F1F9
:102DB000040B5BF8043F002BF2D01B78002BEFD004
:102DC000404606F0ACFDDBF800301A78904203D2A2
:102DD000404606F0A4FD82B2DBF80010404606F043
:102DE00074FDE6E7C91A404606F08AFDBAE72046B8
:102DF00006F0A6FD81E542460321204606F080FE4E
:102E0000824600283FF479AD06F017FFB4F82EB0E3
:102E1000E0B9BAF81430ADF82830DAF8103005F11E
:102E20000C081B88ADF82A30404606F078FD834533
:102E300008D2E08D9DF82820824228BF02460AA9C8
:102E4000404661E7404606F06AFDF3E79AF8153020
:102E5000DAF808208DF81530C44B1340C44A4FF0FF
:102E6000000893428DF8148058D1102106A808F06C
:102E7000B2FB031EFFF641AD0AA9102BDFF8F4E206
:102E800006A88C4628BF1023434501F1020134D81F
:102E90009B0002338DF81430CDF804C005F10C0A04
:102EA000504606F03CFD9DF81480D84528BFD84612
:102EB000404503D2504606F032FD8046B8F1020F7D
:102EC000C34628BF4FF0020B5A4605A9504606F0EC
:102ED000FCFCA8EB0B08DDF804B04FEA58030BEB41
:102EE00058025A4522D118F0010F3FF463AD019A00
:102EF000D15C504606F0F2FC5CE510F8012B4FEA7D
:102F0000121A02F00F021EF80AA01EF8022001F8A1
:102F100002AC01F8012C08F10108B5E79AF8143069
:102F20008DF81430DAF810300193B7E71BF8011B65
:102F30005046CDE9022306F0D9FCDDE90223D0E7B3
:102F4000204606F0FDFC20B101287FF4D6AC636F6B
:102F500000E0236F002B00F0A2805B88B3F5007FB8
:102F60007FF6CBAC844B0A9300238DF82C30E36CB6
:102F700004F14C0898455BD105F10C0B584606F05E
:102F8000CEFCBDF82AA0E38D9A4528BF9A4650454D
:102F900003D2584606F0C3FC82469DF828205245CD
:102FA00028BF52460AA9584606F08FFCBAF1050F11
:102FB00094BFAAEB0A0AAAF1050ABAF1000F3FF47E
:102FC000F9ACE36C43453FF4F5AC002B3FF4F2ACB5
:102FD0005A7D0F2A14D11A7D19690193524528BFD1
:102FE0005246584606F071FC019B1A7D524594BF2B
:102FF000AAEB020AAAEB0A0ABAF1000F3FF4DAAC14
:10300000226D9A423FF4D6AC1B68DEE75A7D0F2A48
:103010000AD11A7DBDF82A100A44ADF82A209DF87D
:103020002C2001328DF82C20226D9A42A4D01B68EE
:10303000002BEBD1A0E794F8303094F838A0002BA7
:103040003FF499ACE38D012B7FF457AC05F10C08EC
:10305000404606F064FCE38D9842FFF4E5AD51462E
:10306000404647E794F8283003F01F03012B7FF414
:1030700082AC204606F0F1FF00283FF47CACA38D23
:103080004268FF2B3FF639AC12799A42FFF435AC17
:103090000F2B3FF632AC234493F83AA0D2E76FF0FF
:1030A000150875E42946204607F087FA00287FF4C2
:1030B000E8ABA0690369D3F8801011F004017FF434
:1030C000C4AB08F0ADF8054600283FF45AAE0146FF
:1030D000204607F072FA00283FF4B7ABFFF7D1BBE8
:1030E0005A077FF54EAE80287FF44BAE2846FFF797
:1030F000E1FA94F83930002B3FF44DAC94F82930C4
:10310000052B05D1618DA069C9B206F0FDFD07460A
:1031100094F82930032B09D1638D022B06D1A18DA0
:10312000A0690022090A06F0CCFD0746002384F8B6
:103130003930B8462FE45B077FF523AE0028D2D1A3
:10314000FFF78EBB6FF00B071BE6E38D002B3FF400
:1031500020AE17F10C0118BF0121C90107F086FF4D
:10316000FFF773BB6FF0040815E400BF00FF020017
:10317000000302004DDC0000050F0500E38D3BB1AC
:10318000484606F05FFD00288CD12846FFF792FAEA
:10319000204606F06DFD00287FF4F3ADFFF755BB28
:1031A0000B78062B10B414D10369D3F89C20EFF3ED
:1031B0001184202383F31288BFF36F8F4B680020A4
:1031C0001860506A58B9C2E9083384F31188BFF314
:1031D0006F8F044810BC0022002309F06AB9036015
:1031E0005362F2E7F80900202DE9F043614F85B002
:1031F00020264FF0FF334FF0FF3201A9384603F08D
:1032000035FC039B1B69D3F89C40236A5BB1EFF349
:10321000118386F31288BFF36F8F216AE1B983F3BC
:103220001188BFF36F8F9DF80430062BE1D0072B78
:10323000DFD801A252F823F09F3200009332000041
:10324000BF320000A5320000E3320000D932000096
:10325000F33100006F330000606A0A682262814225
:1032600008BF626283F31188BFF36F8F0B7ED1F8C2
:103270001E205D06204609D1FFF7CEFA024600283F
:10328000C3D00721204607F024FABEE706F0E2FF8C
:10329000F4E700220121204607F01BFAA9E70022EB
:1032A0001146F8E794F86C3043F0040301A984F860
:1032B0006C30204606F050FD00220321EBE794F825
:1032C0006C306FF3820301A984F86C30204606F05D
:1032D00043FD00220221DEE701A9204606F03CFD65
:1032E00087E794F86C30D4F818806FF3820384F881
:1032F0006C30D8F81030D8F80890BFF35B8FD3F853
:10330000A030BFF35B8F9A0727D5D9F83C304046F1
:103310009847D9F82430002140469847D9F84030E2
:10332000054640469847D5B92946204606F0AEFEE8
:103330000546A0B9A06907F092FF831E5842584184
:1033400094F86C3084F8305023F0680343EA40135B
:1033500084F86C302A4604219DE74FF0FF350022A7
:103360000421204607F0B5F92A46072193E7029A7F
:10337000062190E7F809002030B589B0002200232B
:10338000CDE9062300246FF00703CDE90334CDE92E
:1033900001441A4B1A4900944FF48062194803F013
:1033A000B1FF1949174809F0D2F9184B18498B4257
:1033B00007D3184B184900208B4210D3002009B0C6
:1033C00030BD03F11402BFF35B8F52E8000F42E8F7
:1033D0000045002DF9D1BFF35B8F1833E7E703F108
:1033E0001402BFF35B8F52E8004F42E80005002D46
:1033F000F9D1BFF35B8F1833DEE700BFE93100007E
:1034000080220020E00F00205EDC0000F40A002093
:103410000C0B00200C0B00200C0B002038B50246D2
:1034200009490546806907F080FF044648B985F8D8
:103430003800284606F001FD044610B1A86907F0DF
:10344000A7FF204638BD00BFA131000070B5084C71
:10345000084E0546B44202D30024204670BD63687E
:1034600028461968FCF766FE0028F6D01834F1E704
:10347000F40A00200C0B002070B50646EFF3118112
:10348000202282F31288BFF36F8F1D4C236881F3D3
:103490001188BFF36F8F5B6893F86C30DB0705D43E
:1034A000BDE870402122002303F078BEEFF31183C2
:1034B00082F31288BFF36F8F256865B983F3118893
:1034C000BFF36F8F2368D3B130460022BDE8704050
:1034D000002303F02FBE61682A6822608D4208BF76
:1034E000626083F31188BFF36F8F686805F108018C
:1034F000C36998470348294608F08BFFE2E770BD8F
:10350000181900207809002030B585B06C4684E891
:103510000600054600221548002303A903F00EFA11
:103520000246E8B9039B94E803005D60083383E832
:103530000300EFF31180202383F31288BFF36F8F12
:10354000039B1A600A4A516861B9C2E9003380F3EB
:103550001188BFF36F8F07480022002303F0EAFDB4
:1035600005B030BD0B605360F1E700BF7809002063
:1035700018190020C004002038B54B78046945684C
:103580002069202B08D0222B19D009F0A5FB114B64
:103590006FF085021A5010E0CB88072BF5D1D36865
:1035A0001A6842609A8802819B79837207F0B2F8A8
:1035B00022460821284607F09AF8002038BD4B889B
:1035C0008381C3F3400203F001030276437622466F
:1035D0000921EFE70C00000008B5134602691069E5
:1035E0004A78212A13D133B909F076FB0B4B6FF0DF
:1035F0000B021A5009E0CA88072A00F1040128BF0B
:10360000072203F10C0006F060F9002008BD09F064
:1036100063FB024B6FF08502EBE700BF0C0000007C
:1036200073B504698DF807102025EFF3118685F333
:103630001288BFF36F8F0122E06B0DF1070105F0D7
:103640005FFF86F31188BFF36F8F012812D009F056
:1036500078F808B9A37EABB90D4BBFF35B8F01229D
:1036600053E8001F002903D143E800200028F7D1C8
:10367000BFF35B8F2122002304F1480003F05AFDC1
:1036800002B070BD0021212009F019F9CDE700BF7B
:103690002019002038B505690E49EB6B0024C3E9F9
:1036A0000144DC606B6B05F14800C3E90144DC6058
:1036B00009F02EF805F17800074908F0FDFF0749E9
:1036C00005F1240008F0F8FF284607F023F820460B
:1036D00038BD00BFE9A8000091AA00001DAB0000A2
:1036E000F8B50369BFF35B8F03F1A005D3F8A030F1
:1036F000BFF35B8FC3F38003994200AF0C4617D131
:10370000174A184B6E4688B0002908BF13466A4610
:103710001549C2E905134FF400739383134B42F824
:10372000103F134800234FF4E451FDF785FCB546E4
:10373000BFF35B8F5CB155E8003F43F0040345E8FD
:103740000032002AF7D1BFF35B8FBD46F8BD55E8C4
:10375000003F23F0040345E80032002AF3D0F6E7E7
:1037600076DC0000B3DD00007DDC0000030000011A
:103770007CD100002DE9F0470546D0F808A0894625
:1037800090461F4607F022FB0446C0B1067DF307B2
:1037900009D5037E1648174A012105F093FF6FF003
:1037A0007700BDE8F0873B464246494607F0C8FA35
:1037B00040B9237E104A0E48012105F083FF6FF0C7
:1037C0001200EEE79DF8203084F8198026F00606F6
:1037D000678323772675DAF81830214628469847FC
:1037E000227DB0FA80F35B0963F300022275D8E70B
:1037F0007CD100008FDC0000A9DC000070B505461C
:10380000866807F0E3FA0446D0B1037DDB0708D4ED
:10381000037E0D480D4A012105F054FF6FF077003B
:1038200070BD0146F3692846984738B1237D03F0FF
:103830000103227D63F300022275F1E70346F8E7F6
:103840006FF01200ECE700BF7CD10000CBDC000081
:10385000F8B587680546FB6B0C469847286907F062
:10386000A3FAD0B12146284607F0B0FA0646B8B10F
:10387000037D9B0705D0037E0B4A0C48032105F00E
:1038800021FF346824B1BB68314628469847044676
:1038900028463B6C98472046F8BD4FF0FF34F7E7C9
:1038A0006FF01204F4E700BFE6DC00007CD10000FA
:1038B0002DE9F341D0F808801746D8F83C3005468A
:1038C0000E4698470C48002200233946FEF774FE46
:1038D000044670B9094A0A4800963B46012105F0A2
:1038E000FBFE2846D8F840309847204602B0BDE895
:1038F000F0810676F5E700BF540A002007DD0000DE
:103900007CD100004FF08053D3F83021082A06D133
:10391000D3F83431052B04D8034AD05C704700201B
:1039200070470120704700BFA2DE000010F0080FB2
:103930000B4B42B20CD100F00F00002A4FF01402E2
:1039400002FB0033B4BFD3F80806D3F8080770476A
:10395000002AB4BFD3F8A806D3F8A807704700BF61
:1039600000700240F8B50246EFF31185202383F37F
:103970001288BFF36F8F00F0080707F034FD0126AF
:10398000864012F07F0F1E4B6FEA060432D057B10B
:103990001A6822401A601B4BC3F86C6485F31188C7
:1039A000BFF36F8FF8BD184F396821FA00F0C007D8
:1039B0000AD419682140196014490B68120654BFD3
:1039C000234033430B60E6E72140396051B2C943DD
:1039D00022F08000C90F00F2DA30090101EB40014A
:1039E0000848C0F80018D0F8041841F00201C0F8E7
:1039F0000418DEE7196821401960002FCBD1DBE7FE
:103A000080190020007002407C19002084190020D9
:103A1000EFF31180202383F31288BFF36F8F0A4BDB
:103A2000D3F8001C032261B949F27531C3F8001CB8
:103A3000C3F8142DC3F8001C80F31188BFF36F8FF7
:103A40007047C3F8142DF7E700E00640EFF311804C
:103A5000202383F31288BFF36F8F0A4BD3F8001C27
:103A600061B949F27532C3F8002CC3F8141DC3F8CC
:103A7000002C80F31188BFF36F8F70470022C3F8CA
:103A8000142DF6E700E0064070B5024607F0ABFCE7
:103A9000EFF31185202383F31288BFF36F8F531E3A
:103AA0000124062B04FA00F40FD80E4E0E4B316899
:103AB0001B680B43C34013F0010306D10B4802F50A
:103AC0009472214340F822303160094A136823433D
:103AD0001360084B8022C3F8042185F31188BFF3DB
:103AE0006F8F70BD7C190020841900200070024087
:103AF0008019002000E100E0F8B50306044623D455
:103B000010F0080720D100F00F02920002F180426D
:103B100002F51C32D2F84434B3B1EFF311862023FE
:103B200083F31288BFF36F8F07F05DFC084DC2F876
:103B3000A074012303FA00F12B6823EA01032B6030
:103B400086F31188BFF36F8F024BC3F81845F8BD99
:103B5000841900200070024008B50B7E012203F09A
:103B60000F0013F0800F02FA00F2124B12D0D3F8BC
:103B70001005104218D00B7E1A0709D40D4AC2F85E
:103B80000C3543F48073C2F80C35087EFFF7B4FFA0
:103B9000002008BDD3F814051042ECD1D3F8140569
:103BA0000243C3F81425E6E7D3F810050243C3F82F
:103BB0001025E0E7007002400B7E064A13F07F0FED
:103BC0000BBF012343F480735365C2F818350020FE
:103BD000704700BF0070024070B506460D4607F002
:103BE000F5F8044607F0FBF828BB204607F01AF961
:103BF00008B3802D16D1437E9A0744BF0E4A157034
:103C00005B070FD50D4B1B7813B90D4B01221A65BD
:103C1000204607F003F9002201463046BDE8704017
:103C200007F019B92846FFF72FFF20460121BDE80C
:103C3000704007F0D8B870BDDB1E0020DF1E0020EA
:103C40000070024070B506460C4607F0BFF8054606
:103C500007F0C5F820BB284607F0E4F80146F8B1A4
:103C6000ACB9437ED8071BD49A0704D50D4B1C7002
:103C70000D4B0122DA644B7E5B0708D50B4B1B789A
:103C800073B130460022BDE8704007F0E4B820462A
:103C9000FFF7FAFE28460121BDE8704007F0A3B8FF
:103CA00070BD00BFDB1E002000700240E01E00203F
:103CB00008B5054A0548032107F09DFB08F0CCFA3A
:103CC00002F074FB002008BD35DD000084D1000047
:103CD00038B545682C4654F8040B01F0C1F80B4B7D
:103CE0000022186001212720FEF7CCF9204602F0BF
:103CF00027FB05F1080002F065FB08F0A6FA044A6C
:103D00000448032107F077FB002038BD3419002058
:103D10003EDD000084D100000346024A0248012132
:103D200005F0D0BC4ADD000084D10000012810B5A8
:103D3000014602D0022807D0A0B90C4BBDE81040C4
:103D40001868002207F07BB8094B0A4C00221A7051
:103D5000094BC4F800332720FEF764F90123C4F8A7
:103D6000043510BDBDE81040FFF7D6BF881900200C
:103D7000DC1E002000700240FDFFDF01014601480B
:103D800008F017BF400A002008B5054B1970054B15
:103D90001B7813B10420FFF7F1FF002008BD00BF1E
:103DA000DD1E0020DE1E002010B50469087E0D4ACD
:103DB00007F019FB012303FA00F0136803431360B3
:103DC00003F05EFC4020FFF7D9FF4FF0FF324FF0C9
:103DD000FF3304F18401044803F020FA03F064FC8B
:103DE000002010BD781900204C0A00202DE9F04F6A
:103DF0004F4AD0F81080064689B04E48032107F09C
:103E0000FAFA4D4B1E6008F1840008F061FB0022B5
:103E10000023CDE9062300246FF00703CDE9033426
:103E2000CDE90144454B464900964FF400724548A0
:103E300003F068FA444F45494248DFF814A1DFF81F
:103E400014B108F084FC3A69434B134043F48203F5
:103E500043F040033B61B9463C763946304606F0B4
:103E6000C7FF054680B13D4A3248012107F0C3FA39
:103E7000284609B0BDE8F08F13690AEA030343EA54
:103E80000B0313612037E7E70134092C10D009EB4D
:103E90004412082C937C43F040039374ECD1D9F87E
:103EA00010312F4A1A402F4B1343C9F81031E9E75C
:103EB0002D4C2E4B2269DFF8A8A0DFF8A8B01340E4
:103EC00043F4041343F0400323610746A14667F01F
:103ED0007F0323762146304606F08AFF1C4A0546BA
:103EE0000028C0D10137092F19D009EB4711082F3D
:103EF0008B7C43F020038B7408D1D9F810310AEA87
:103F0000030343EA0B03C9F8103106E00B691340C1
:103F100043F4C02343F040030B612034D7E798F803
:103F2000803023F0720343F0720388F880309FE7FB
:103F300061DD000084D100008819002019400000D4
:103F4000C026002070100020AC1A002069DD00009F
:103F50000000F9FF400006000000BEFF72DD000017
:103F60000000F7FFFF0108008C1900200000DEFFB1
:103F700010B50C462046114606F056FF207E07F08D
:103F800032FA0146034807F038FA0120FFF7F6FE3F
:103F9000002010BDD01B002008B5064A0B7EC2F8D9
:103FA0000C3543F48073C2F80C35087EFFF7A4FD8E
:103FB000002008BD0070024010B50C7E4FF0FF32AB
:103FC0004FF0FF33114802F0E3FE2046FFF7CAFC32
:103FD00004F00F02012393400D4A14F0800F14BF28
:103FE000D2F81015D2F814156FEA030315BF0B4071
:103FF0000B40C2F81035C2F81435044802F094FEA4
:10400000044B8022C3F80421002010BD200A0020A8
:104010000070024000E100E02DE9F04FDFF8FCA263
:10402000BF4D87B004464FF0FF384FF0FF390022F4
:10403000CDE900894FF0FF31504608F0C1FD4FF047
:10404000FF31504608F0B8FD0746380733D5B54A6A
:10405000B548032107F0CFF9B44842464B4602F079
:1040600097FEEFF31182202383F31288BFF36F8F43
:10407000AF4B1B787BB1D5F8003413F400730AD131
:104080000121C5F82C15D5F82C15D5F80014890593
:1040900048BFC5F82C3582F31188BFF36F8FA34852
:1040A00002F042FE01212046FFF71AFB0022032105
:1040B000204606F0C4FEFB060DD59E4A9A48032111
:1040C00007F099F900212046FFF70AFB00220221A0
:1040D000204606F0B4FEBE060DD5974A924803214D
:1040E00007F089F900212046FFF7FAFA00220221A1
:1040F000204606F0A4FEB8074FD4F90710D5BFF349
:104100005B8F8E4B002253E8006F43E800210029AB
:10411000F9D1BFF35B8F4FF00108002E40F0B28061
:104120007A0740F1E380864B00261E70D5F88004A4
:10413000C0B28DF81000D5F88414C9B28DF81110F2
:10414000D5F88834D5F88C2443EA02239BB2ADF825
:104150001230D5F89024D5F894C442EA0C22ADF878
:104160001420D5F89824D5F89CC442EA0C2292B2C7
:10417000DFF8D0C1ADF8162010B9052900F09980FC
:10418000714A8CF80060D5F8703412789A4240F089
:104190009B806E4B00221A70A4E06D4BBFF35B8FC7
:1041A000002253E8008F43E800210029F9D1BFF332
:1041B0005B8F4FF0010BB8F1000F9ED098FAA8F971
:1041C000B9FA89F90BFA09F3B9F10F0F28EA0308D4
:1041D00016DDA9F11006F6B23146204606F0F6FDCE
:1041E000814606F01BFE002840D15A4A4E4833460D
:1041F000012105F067FA31462046FFF723FDDAE793
:1042000049F080063146204606F0E0FD029006F0B7
:1042100005FE50B9504A44483346012105F052FA90
:1042200031462046FFF7D8FCC5E7039000210298ED
:1042300006F0D9FD039B00221946204606F00BFE2E
:10424000B9F1000FECD13E4B494683F800B020464F
:10425000C5F850B006F0BAFD06F0E0FD01460028B2
:10426000DED04A46204606F0F6FDD9E7029000214E
:10427000484606F0B8FD029B00221946204606F08B
:10428000EAFDB8E796FAA6F3B3FA83F308FA03F265
:104290000F2B26EA020606DDA3F11001C9B2204663
:1042A000FFF7D0FC39E743F080012046FFF794FC8C
:1042B00033E701218CF80010C2B903F07F03ADF899
:1042C0001230ADF8142064E7204A012313708CF8F3
:1042D00000304FF4A063ADF81030D5F87034ADF86D
:1042E0001230059604A9204606F0DCFD7B067FF51A
:1042F0009AAE206984304FF0FF324FF0FF3302F066
:1043000019FC164E094F316861BB154802F04CFF8D
:104310002069843002F086FC85E600BF400A002058
:10432000007002408EDD000084D10000200A0020D1
:10433000DC1E0020A5DD0000BBDD0000D01B00203E
:10434000E01E0020DF1E0020DD1E0020DE1E0020FB
:10435000CC1B0020ECDD0000D3DD0000781900202C
:104360004C0A002091FAA1F8B8FA88F8B8F10F0FBA
:104370004146C6BFA8F11001C9B241F080012046F4
:1043800006F024FD814690F818B04FF0FF324FF050
:10439000FF33384602F0FCFC5846FFF7E3FA384694
:1043A00002F0C2FC0F4B8022C3F80421494620468C
:1043B00006F069FD0021484606F015FDBFF35B8F4E
:1043C000012303FA08F3084ADB4352E8000F1840C0
:1043D00042E800010029F8D1BFF35B8F3268134037
:1043E000336090E700E100E0CC1B00204FF08053E9
:1043F000D3F83031082B02BF024B0022C3F81C2C2B
:10440000704700BF007002402DE9F04105464FF0B3
:10441000FF324FF0FF33414802F0BAFC404B80229C
:10442000C3F884212720FDF71FFEA8B13D4F3E4B66
:104430003C681B68240C24041C434FF00108002C2A
:1044400037D13A4E40F2FF133B602720C6F80445AF
:10445000FDF7F6FDC6F80043354A13788BB1334BB0
:104460000021C3F808110121C3F80026C3F804167F
:104470005960D3F808110029FBD00021C3F80811B6
:1044800011702A4B0024C3F80045FFF7AFFF234803
:1044900002F04AFC21462846FFF7B0F9F0B1254A60
:1044A0002548012106F0A7FF6FF004052846BDE866
:1044B000F08194FAA4F6B6FA86F60F2E3346C6BFFC
:1044C000A6F11003D8B243F08000030701D4FFF730
:1044D00049FA08FA06F624EA0604B0E728468021DD
:1044E000FFF78CF905460028D9D1144B14491E68F2
:1044F000304604F07DFF10F1780F044603D13046BA
:1045000004F052FF0446002CD0DA0E4A0A48234633
:10451000012105F0D7F82546C8E700BF200A002092
:1045200000E100E0841900208019002000700240A2
:10453000D91E002009DE000084D1000034190020BB
:10454000241900202CDE00002DE9F04F474BDFF846
:1045500020B1D3F85421DFF81C8187B01AB30022B0
:10456000C3F85421D3F8042391021CD5D3F8C034E6
:10457000002B14BF4FF001224FF480723E4B9B681A
:104580003BB99BF8000006F02EFF0123834022EA8E
:104590000302D8F800301343384AC8F800301368D3
:1045A00023F001231360314BD3F8604134B1002272
:1045B000C3F86021D3F86C44C3F86C44D3F82821C5
:1045C0004AB10022C3F828212D4B187806F00BFFC2
:1045D000012383401C439BF800509BF900102B07DC
:1045E00032D40029B4BF274B274B05F00F029200AD
:1045F00013441A68002A5FD000221A602846FFF789
:1046000095F9224B1A7800F0010050401870FFF71E
:10461000EDFE1F4B28461A6806F0E5FEC240D7079C
:1046200006463DD4002916DA882D06D101461948E0
:1046300006F0E3FE0220FFF7A1FB104A01231168F8
:10464000B3400B43136031E0134B144A13EA2103C8
:1046500038BF1346CDE701460E4806F0CEFE0220D5
:10466000FFF78CFB013D062DE7D91FE000700240EB
:10467000DA1E002084190020200A00207C19002066
:10468000DB1E00200871024030710240D91E00205C
:1046900080190020CC1B00202C7102405071024078
:1046A000002D40F00181A34B0122DA6481238BF8B5
:1046B0000030A14802F038FB9CB1D8F800309F4A86
:1046C0009F4FDFF8809224F001210B43C8F800309F
:1046D000136823EA01031360A4B20126002C40F002
:1046E000E780944BD3F800217AB10024C3F800414D
:1046F000954B964A96481C70032106F07CFE904B21
:1047000022461868042106F09AFB8A4BD3F85821F8
:104710002AB30022C3F85821D3F80044C3F8004458
:10472000E60505D5884B012208201A70FFF726FB05
:10473000A50505D5844B002210201A70FFF71EFB3B
:1047400060050CD5804B1A784AB100221A70794B5B
:104750000122C3F8082520209A65FFF70FFB754B4F
:104760007C4CD3F85C31F3B1734B9B681BB99BF85D
:104770000030590617D06F4B0022C3F85C21236824
:104780006E4A23F001132360D8F8003023F48033FD
:1047900043F00103C8F800301368042023F001132C
:1047A0001360FFF7EBFA2568D8F800301D4078D089
:1047B000604BD3F82C45002C73D15F4800220023B6
:1047C00002F0E6FA00286CD115F0012314BF93FA29
:1047D000A3F595FAA5F5B5FA85F50F2D88BFA5F1D6
:1047E0001009574B8CBF5FFA89F945F080091868AA
:1047F000494606F0EBFA029006F014FB4FFA89F3F3
:10480000039309F0080304934FFA89F3002B06463B
:1048100009F00F0A80F2A280029B048A5B8BC768B2
:10482000C3F30A039C4207F0604272D9B2F1005F01
:104830001C4605D039464848474F1A4608F0CBF980
:104840004FF080530121D3F83031082B02BF394B90
:104850008222C3F81C2CD8F80030049A8BF8009000
:1048600001FA05F523EA0503C8F80030314B002AA8
:1048700040F0B580039A002A4FF0140202FB0A327E
:10488000A9BF0AF10A0A03EB8A03C2F80077C2F84B
:104890000447AFBF43F82A10C2F80076C2F80446B6
:1048A000596007B0BDE8F08F0029BFF6DBAEC4E663
:1048B00094FAA4F5B5FA85F506FA05F345F08005F6
:1048C0002946386824EA030406F080FA06F0AAFABA
:1048D00082462846FFF72AF801460AF10C0005F047
:1048E00016F8BAF81030002B7FF4F8AE504606F0F8
:1048F0009DFA18B1504606F09DFAEFE6284606F0FC
:1049000072FD0146484606F078FD0220FFF736FAB0
:10491000E4E6029206F08AFA029AB2F1005F0646D5
:1049200005D039460C480C4F224608F054F9002EA9
:1049300036D085E700700240200A00207C19002054
:1049400088190020CC1B0020DC1E002043DE000064
:1049500084D100008019002038190020038A56F8FD
:104960000C7F09F008021F44244B0AB3D3F8C0346B
:10497000DA0321D5304604F0D2FF00232146304629
:10498000059304F09CFF029B5A8B059BC2F30A021D
:104990009A4205D1304604F0C2FF00287FF450AFA0
:1049A000174901220B68AA4023EA02030B6047E77C
:1049B0000AF5947253F822300593304604F0AFFFA5
:1049C000059B9842044608D20E4A009001210E48E9
:1049D000059304F081FE059BD0E71C46CEE7039AC1
:1049E000002AB5BFC3F8A076C3F8A077C3F8A446E1
:1049F000C3F8A447B4BF5962996452E700700240FB
:104A00008019002049DE000084D10000EFF31183FB
:104A1000202282F31288BFF36F8F174A12781AB3DD
:104A2000164AD2F82C15F9B10021C2F82C154FF016
:104A30008052D2F83021082A05D083F31188BFF3C1
:104A40006F8F002070470E4AD2F8000CC02140B989
:104A500049F27530C2F8000CC2F8141CC2F8000C00
:104A6000EBE7C2F8141CE8E783F31188BFF36F8FFC
:104A70006FF00A00704700BFDC1E0020007002408B
:104A800000E0064073B50022009211464023044620
:104A9000FEF770FE024648B1604A6148012106F007
:104AA000AAFC6FF00404204602B070BD00904023C1
:104AB00020468021FEF75EFE04460028ECD15949CD
:104AC000594B4860C860012618688E6004F015FCD8
:104AD000051E07DA554A52482B46314604F0F2FDCE
:104AE0002C46E0E7EFF31185202383F31288BFF310
:104AF0006F8F4F4B4FF40062C3F80024FEF702FFA4
:104B000008B1FEF785FF4FF08053D3F83031082B02
:104B100018D1EFF31180202383F31288BFF36F8F36
:104B2000444BD3F8001CC022002970D149F27531E2
:104B3000C3F8001CC3F8142CC3F8001C80F31188C0
:104B4000BFF36F8F3A4B0122C3F80025D3F800243E
:104B50001205FBD54FF40062C3F800244FF08053D8
:104B6000D3F83031082B17D1EFF31180202383F3D2
:104B70001288BFF36F8F2F4BD3F8001C002949D147
:104B800049F27532C3F8002CC3F8141CC3F8002C8A
:104B900080F31188BFF36F8FFEF7B4FE30B1FEF7DC
:104BA00055FFFEF7AFFE08B1FEF732FF4FF080531E
:104BB000D3F83031082B1E4B0AD140F2E372C3F810
:104BC00000284022C3F80428BFF36F8FBFF34F8F34
:104BD0008022C3F81C250122C3F83025164B40F271
:104BE000FF121A60154B00211960154B1960154B07
:104BF0001970FFF7FBFB144B1970FEF783FE08B129
:104C0000FEF724FF85F31188BFF36F8F4BE7C3F8DE
:104C1000142C93E70022C3F8142CB9E768DE0000D7
:104C200084D1000024190020341900208ADE0000FD
:104C30000070024000E00640841900208019002026
:104C40007C190020D91E0020DB1E0020084B70B507
:104C5000C31A0D4607499B10044659430648402293
:104C600006F0F3FB2B4601462046BDE8704018478E
:104C7000E81B0020B76DDBB6A4CD000073B50C4C6B
:104C80000C4A4023041B00930D460B460A49A4100E
:104C900061430646094806F003FC011E05DA30466A
:104CA0002B4602B0BDE87040184702B070BD00BF8F
:104CB000E81B002009B50000B76DDBB6A4CD0000ED
:104CC0000022F8B5012105461046FDF7DBF9104832
:104CD00001F06EF80446B8B901F08AF82F690D4961
:104CE000384604F0F7FA031E09DB01263E642D69FD
:104CF000084905F11C0004F0EDFA031E02DA1C4617
:104D00002046F8BDEE64FBE76FF00404F8E700BF4F
:104D1000454E0000F8D200001FB500220123CDE966
:104D20000223094ACDF800D06B46CDF804D006F036
:104D3000E4FB002805DB4FF480420023684602F0C4
:104D400027F805B05DF804FB1BB5000010B5EFF3C4
:104D50001184202383F31288BFF36F8F074A1368EF
:104D600023F00201DB07116002D4012006F069FF85
:104D700084F31188BFF36F8F10BD00BF381C002073
:104D800030B4104B0C2202FB003301460020D3E963
:104D90000E529863EFF31180202484F31288BFF33E
:104DA0006F8F1C6C04F0C00444F002041C6480F398
:104DB0001188BFF36F8F1DB12B46034830BC1847D5
:104DC00030BC7047E81B0020A4CD000010B4EFF306
:104DD0001182202383F31288BFF36F8F1748016875
:104DE00041F002040460C80707D482F31188BFF3BE
:104DF0006F8F012010BC06F01CBF4FF08041D1F82E
:104E00000C04D1F80C14C907EFD5EFF3118083F32C
:104E10001288BFF36F8F0A490B6C03F0C00343F095
:104E200002030B6480F31188BFF36F8F82F3118844
:104E3000BFF36F8F002010BCFFF7A2BF381C00200B
:104E4000E81B002010B1012804D07047034B1B6CF5
:104E50005B0701D1FFF794BF704700BFE81B00203C
:104E6000024AC3B21C2003FB00207047E81B00204D
:104E70002DE9F0413849BFF35B8F0746012251E825
:104E8000003F41E800200028F9D1BFF35B8F33B920
:104E9000324933484B60CB608A6004F02EFA7B1EA7
:104EA000012B2BD8012F07D14FF08043D3F81C34AE
:104EB00003F00303012B21D007F043FC0546F8B9AA
:104EC000284B1B78E3B14FF080430222C3F808233C
:104ED0000646DFF894804FF08044D4F81824D4F8C4
:104EE0001834D20315D503F00303012B01D0012F91
:104EF0000FD155B386F31188BFF36F8FBDE8F081F2
:104F0000EFF31186202383F31288BFF36F8F0125FF
:104F1000DFE7ADB1304604F093FCD4F81835002B30
:104F2000DBD1D4F80421002AD7D0C4F80431D4F856
:104F300004310123C4F81835C8F88031A360CCE7E8
:104F40000021212007F0BBFCE7E74FF0804302225D
:104F5000C3F80423D2E700BFE41B0020D41B0020C9
:104F6000041C0020051F002000E100E008B50748F0
:104F700007F0AEF938B10648FDF7DAFA0448FBF756
:104F800071FC002008BD6FF01200FBE714CE00009A
:104F9000954F00000A2838B5074D044604D1AB6888
:104FA0000D215B6828469847AB6803485B68E1B20F
:104FB0009847204638BD00BF14CE0000F0B54468C5
:104FC0001646A068227C01F01F0587B045EA42150D
:104FD00000286DD0B6F5001F04D1294607F027F947
:104FE000002056E06268607CC2F8240501AA002017
:104FF000B6F5800F0190506037D1B3F1007F14BF38
:10500000052304238DF804300023CDE90423039302
:10501000E36823FA01F111F001010DF103073AD120
:10502000B6F1A07F37D105F01F036A0903F5E073DD
:1050300026D0012A3FD1214A52F82330DB072AD457
:10504000A0683A46294607F068F816301BD0029748
:10505000A06803AA294606F02CFF002819DBA068E7
:105060000122294607F090F8BAE7B3F1C06F05D0E6
:10507000B3F1007F14BF01230223C3E70323C1E779
:105080004FF0A042D8E7A068394601F065F8002843
:10509000DDDA07B0F0BDA0683A46294607F03DF8D2
:1050A0000028D5D19DF80310A06801F04FF8CFE794
:1050B0006FF08500EDE751F82330FFDE000300506C
:1050C000420970B5034602D0012A17D070BD0D4EBB
:1050D000326951680029F9D003F01F0301250C68DB
:1050E0009D400029F2D08A682A4002D04B683046A1
:1050F00098472CB1236821461C46F2E7024EE7E7A9
:105100002346F8E7DCCD0000C0CD000038B5456887
:10511000A86890B107F030F8014670B9A86807F0A8
:105120000FF8044658B902460649A86806F0F2FF8F
:10513000224605210620FCF7A5FF002038BD6FF0B0
:105140000400FBE7C15000002DE9F043476840F23E
:105150000636D0063B7C87B002EA060654BFC2F38F
:10516000401C4FF0030C01F01F05B6F5837F144679
:1051700045EA43158DF803C045D00DD8062E16D04C
:1051800005D8A6B1022E40D06FF0150038E0B6F574
:10519000807FF9D101260AE040F20222964236D001
:1051A000B6F5407F35D0B6F5007FEDD1022601235C
:1051B000220303FA01F12ED57B68C3F80815B868FD
:1051C00090BB05F01F036D092BD0012D75D13D4A11
:1051D00002EB830284F48033D2F80017C3F3004358
:1051E000C4F3404444EA430421F4E16144EA8C04FA
:1051F00021F0070144EA06230B43C2F800370020E0
:1052000007B0BDE8F0830726D1E70426CFE70526DF
:10521000CDE70326CBE7630344BF7B68C3F80C15D7
:10522000CDE74FF0A042D3E70DF10202294606F088
:1052300074FF14F4403F80460CD1B868294606F04C
:10524000A1FFB8F1000FDAD19DF80210B86800F0A4
:105250007DFFD4E74FF0000901ABCDE90199CDE91D
:105260000439CDF80C90B86803AA294606F021FE4F
:105270004845C4DB14F4003314D084F480349DF822
:1052800003308DF80E30C4F300448DF80C608DF8B7
:105290000D40B8684B4603AA294606F0C2FE002816
:1052A000CFDAACE7CDE904330DF103030393B8681B
:1052B00003AA294606F0FDFDF1E703F5E07350F877
:1052C0002330FFDE00030050036803F01F025B0978
:1052D000026004D0012B034818BF002070474FF034
:1052E000A0407047000300502DE9F04FDFF8949183
:1052F000DFF894A185B01546834600EB810140F2AA
:10530000FF18594503D1002005B0BDE8F08FDBF848
:1053100000305E04C3F3C322C3F3080400F1AC8081
:105320001B0E19F80270444508BF4FF0FF34222BC2
:1053300000F2A580DFE803F012191F22252B22A31B
:10534000A3A3A33B68A3A3A3A3A3A3A3A3A36B812A
:105350008487A3A3A38A9194979A9D00C5F80C45CE
:10536000601C5ED10BF1040BCBE7C5F81445621C41
:10537000F8D000265FE0C5F80845F1E7C5F810450C
:10538000F5E7631CC5F80845ECD0002604E0661C70
:10539000C5F80C45E6D0012603A80394FFF794FF57
:1053A000039B012202FA03F3C0F80C3508E0C5F8AC
:1053B0000845002FDBD1631CD4D0002632460627D7
:1053C000DBF80030019303F40040002818BF0022EE
:1053D00003A8009218BF01260394FFF775FF039CF2
:1053E000019B009A00EB8400C3F3412CD0F80047E6
:1053F0003B0243EA8C03134304EA0A04234343EACF
:105400004603C0F80037ADE7C5F80C45D1E7C5F84D
:105410006045601CDBF80030A4D0C3F30043002BD0
:10542000B9D003A80394FFF74FFF039B012606FAA8
:1054300003F3C0F808353246C2E7C5F86445E8E72B
:10544000C5F86845E5E7C5F86C45E2E7C5F82445C9
:10545000621C87D000220126B2E7C5F828457FE705
:10546000C5F83045F4E7C5F83445F1E7C5F83845E7
:10547000EEE7C5F83C4573E76FF0150044E76FF0C1
:10548000850041E713DF0000F0F8FCFF38B570B18C
:10549000074C084A4FF400450021E0FB054100237A
:1054A0002046FAF72DFEBDE8384007F008BA38BDAF
:1054B0003F420F0040420F002DE9F041456895F84A
:1054C000264000AF04F0030814F00304064618BF9A
:1054D000012406F0A7F8A86A30B92146304606F044
:1054E0001AF9BD46BDE8F08106F0F2FE0346B0B9F8
:1054F000AA6A6C4688B011686A461E48C2E905016E
:105500004FF4007191831C4942F8101F1B484FF45F
:10551000E251FBF791FD6FF01200A546E1E7B8F10B
:10552000000FEB8DA86A95F82C100CBF4FF4B01249
:105530004FF4D0121343D0F810E0D0F80880DEF812
:105540000050DA0748BF83F440234FF0010C23F4E6
:1055500080120CFA01FCDB074CBF4CEA050525EA7A
:105560000C05CEF80050D8F8003098470028B4DA7F
:10557000B7E700BF1BDF00000300000154D10000AB
:105580002DE9F041044647680D4607F0DAF888B186
:105590004FF02008EFF31186314688F31288BFF3ED
:1055A0006F8F606806F028FA50BB86F31188BFF34E
:1055B0006F8FEFE71F4B1B78002BE9D04FF02008CF
:1055C0006426606806F018FA70B9012006F0DEFA69
:1055D000013EF6D10021212007F071F9F0E786F3B2
:1055E0001188BFF36F8FF5E7EFF31186314688F32B
:1055F0001288BFF36F8F606806F0FEF90028EED0C6
:10560000BB691D706368BA691B680020C3F8442534
:105610000122C3F84825C3F82001D3F82041C3F87C
:105620005801D3F858019A6081F31188BFF36F8F46
:10563000BDE8F081051F00202DE9F041002205465C
:1056400001210220FCF71EFD0220FCF7EBFC6C6838
:105650000121E06806F024FA6B681A682369C2F831
:105660002435617D237D0B43A17D0B43C2F86C354E
:105670006F68D7E9004313F0010340D0D5F81080DC
:1056800004F10C0108F10C0204F5907006F0BBFA6D
:10569000061E07DA274A2848012104F00AF8304696
:1056A000BDE8F08198F80C0000F06EFB0823C4F808
:1056B0000035BB69C4F844350023C4F848350123DC
:1056C000A360D4F85831002BFBD00021C4F800159A
:1056D0006D682C68E86806F0E3F90823C4F8003523
:1056E0002A7A52B9EB69C4F834350123C4F8383545
:1056F000C4F81021D4F8102123600026CFE7082237
:10570000C4F80025BA69C4F84425C4F84835012313
:10571000A360D4F82031002BFBD00023C4F8203143
:10572000D4F820310123E3604FF48073C4F80433CC
:10573000C7E700BF68DF000074D1000070B5012327
:1057400083400E4ABFF35B8FDC4352E8001F01EA3F
:10575000040542E80056002EF7D1BFF35B8F4FF4EB
:10576000803282400648C0F80823BFF35F8FBFF342
:105770006F8F0B4214BF0120002070BD881C0020D9
:105780000010014070B40E49D1E90034D01AC3189A
:1057900044F1000422F07F46C1E90034A6F500136D
:1057A000B3F5400F09D2074B1B681A0A1B069C1958
:1057B000054B42F10005C3E9004570BC02F04CBA4C
:1057C000101100208C1C00201811002011B3BFF311
:1057D0005B8F0123104A834052E800CF4CEA030C50
:1057E00042E800C10029F7D1BFF35B8F0B4A4FF4A9
:1057F00080338340C2F80433094BBFF35B8F1B68CF
:10580000BFF35B8FC340DB0742BF064B4FF4003250
:10581000C3F80021704700BF881C00200010014021
:10582000841C002000E100E00D4B1868010A00060E
:10583000BFF35F8F0B4BD3F80435181841F100010B
:10584000B3F5801F0AD2084BD3E90023904271EBD5
:10585000030303D210F1807041F10001704700BFD3
:105860008C1C002000100140181100202DE9F04F81
:1058700085B016461F469DF840A00446FFF75EFF20
:105880000190FFF7D1FFB04271EB070354D23E4BBA
:10589000301A67EB0101984271F100014FD23B4B86
:1058A00003EB0413D3E902239F4208BF96425ED064
:1058B00037494FF4803804F1500508FA04F8AD0078
:1058C000C1F848832046ADB206F042F926F07F4B7E
:1058D00005F1804504F5A87305F58835DC464FF0E1
:1058E00003090293029A2CF07F4341F82230C1F859
:1058F0004483D1F80435274A6FF00200C01A60448F
:1059000020F07F40904232D9286868B1D1F8043540
:105910000393A3EB0B0020F07F40B0F5000F26D9D6
:10592000204606F015F9039BBAF1000F07D109EBE9
:10593000030C09F10109D5E7BAF1000F09D06FF0A6
:10594000150520460199FFF741FF284605B0BDE83F
:10595000F08F0123104ABFF35B8FA34052E8000F82
:10596000184342E800010029F8D1BFF35B8F0749D3
:105970000E98230101EB0412C8500F9B5360C2E93B
:1059800002670025DDE700BF010080000011002054
:1059900000100140FDFF7F00841C00207FB51C4CDF
:1059A0001C4BC4F80833C4F848331B4B00254FF098
:1059B000FF304FF0FF31C4F80855C3E902014FF43E
:1059C0008033C4F80433154B02264FF40032012112
:1059D000C4F804631120C3F880212A46FCF752FB67
:1059E0001120FCF71FFB0E4A0123A3602360136004
:1059F0000C4B0D4A0093CDE9015500232846FFF7D3
:105A000035FF3046FFF734FA284604B070BD00BFBA
:105A10000010014003000F000011002000E100E031
:105A2000881C002085570000FFFF7F002DE9F74309
:105A30002F4CD4F8043399070BD5D4F8043143B173
:105A40002C4A0023C4F80431D4F80431136801331C
:105A50001360D4F80433DA0329D5BFF35B8F264BE8
:105A600053E8002F22F0010143E800100028F7D18D
:105A7000BFF35B8FD30702D4D4F84031BBB100250C
:105A8000C4F84051D4F84031FFF7CEFEEFF3118255
:105A9000202383F31288BFF36F8F184BD3E902677B
:105AA000B042B94106D282F31188BFF36F8F03B0C1
:105AB000BDE8F0834FF0FF384FF0FF39C3E90289AA
:105AC000D3E900101D604FF48033C4F84833C4F8A4
:105AD0004051D4F8403182F31188BFF36F8F002911
